:020000040800F2
:1000000008090020290200087B200008D91C0008EC
:10001000792000081F0400084527000800000000A0
:100020000000000000000000000000007F20000829
:10003000DD040008000000007D2000088120000889
:10004000430200084302000843020008430200087C
:10005000430200084302000843020008430200086C
:1000600043020008DF0400084302000843020008BE
:10007000430200084302000843020008430200084C
:10008000430200084302000843020008430200083C
:10009000430200084302000843020008430200082C
:1000A000430200084302000843020008430200081C
:1000B0002921000843020008430200084302000807
:1000C00043020008430200084302000843020008FC
:1000D00043020008430200084302000843020008EC
:1000E00043020008430200084302000843020008DC
:1000F00043020008430200084302000843020008CC
:1001000043020008430200084302000843020008BB
:1001100043020008430200084302000843020008AB
:1001200043020008430200082104000843020008BB
:10013000430200084302000843020008430200088B
:10014000430200084302000843020008430200087B
:1001500043020008430200082D040008430200087F
:10016000430200084302000843020008430200085B
:100170004302000843020008430200080000000098
:10018000430200084302000800F002F800F03CF8C7
:100190000AA090E8000C82448344AAF10107DA45E2
:1001A00001D100F031F8AFF2090EBAE80F0013F0F8
:1001B000010F18BFFB1A43F0010318472C2600005B
:1001C0004C260000103A24BF78C878C1FAD85207EC
:1001D00024BF30C830C144BF04680C6070470000C1
:1001E0000023002400250026103A28BF78C1FBD840
:1001F000520728BF30C148BF0B6070471FB502F0DF
:10020000DDFA1FBD10B510BD00F0CFF81146FFF7A5
:10021000F5FF02F0A9FA00F0EDF803B4FFF7F2FFE2
:1002200003BC00F0F5F80000094880470948004782
:10023000FEE7FEE7FEE7FEE7FEE7FEE7FEE7FEE796
:10024000FEE7FEE704480549054A064B70470000F3
:10025000192100088901000808030020080900206E
:10026000080500200805002053EA020C00F0698010
:100270002DE9F04B4FF00006002B1FBFB3FA83F5BA
:1002800003FA05F424FA05F65E4012BF1643B2FAEB
:1002900082F502FA05F4C5F120051EBF22FA05FC1D
:1002A00044EA0C04203556EA044C4FEA144418BFC3
:1002B000641C4FF000084FF00009904271EB030CF2
:1002C00039D3002919BFB1FA81F701FA07F6B0FA5C
:1002D00080F700FA07F6C7F120071EBF20FA07FCD7
:1002E00046EA0C062037B6FBF4FCA7EB0507103FE7
:1002F00007F01F0BCBF120060CFA0BFB2CFA06F6CD
:1003000044BFB3460026202FA4BF5E464FF0000B2B
:100310005BEA060C08BF4FF0010B19EB0B09ABFBB6
:10032000027C48EB0608C01B06FB02CC0BFB03CC8F
:1003300071EB0C01C1E70B46024641464846BDE859
:10034000F08B13B54FF000004FF00001AFF30080C9
:10035000BDE81C4070474FF0000200B513469446BC
:100360009646203922BFA0E80C50A0E80C50B1F10D
:100370002001BFF4F7AF090728BFA0E80C5048BF21
:100380000CC05DF804EB890028BF40F8042B08BFBF
:10039000704748BF20F8022B11F0804F18BF00F8BB
:1003A000012B7047704770477047754600F02CF876
:1003B000AE4605006946534620F00700854618B052
:1003C00020B5FFF73FFFBDE820404FF000064FF09B
:1003D00000074FF000084FF0000B21F00701AC467A
:1003E000ACE8C009ACE8C009ACE8C009ACE8C00999
:1003F0008D46704710B50446AFF300802046BDE837
:100400001040FFF70ABF000000487047A402002018
:1004100001491820ABBEFEE7260002007047FEE748
:10042000014800F0D5B80000E4010020014800F0C8
:10043000CFB800004402002001681823CAB2103A65
:10044000B2FBF3F2054B6FF30901032A9B5CC36512
:1004500000D9091D8165084670470000C6270008BD
:1004600010B5014600208B698A6A4FF0C07453B101
:10047000B3F5005F15D072B1012A0CD0022A0AD060
:10048000032A09D104E01AB1012A06D0022A03D1B5
:10049000C96AC90100D5012010BDC96AA142FAD0BC
:1004A00010BD002AF7D0012AF2D0022AF3D0032A85
:1004B000F3D010BD30B50468256825F4802525608B
:1004C000046863608368402B036803D09960006808
:1004D000C26030BD9A600068C16030BD70470820BE
:1004E00000F06ABA72B6FEE730B5B3F5804F05D0BA
:1004F0006FF0704140F82210002030BD8C690B680D
:100500008D6823434C688989240144EA05242343E8
:1005100043EA014150F82230014C23401943E9E7F6
:100520000000F0CF10B50A6850F8223023F0010324
:1005300040F822308C68082C23D000234A682243DC
:10054000CC681C430B6922431A434B690E4C1A4377
:10055000CB691A430B6A1A434B6A1A438B6A1A43D4
:10056000CB6A1A430B6B1A438B691343CA6B096836
:100570001A4350F82130A343134340F821300020A0
:1005800010BD4023DAE700007FFF0F0030B5D1E94E
:10059000003443EA04138C688D89240244EA05443C
:1005A00023430C8A094D00EB820005EB04542343DE
:1005B0000C7D6D0105EB0464896923430B4341689D
:1005C00001F040410B434360002030BD0000F0FFCC
:1005D0002DE9F84304464FF00009CDF80090634838
:1005E0004FF41651A56D0068B0FBF1F72E6894F832
:1005F0005C10082000FA01F131420FD021680A682E
:1006000052070BD50A6822F004020A6094F85C10C5
:100610008840A860606D40F00100606594F85C104F
:100620004FF0010808FA01F0304208D0216849690A
:10063000090604D5A860606D40F00200606594F87A
:100640005C1004208840304208D02168096889077E
:1006500004D5A860606D40F00400606594F85C10FB
:1006600010208840304218D021680968090714D545
:10067000A86020680168490304D50068000308D514
:10068000A16C07E00168C90503D4016821F00801E5
:100690000160216C09B12046884794F85C10202045
:1006A0008840304231D021680968C9062DD5A8603C
:1006B00094F8350005282068016806D0490347D51D
:1006C000006800031DD4616C1CE021F0160101607C
:1006D0002068416921F080014161206C08B9A06C5B
:1006E00020B12068016821F00801016094F85C10D5
:1006F0003F208840A86084F8358084F83490216DCC
:100700001FE0E16B09B120468847606D00282BD0BF
:10071000606DC00714D0052084F83500206801689A
:1007200021F0010101600098401C0090B84203D8FC
:1007300020680068C007F6D184F8358084F83490CA
:10074000E16C002910D001B02046BDE8F043084715
:100750000168C905D5D4016821F01001016084F851
:10076000358084F83490CCE7BDE8F8831C00002085
:100770002DE9F041044600F035FA06465CB102204E
:1007800084F83500002584F834502068016821F091
:10079000010101600DE00120BDE8F08100F022FAC6
:1007A000801B052805D920206065032084F83500CA
:1007B000F2E720680068C007F0D12268116820487D
:1007C0000140D4E901031843D4E903363343184305
:1007D00063691843A3691843E3691843236A1843FC
:1007E0000843616A042903D1D4E90B131943084370
:1007F000106020684069666A20F0070130460E43A9
:10080000012704280CD1A06A0643E06A40B12046C3
:10081000FFF726FE20B14020606584F83570BAE706
:10082000206846612046FFF707FE94F85C203F21D0
:1008300091408160656584F835700020ACE7000068
:100840003F8010F02DE9F0410446866D90F83400A9
:10085000002501280DD0012084F8340094F835706B
:100860000020012F07D084F8340002252846BDE877
:10087000F0810220FBE7022784F83570606520468E
:10088000FFF718FE94F85C103F208840B0602068A5
:10089000016841F016010160206C20B120680168F8
:1008A00041F0080101602068016841F00101016028
:1008B000DCE7000070B5044600F094F90546601CC2
:1008C00002D004480078044400F08CF9401BA04298
:1008D000FAD370BD100000202DE9F04186B014213C
:1008E0006846FFF738FD20480168002939D1012109
:1008F00001601E480024016841F0010101600068A8
:100900004FF4805800F001000C27CDF80080CDE9AD
:100910000470032602250396CDE901546946144864
:1009200000F056F84FF68070CDE9000502AA69463E
:1009300082E8D0000F4800F04BF84CF23370CDE95C
:10094000000502AA694682E8D0000B4800F040F892
:1009500002AA694682E8D000CDE90085074800F088
:1009600037F806B0BDE8F0810800002038380240B2
:100970000014024000100240000C02400018024027
:1009800010B5082814D10B4C0821204600F018F9A6
:1009900000280DD16420FFF78DFF0821204600F0CC
:1009A0000FF90028F9D0BDE810406420FFF782BF9E
:1009B00010BD000000100240044910B50A68024250
:1009C00002D00860FFF7DCFF10BD0000143C0140BE
:1009D0002DE9F84FDFF8BCA10022012503264FF0D6
:1009E0000F090AF1040BAAF1040E00BF0B6805FA07
:1009F00002F42340A34270D10F7907F00307012FBF
:100A000001D0022F16D187684FEA420806FA08FC87
:100A100027EA0C07D1F80CC00CFA08FC4CEA070CCA
:100A2000C0F808C04768A7430C79C4F30014944089
:100A30003C4344600C79E443A4070AD0C4684FEAFD
:100A4000420C06FA0CF7BC438F6807FA0CF72743F1
:100A5000C7600C7904F00304022C12D1D40800EB17
:100A6000840CDCF820405707FF0E09FA07F824EA47
:100A70000804D1F8108008FA07F848EA0408CCF80E
:100A8000208004684FEA420C06FA0CF7BC430F7949
:100A900007F0030707FA0CF7274307604C6814F4C4
:100AA000403F70D03C4C276847F48047276024685B
:100AB00022F0030704F480440094384C07EB040C44
:100AC000DCF8084897074FEA177809FA08F7BC439B
:100AD000334FB84202D1002724E054E0314FB842EE
:100AE00001D101271EE0304FB84201D1022719E0A1
:100AF0002E4FB84201D1032714E02D4FB84201D147
:100B000004270FE02B4FB84201D105270AE02A4FF6
:100B1000B84201D1062705E0284FB84201D1072786
:100B200000E0082707FA08F72743CCF80878DAF836
:100B300000405746D1F804C09C435FEACC2C00D556
:100B40001C433C60DBF800405F46D1F804C09C4386
:100B50005FEA8C2C00D51C433C60DEF800407746F1
:100B6000D1F804C09C435FEA8C3C00D51C433C6038
:100B7000084F083F3C68D1F804C09C435FEACC3C76
:100B800000D51C433C60521C102AFFF42FAFBDE877
:100B9000F88F0000083C014044380240003001401A
:100BA000000002400004024000080240000C024025
:100BB000001002400014024000180240001C0240D5
:100BC0000069084000D001207047426921EA020311
:100BD0000A4043EA0241816170470AB1816170476E
:100BE0000904FBE7014880687047000010000020FE
:100BF000024881680278114481607047100000202B
:100C00000B4810B5016841F400710160016841F4BE
:100C100080610160016841F480710160032000F08F
:100C20006FF80F2000F006F800F024F8002010BD47
:100C3000003C024070B50D4D04464FF47A7128789F
:100C4000B1FBF0F00A490968B1FBF0F000F0CCFB11
:100C500048B9102C07D200222146501E00F030F86F
:100C600000206C6070BD012070BD000010000020ED
:100C70001C0000200A4808B5016841F48041016069
:100C8000006800F4804000900548001F016841F0B2
:100C900080510160006800F08050009008BD0000A5
:100CA00044380240002809DB00F01F020121914076
:100CB0004009800000F1E020C0F8001170470000FA
:100CC000F0B40E4B1B680C46C3F30223C3F10705B7
:100CD000042D00D90425191D072901D2002300E0A5
:100CE000DB1E012606FA05F1491E214099409E406F
:100CF000761E16403143F0BC01F025BD0CED00E03E
:100D0000064900F0070208684FF6FF03184040EA62
:100D10000220034A10430860704700000CED00E019
:100D20000000FA052DE9F0470E46050065D0DFF812
:100D30001481D8F80000F7B200F00700B04207D2E3
:100D400088F80070D8F8000000F00700B04254D1D5
:100D500028683D4C810712D5400703D5206840F430
:100D6000E05020602878000703D5206840F46040F8
:100D700020602068A96820F0F000084320602878EF
:100D8000C0072DD0304968680839012812D00228E0
:100D900013D0032811D00968890700292DDA2168AA
:100DA00021F0030101432160FFF71CFF814641F25E
:100DB000883A0EE009688903EFE709688901ECE7E2
:100DC000FFF710FFA0EB0901514502D90320BDE850
:100DD000F0872068696800F00C00B0EB810FEFD15C
:100DE000D8F80010404601F00701B14207D907705A
:100DF000006800F00700B04201D00120E7E7287842
:100E0000400705D52068E96820F4E05008432060D9
:100E10002878000706D52068296920F4604040EA58
:100E2000C100206000F038F82168084AC1F30311BE
:100E3000515CC8400649086006480068FFF7FAFEA2
:100E40000020C4E7003C024008380240CE270008DA
:100E50001C000020140000200448054900680968AF
:100E6000044AC1F38221515CC84070471C00002035
:100E700008380240DE270008044805490068096870
:100E8000044AC1F34231515CC84070471C00002045
:100E900008380240DE270008154810B5006810F039
:100EA0000C02144813D04110042A0FD0082A0ED186
:100EB0000F4C241F2268236802F03F025B0207D513
:100EC0002068C0F38810A0FB010106E0084610BDB1
:100ED0002168C1F38811A1FB00010023FFF7C4F9C9
:100EE0002168C1F30141491C4900B0FBF1F010BD7C
:100EF000083802400024F4002DE9F84F04006ED0B9
:100F00002078DFF84C93C007A9F104054AD009F115
:100F100004000168C1F38101012908D00068C0F311
:100F2000810002280AD1D9F80000400206D52868BD
:100F3000800337D560680028E1D033E06068B0F501
:100F4000803F10D0B0F5A02F286810D020F480305A
:100F50002860286820F4802028606068A8B1FFF726
:100F600041FE06460DE0286840F48030F4E740F486
:100F700080202860F7E700BFFFF734FE801B64285D
:100F800073D828688003F7D50CE0FFF72BFE0646E0
:100F900005E000BFFFF726FE801B6428F0D8286814
:100FA0008003F7D42078DFF8AC8280074FF0000A86
:100FB0003ED5A748001D016811F00C0F08D000684D
:100FC000C0F3810002280BD1D9F80000400207D4F9
:100FD0002868800716D5E068012800D112E033E1C7
:100FE000E068B8B10120C8F80000FFF7FBFD064635
:100FF00005E000BFFFF7F6FD801B0228C0D8286877
:101000008007F7D52868216920F0F80040EAC10080
:1010100028600DE0C8F800A0FFF7E4FD064604E0F4
:10102000FFF7E0FD801B02281FD828688007F7D44F
:101030002078000722D5864F87486169703771B1E3
:1010400001210160FFF7CEFD064604E0FFF7CAFD6F
:10105000801B022809D838688007F7D50EE0C0F851
:1010600000A0FFF7BFFD064605E082E0FFF7BAFDEE
:10107000801B02287DD838688007F7D42078400785
:1010800068D5DFF8CCB100270BF13C0BDBF8000092
:10109000C0000BD4DBF8001041F08051CBF80010F9
:1010A000DBF80000012700F0805000906B4E3068A4
:1010B000C00510D4306840F480703060FFF792FDB6
:1010C000009005E0FFF78EFD0099401A022850D8E5
:1010D0003068C005F6D55E4EA0686C3601280FD08A
:1010E0000528306810D020F001003060306820F012
:1010F00004003060A068B8B1FFF774FD00900FE005
:10110000306840F00100F4E740F004003060F7E799
:10111000FFF768FD0099411A41F28830814266D894
:1011200030688007F4D50EE0FFF75CFD009007E023
:10113000FFF758FD0099411A41F28830814256D894
:1011400030688007F4D42FB1DBF8001021F0805113
:10115000CBF80010A069C8B33D49091D0968C1F367
:10116000810102294AD00228504607D0C8F8600001
:1011700000E03CE0FFF736FD04463BE04746C8F898
:101180006000FFF72FFD064605E000BFFFF72AFDD0
:10119000801B02282BD828688001F7D4D4E90701E6
:1011A0000843A16A2E4A490802EB0141626A41EAFA
:1011B0008211084394F82C1040EA0161C9F800102C
:1011C00001203866FFF70EFD044606E03EE000BF52
:1011D000FFF708FD001B022809D828688001F7D511
:1011E00034E000BFFFF7FEFC001B022802D90320F9
:1011F000BDE8F88F28688001F4D427E00128F7D0F3
:10120000D9F80000E26900F4800191421CD1226A01
:1012100000F03F01914217D147F6C071626A014068
:10122000B1EB821F10D1A26A4FF0FF3300F44031BE
:1012300003EB5202B1EB024F06D194F82C1000F0F0
:101240007060B0EB016F01D00120D1E70020CFE743
:101250000438024000004742800E474200700040C0
:101260000000FFFF70B5040009D0606A002540B19E
:1012700025616561A56294F8510040B10CE0012040
:1012800070BD6068B0F5827FF4D0E561F2E784F864
:101290005050204600F044F8022084F851002068A5
:1012A000016821F040010160A088218900F482706A
:1012B00001F404410843A18901F400610843217C41
:1012C00001F002010843217D01F001010843218B57
:1012D00001F400710843217F01F03801084394F8BC
:1012E000201001F080010843218D01F400510843D2
:1012F00021680860A069042101EA104094F82410D4
:1013000001F010010843216848602068C16921F498
:101310000061C1616565012084F85100002070BD45
:1013200010B586B0044614216846FFF714F8134937
:101330002068884220D112480021026842F480527D
:101340000260006800F4805005900D48143802686F
:1013500042F001020260006800F001000590E02008
:1013600000900220CDE901010320039005200490A4
:1013700069460448FFF72CFB06B010BD0030014061
:10138000443802400000024070B515460E46040085
:1013900003D094F8490010B107E0012070BD00208F
:1013A00084F84800204600F01DF804F10801206888
:1013B000FFF7B8F83146A2682068FFF7E7F8D4E9EC
:1013C00001022946236BFFF78FF82168A06851F8C6
:1013D000202042F0010241F82020012084F8490039
:1013E000002070BDFFF778BA10B5401EB0F1807FC5
:1013F00001D3012010BD4FF0E02460610F21601780
:1014000001F0A1F90020A06107202061002010BD9B
:101410007047704770B590F83C20012A32D0012403
:1014200080F83C40022280F83D2003685A689D689D
:1014300022F070060A6832435A60134B02689A42DF
:1014400014D0B2F1804F11D0104B9A420ED0104BF5
:101450009A420BD00F4B9A4208D00F4B9A4205D0BC
:101460000E4B9A4202D00E4B9A4204D1496825F0A5
:1014700080031943916080F83D40002180F83C10C2
:10148000084670BD022070BD00000140000400400D
:1014900000080040000C00400004014000400140F2
:1014A0000018004010B5040003D094F83D0010B1BE
:1014B00007E0012010BD002084F83C00204600F029
:1014C0001FF8022084F83D00211D206800F032FE44
:1014D000012084F8460084F83E0084F83F0084F838
:1014E000400084F8410084F8420084F8430084F806
:1014F000440084F8450084F83D00002010BD000041
:1015000008B501681648B1F1804F0AD0154A9142DA
:1015100019D1016841F020010160006800F020004D
:101520001BE0016841F0010101600068002200F049
:101530000100009011461C20FFF7C2FBBDE80840E7
:101540001C20FFF7AFBB084A914207D1016841F464
:1015500080710160006800F48070009008BD000098
:1015600040380240001400400020004090F83D1038
:10157000012901D001207047022180F83D10016847
:10158000CA6842F00102CA6000681149884214D05A
:10159000B0F1804F11D00F4988420ED00E498842D9
:1015A0000BD00E49884208D00D49884205D00D491C
:1015B000884202D00C49884204D1816801F00701B9
:1015C000062903D0016841F0010101600020704745
:1015D000000001400004004000080040000C0040F2
:1015E00000040140004001400018004070B504466E
:1015F00090F83C000025012817D0012684F83C60B3
:10160000022084F83D002068826822F0770222F4EC
:101610007F4282600868502838D00DDC20284FD0E7
:1016200005DC90B3102811D14AE0022070BD3028AB
:1016300046D040280AD13BE060282FD070280DD03A
:10164000B0F5805F03D0B0F5005F12D0012584F8BB
:101650003D60002084F83C00284670BDCB68D1E98D
:101660000121206800F0D7FD2068816841F07701F2
:1016700009E0CB68D1E90121206800F0CCFD2068A9
:10168000816841F480418160E1E719E0CA684968F6
:10169000206800F095FE5021206806E0CA6849687D
:1016A000206800F09EFE6021206800F0BEFDCEE7BD
:1016B000CA684968206800F083FE40212068F4E78A
:1016C000226801461046F0E7704770B5044600688E
:1016D00001694FF00005C943890715D4C168C943A2
:1016E000890711D4E91E01610120207720688069F3
:1016F0008007204602D0FFF7E7FF04E000F0D8F8AB
:10170000204600F06AF9257720680169C943490736
:1017100017D4C168C943490713D46FF004010161AC
:10172000022020772068806910F4407F204602D094
:10173000FFF7CAFF04E000F0BBF8204600F04DF9C7
:10174000257720680169C943090716D4C168C943D0
:10175000090712D46FF00801016104202077206886
:10176000C0698007204602D0FFF7AEFF04E000F01A
:101770009FF8204600F031F9257720680169C943B8
:10178000C90617D4C168C943C90613D46FF0100144
:101790000161082020772068C06910F4407F20464E
:1017A00002D0FFF791FF04E000F082F8204600F03D
:1017B00014F9257720680169C943C90708D1C168B0
:1017C000C943C90704D1891E0161204600F06AF9A6
:1017D00020680169C943090609D4C168C9430906DB
:1017E00005D46FF0800101612046FFF711FE2068EB
:1017F0000169C943490609D4C168C943490605D4EA
:101800006FF040010161204600F054F92068016941
:10181000C94389060BD4C168C943890607D46FF050
:10182000200101612046BDE87040FFF7F2BD70BDA8
:1018300010B586B0044614216846FEF78CFD236877
:10184000002117480222B3F1804F17D0154CA34254
:1018500012D1036843F020030360006800F0200009
:10186000059010020090CDE901210920CDE9031077
:1018700069460D48FFF7ACF806B010BD036843F0A9
:1018800001030360006800F0010005900120009052
:10189000CDE90121CDE9031069460448EAE70000DB
:1018A0003038024000200040001402400000024096
:1018B000704770B5044690F83C0000260D4601289C
:1018C0000FD0012084F83C006AB1042A1DD0082AF8
:1018D0002FD00C2A3FD00126002084F83C0030464F
:1018E00070BD022070BD206800F0A8FC20688169EE
:1018F00041F0080181612068816921F00401816162
:10190000206881692A69114311E0206800F0C6FC53
:101910002068816941F4006181612068816921F456
:1019200080618161206881692A6941EA02218161BF
:10193000D2E7206800F0E8FC2068C16941F00801A6
:10194000C1612068C16921F00401C1612068C169D9
:101950002A69114311E0206800F00AFD2068C1697E
:1019600041F40061C1612068C16921F48061C161F5
:101970002068C1692A6941EA0221C161ACE710B55A
:10198000040003D094F83D0010B107E0012010BD21
:10199000002084F83C00204600F01EF8022084F865
:1019A0003D00211D206800F0C5FB012084F84600A1
:1019B00084F83E0084F83F0084F8400084F8410039
:1019C00084F8420084F8430084F8440084F8450019
:1019D00084F83D00002010BD7047704710B50446E4
:1019E000022249B104290ED0082913D094F84100ED
:1019F000012816D0012010BD94F83E000128F9D12D
:101A000084F83E200FE094F83F000128F2D184F8DA
:101A10003F2008E094F840000128EBD184F84020F2
:101A200001E084F841200122206800F0E7FB16491C
:101A30002068164A884201D0904203D1436C43F497
:101A4000004343642068884213D0B0F1804F10D027
:101A50000F4988420DD00F4988420AD00E4988426A
:101A600007D0904205D00D49884202D00C498842E7
:101A700004D1816801F00701062903D0016841F013
:101A800001010160002010BD000001400004014080
:101A90000004004000080040000C004000400140ED
:101AA000001800404FF480610148FFF78EB8000035
:101AB0000014024070477047704770B5040004D0AE
:101AC00094F83D00002510B106E0012070BD84F8B7
:101AD0003C50204600F022F8242084F83D00206885
:101AE000C16821F40051C160204600F05BFD206810
:101AF000016921F4904101612068416921F02A01C6
:101B000041612068C16841F40051C1602564202012
:101B100084F83D0084F83E00002070BD2DE9F041BE
:101B200086B0064614216846FEF715FC2C4930683D
:101B3000884251D12B480024016841F01001016016
:101B4000006800F01000059026481438016841F044
:101B5000010101600068694600F0010005904FF442
:101B6000C06000900220CDE901040320039007200B
:101B700004901D48FEF72CFF1D4D1C484FF00067D8
:101B80002860C5E901744FF48068C5E903486C61B9
:101B9000AC61EC612C6228466C62FEF7E9FD08B18D
:101BA000FEF7A0FCB563AE63114D10486035783088
:101BB000E5E802074020A5E811010D4845F8144961
:101BC0006030AC61EC612C626C62FEF7D1FD08B153
:101BD000FEF788FC7563AE6306B0BDE8F0810000D7
:101BE00000100140443802400000024040640240BE
:101BF000E401002090F83E30202B0ED159B152B1B3
:101C000090F83C30012B08D0012380F83C300023B1
:101C1000036300F04DBD01207047022070470000B3
:101C200010B503220549064800F00EF8BDE8104043
:101C3000032202490248FFF7DDBF00000000002038
:101C4000A00100207047000070B5044690F83D00E8
:101C5000202836D191B38AB394F83C00012830D0C3
:101C6000012084F83C002162A284E28400252564DE
:101C7000212084F83D00636B1348D863636B1348DD
:101C80001864636B1248D864606B13460565266858
:101C9000606B321DFEF7D6FD21686FF040000860D2
:101CA00084F83C502068143050E8001F41F0800157
:101CB00040E80012002AF5D1002070BDFFE70120A6
:101CC000FBE70220F9E70000ED2400082F250008BB
:101CD0000724000870477047FEE700000D4808B56C
:101CE000016841F4800101600068002200F4800076
:101CF000009011463A20FEF7E3FF3A20FEF7D2FFAC
:101D0000002211464620FEF7DBFFBDE808404620D2
:101D1000FEF7C8BF3038024010B58EB01C216846AF
:101D2000FEF719FB1C2107A8FEF715FB1A484FF018
:101D30002041102201601949416006218160002183
:101D4000C160C0E904128161C16113020162C0E98E
:101D500009139302C0E90B134163816341640F20AF
:101D60003C230090CDE9010303AC112384E80E006D
:101D700009240691CDE9074009AC082084E80F004A
:101D80000D9107AA69460448FFF7FEFA002801D022
:101D9000FEF7A8FB0EB010BD20000020040100A03B
:101DA0002DE9F04186B014216846FEF7D4FA3C488C
:101DB0000024016841F010010160016801F0100188
:101DC0000591016841F004010160016801F004011E
:101DD0000591016841F020010160016801F02001D6
:101DE0000591016841F080010160016801F0800106
:101DF0000591016841F001010160016801F00101F4
:101E00000591016841F002010160016801F00201E1
:101E10000591016841F008010160016801F00801C5
:101E20000591016841F04001016000681D4F00F01C
:101E300040004FF480650590002229463846FEF7A1
:101E4000CCFEDFF864806E01002231464046FEF78A
:101E5000C4FE082000904FF48810CDE901046946C3
:101E60001248FEF7B5FD00950125CDE901546946FC
:101E700038460394FEF7ACFD0096CDE9015469465F
:101E800040460394FEF7A4FD002211460920FEF708
:101E900017FF0920FEF706FF06B0BDE8F08100003D
:101EA000303802400014024000040240001002409A
:101EB000104810B50E4901604FF482714160002155
:101EC0008160C1604FF400720161C0E905122822EF
:101ED000C0E90721416281620A21C162FFF7C2F9AC
:101EE000002803D0BDE81040FEF7FCBA10BD00008A
:101EF000003001407000002010B588B01C216846F9
:101F0000FEF729FA15481449002401605321C0E95D
:101F1000011440F2E731C0E903148461FFF7C2FA0B
:101F200008B1FEF7DFFA0D48FFF729FD08B1FEF70B
:101F3000D9FA6020CDE900040294002269460748DE
:101F40000494FFF7B6FC08B1FEF7CCFA0348FFF79C
:101F50006FFC08B010BD00000020004058010020B8
:101F600010B58EB000240794089409940A940B9439
:101F70001C2168460C94FEF7EEF91E484FF0804194
:101F800001605321C0E901141B49C0E903148461B5
:101F9000FFF788FA08B1FEF7A5FA4FF480500790D2
:101FA00007A91448FFF722FB08B1FEF79BFA114876
:101FB000FFF7E5FC08B1FEF795FA0B940BA90D4865
:101FC0000C94FFF727FA08B1FEF78CFA6020CDE9F0
:101FD0000004022002900022694604940548FFF79D
:101FE00068FC08B1FEF77EFA0248FFF721FC0EB04C
:101FF00010BD0000C80000201FA107001CB5002470
:102000000E4800940C49019401605321C0E9011469
:1020100001218461C160FFF745FA08B1FEF762FA59
:102020000094694605480194FFF7F4F9002801D0AF
:10203000FEF758FA1CBD00000014004010010020FB
:102040000C4810B50A4901604FF4E13141600021AC
:1020500081600C22C160C0E904128161C161FFF797
:102060002CFD002803D0BDE81040FEF73BBA10BDA0
:1020700000100140A0010020FEE7FEE77047704716
:10208000FEF7B6BD30B593B030216846FEF763F970
:1020900014210CA8FEF75FF91D480025016841F0E6
:1020A00080510160006800F080501190194801686B
:1020B00041F4804101600068022400F480401190E6
:1020C00001200090000401908001CDE9064008AA9B
:1020D0000420A82182E813000B906846FEF70CFF4D
:1020E00008B172B6FEE70CA90F2081E831004FF469
:1020F000A0500F904FF48050109005210CA8FEF7CF
:1021000011FE002801D072B6FEE713B030BD00000A
:1021100040380240007000400248016841F47001FC
:102120000160704788ED00E00148FFF7CEBA00007B
:10213000C8000020F0B50268254C264D264E274FDA
:10214000274B4FF0804CA04209D0604507D0A842F1
:1021500005D0B04203D0B84201D0984204D122F059
:10216000700E4A6842EA0E02A0421BD0604519D0A8
:10217000A84217D0B04215D0B84213D0984211D01F
:10218000184DA8420ED0184DA8420BD0174DA842AA
:1021900008D0174DA84205D0164DA84202D0164DC2
:1021A000A84203D122F44075CA682A434D6922F03F
:1021B00080022A4302608A68C2620A688262A04280
:1021C00001D0984201D10969016301214161F0BD4B
:1021D000000001400004004000080040000C0040E6
:1021E000000401400040014000440140004801401B
:1021F00000180040001C00400020004010B501F015
:102200001F030121046A99408C430462016A9A40C9
:102210001143016210BD10B5846842EA032224F420
:102220007F440A432243826010BD826822F070021C
:102230000A4342F00701816070470000F0B5026A6E
:1022400022F001020262036A42688469124E24F09D
:1022500073050C682C4323F002058B682B430D4D4E
:10226000A84201D0B04205D123F00807CB683B4318
:1022700023F00403A84201D0B04205D14D6922F4F5
:10228000407215438A692A43426084614968416308
:102290000362F0BD0000014000040140F0B5026A95
:1022A00022F010020262026A436884690D6824F415
:1022B000E64444EA05248D6822F0200242EA051231
:1022C0000F4D104EA84201D0B04206D1CF6822F087
:1022D000800242EA071222F04002A84201D0B04236
:1022E00007D14D6923F4406343EA85038D6943EACE
:1022F000850343608461496881630262F0BD000028
:102300000000014000040140F0B5026A22F480722E
:102310000262026A4368C46922F4007224F0730501
:102320000C68124E2C438D6842EA05220E4DA842DD
:1023300001D0B04206D1CF6822F4006242EA0722FF
:1023400022F48062A84201D0B04207D14D6923F443
:10235000405343EA05138D6943EA05134360C461A2
:102360004968C1630262F0BD000001400004014001
:1023700030B5026A22F480520262046A4268C3697C
:102380000D6823F4E64343EA05238D6824F40054E2
:1023900044EA0534084DA84202D0084DA84204D1B1
:1023A0004D6922F4804242EA85124260C361496865
:1023B0000164046230BD00000000014000040140DF
:1023C00010B5036A046A24F001040462846924F0ED
:1023D000F00444EA021423F00A020A438461026210
:1023E00010BD10B5036A23F0100303628369046A09
:1023F00023F4704343EA023224F0A00343EA0111BC
:102400008261016210BD70B5846B2068406994F8E8
:102410003D10C0F3C0100025212904D118B1E58476
:10242000204600F0B0F82068406994F83E10C0F3F0
:102430008010222904D118B1E585204600F07CF8EF
:10244000206C40F0100020642046FFF735FB70BD83
:1024500010B50146806B09680968C9052FD40021B1
:10246000C18501680C3151E8002F22F4807241E8E7
:102470000023002BF5D10168143151E8002F22F020
:10248000010241E80023002BF5D10168143151E825
:10249000002F22F0400241E80023002BF5D120213B
:1024A00080F83E10016B012909D101680C3151E817
:1024B000002F22F0100241E80023002BF5D1016B20
:1024C000012902D0FFF7ACFB10BD818DFFF7F3FAB5
:1024D00010BD10B5806B016B012902D0FFF7B2FB74
:1024E00010BD818D4908FFF7E6FA10BD10B5014611
:1024F000806B09680968C90516D40021C184016888
:10250000143151E8002F22F0800241E80023002B13
:10251000F5D101680C3151E8002F42F0400241E84A
:102520000023002BF5D110BDFFF7D4FB10BD10B573
:10253000806BFFF7D0FB10BD01680C3151E8002F14
:1025400022F4907241E80023002BF5D10168143188
:1025500051E8002F22F0010241E80023002BF5D1C1
:10256000016B012909D101680C3151E8002F22F0DB
:10257000100241E80023002BF5D1202180F83E1005
:1025800000210163704701680C3151E8002F22F0EF
:10259000C00241E80023002BF5D1202180F83D1036
:1025A0007047000070B5044600680169E26821F4D4
:1025B0004051114301612169A068E26908436169E2
:1025C000114308432168CA6849F20C639A430243E5
:1025D000CA6020684169A26921F4407111434161D8
:1025E00031492068884202D03049884202D1FEF742
:1025F00043FC01E0FEF730FCE26900231921642569
:102600003226B2F5004F626828D0A0FB0101930F7B
:102610009200FDF729FE0146B0FBF5F06FF01802BD
:10262000504301EB800006EB0010B0FBF5F000F02A
:10263000F002B1FBF5F002EB0012B1FBF5F06FF028
:102640001803584301EB800006EB0010B0FBF5F0D7
:1026500000F00F0021681044886070BDA0FB0101EC
:1026600092185B41FDF700FE0146B0FBF5F0020158
:10267000B1FBF5F06FF01803584301EB800006EB57
:10268000C000B0FBF5F000F0F80002EB4002B1FB37
:10269000F5F0584301EB800006EBC000B0FBF5F00D
:1026A00000F00700D6E700000010014000140140D0
:1026B00038B58162828500251346044605642220D0
:1026C00084F83E00A26B1C48D063A26B1B481064C8
:1026D000A26B1B48D064A06B0A4605652168A06BFD
:1026E000091DFEF7AFF8206801684068009084F883
:1026F0003C50206948B120680C3050E8001F41F47C
:10270000807140E80012002AF5D12068143050E8AA
:10271000001F41F0010140E80012002AF5D12068B5
:10272000143050E8001F41F0400140E80012002A38
:10273000F5D1002038BD000051240008D324000842
:1027400007240008FEE70907090E002804DB00F152
:10275000E02080F80014704700F00F0000F1E02046
:1027600080F8141D70470000FEF74AFAFFF78AFC54
:10277000FFF716FBFFF7B2FAFFF762FCFFF7CCFAA0
:10278000FFF7EEFBFFF7B8FBFFF738FCFFF790FB16
:102790000648FEF7EBFE00210548FFF71FF903226C
:1027A00004490548FFF726FAFEE70000C8000020AC
:1027B0005801002000000020A00100204FF04070D0
:1027C000E1EE100A70470006101600061016000011
:1027D00000000000000001020304060708090000D1
:1027E0000000010203040000082800080000002087
:1027F00020000000C4010008282800082000002054
:10280000E8080000E00100080000000000000000EF
:1028100000000000000000000100000010000000A7
:08282000000000000024F40098
:040000050800018965
:00000001FF
