:020000040800F2
:100000006019002029020008332E00083922000858
:10001000312E00083B040008616200080000000067
:10002000000000000000000000000000A52F0008F4
:10003000F904000800000000352E0008A72F000872
:10004000430200084302000843020008430200087C
:10005000430200084302000843020008430200086C
:1000600043020008FB0400084302000843020008A2
:10007000430200084302000843020008430200084C
:10008000430200084302000843020008430200083C
:10009000430200084302000843020008430200082C
:1000A000430200084302000843020008430200081C
:1000B00055530008430200084302000843020008A9
:1000C00043020008430200084302000843020008FC
:1000D00043020008430200084302000843020008EC
:1000E00043020008430200084302000843020008DC
:1000F00043020008430200084302000843020008CC
:1001000043020008430200084302000843020008BB
:1001100043020008430200084302000843020008AB
:1001200043020008430200083D040008430200089F
:10013000430200084302000843020008430200088B
:10014000430200084302000843020008430200087B
:100150004302000843020008490400084302000863
:10016000430200084302000843020008430200085B
:100170004302000843020008430200080000000098
:10018000430200084302000800F002F800F03CF8C7
:100190000AA090E8000C82448344AAF10107DA45E2
:1001A00001D100F031F8AFF2090EBAE80F0013F0F8
:1001B000010F18BFFB1A43F001031847C4B2000037
:1001C000E4B20000103A24BF78C878C1FAD85207C8
:1001D00024BF30C830C144BF04680C6070470000C1
:1001E0000023002400250026103A28BF78C1FBD840
:1001F000520728BF30C148BF0B6070471FB506F0DB
:100200008AFD1FBD10B510BD00F0E2F81146FFF7E2
:10021000F5FF06F01FFA00F000F903B4FFF7F2FF54
:1002200003BC00F003F90000094880470948004773
:10023000FEE7FEE7FEE7FEE7FEE7FEE7FEE7FEE796
:10024000FEE7FEE704480549054A064B70470000F3
:100250004130000889010008601300206019002067
:10026000601500206015002053EA020C00F0698040
:100270002DE9F04B4FF00006002B1FBFB3FA83F5BA
:1002800003FA05F424FA05F65E4012BF1643B2FAEB
:1002900082F502FA05F4C5F120051EBF22FA05FC1D
:1002A00044EA0C04203556EA044C4FEA144418BFC3
:1002B000641C4FF000084FF00009904271EB030CF2
:1002C00039D3002919BFB1FA81F701FA07F6B0FA5C
:1002D00080F700FA07F6C7F120071EBF20FA07FCD7
:1002E00046EA0C062037B6FBF4FCA7EB0507103FE7
:1002F00007F01F0BCBF120060CFA0BFB2CFA06F6CD
:1003000044BFB3460026202FA4BF5E464FF0000B2B
:100310005BEA060C08BF4FF0010B19EB0B09ABFBB6
:10032000027C48EB0608C01B06FB02CC0BFB03CC8F
:1003300071EB0C01C1E70B46024641464846BDE859
:10034000F08B13B54FF000004FF00001AFF30080C9
:10035000BDE81C4070474FF0000200B513469446BC
:100360009646203922BFA0E80C50A0E80C50B1F10D
:100370002001BFF4F7AF090728BFA0E80C5048BF21
:100380000CC05DF804EB890028BF40F8042B08BFBF
:10039000704748BF20F8022B11F0804F18BF00F8BB
:1003A000012B704770477047704710B500F008F890
:1003B000006810BD10B5044600F002F8046010BDDE
:1003C00000487047001300200048704700130020C9
:1003D0007546FFF7F9FFAE4605006946534620F023
:1003E0000700854618B020B5FFF72CFFBDE8204078
:1003F0004FF000064FF000074FF000084FF0000BE1
:1004000021F00701AC46ACE8C009ACE8C009ACE893
:10041000C009ACE8C0098D46704710B50446AFF37B
:1004200000802046BDE81040FFF7F7BE01491820C4
:10043000ABBEFEE7260002007047FEE7014800F071
:10044000D5B8000040120020014800F0CFB80000ED
:10045000A012002001681823CAB2103AB2FBF3F2CE
:10046000054B6FF30901032A9B5CC36500D9091D85
:10047000816508467047000060B4000810B5014669
:1004800000208B698A6A4FF0C07453B1B3F5005FE6
:1004900015D072B1012A0CD0022A0AD0032A09D140
:1004A00004E01AB1012A06D0022A03D1C96AC9019F
:1004B00000D5012010BDC96AA142FAD010BD002AA2
:1004C000F7D0012AF2D0022AF3D0032AF3D010BDCC
:1004D00030B50468256825F48025256004686360CC
:1004E0008368402B036803D099600068C26030BD08
:1004F0009A600068C16030BD7047082000F06ABA99
:1005000072B6FEE730B5B3F5804F05D06FF070419D
:1005100040F82210002030BD8C690B688D682343A1
:100520004C688989240144EA0524234343EA0141B4
:1005300050F82230014C23401943E9E70000F0CF86
:1005400010B50A6850F8223023F0010340F8223039
:100550008C68082C23D000234A682243CC681C43B3
:100560000B6922431A434B690E4C1A43CB691A4359
:100570000B6A1A434B6A1A438B6A1A43CB6A1A43B3
:100580000B6B1A438B691343CA6B09681A4350F803
:100590002130A343134340F82130002010BD4023F5
:1005A000DAE700007FFF0F0030B5D1E9003443EAFD
:1005B00004138C688D89240244EA054423430C8A81
:1005C000094D00EB820005EB045423430C7D6D01C3
:1005D00005EB0464896923430B43416801F0404102
:1005E0000B434360002030BD0000F0FF2DE9F843CD
:1005F00004464FF00009CDF8009063484FF41651BF
:10060000A56D0068B0FBF1F72E6894F85C10082027
:1006100000FA01F131420FD021680A6852070BD568
:100620000A6822F004020A6094F85C108840A8600E
:10063000606D40F00100606594F85C104FF00108B7
:1006400008FA01F0304208D021684969090604D54A
:10065000A860606D40F00200606594F85C100420B2
:100660008840304208D021680968890704D5A8600D
:10067000606D40F00400606594F85C1010208840C4
:10068000304218D021680968090714D5A86020688D
:100690000168490304D50068000308D5A16C07E090
:1006A0000168C90503D4016821F008010160216CCB
:1006B00009B12046884794F85C10202088403042D9
:1006C00031D021680968C9062DD5A86094F8350095
:1006D00005282068016806D0490347D50068000353
:1006E0001DD4616C1CE021F0160101602068416995
:1006F00021F080014161206C08B9A06C20B1206814
:10070000016821F00801016094F85C103F208840E6
:10071000A86084F8358084F83490216D1FE0E16B87
:1007200009B120468847606D00282BD0606DC00756
:1007300014D0052084F835002068016821F00101FB
:1007400001600098401C0090B84203D820680068FF
:10075000C007F6D184F8358084F83490E16C002924
:1007600010D001B02046BDE8F04308470168C90534
:10077000D5D4016821F01001016084F8358084F837
:100780003490CCE7BDE8F883680000202DE9F04103
:10079000044600F035FA06465CB1022084F83500C4
:1007A000002584F834502068016821F001010160BF
:1007B0000DE00120BDE8F08100F022FA801B052841
:1007C00005D920206065032084F83500F2E7206811
:1007D0000068C007F0D12268116820480140D4E9C0
:1007E00001031843D4E903363343184363691843BC
:1007F000A3691843E3691843236A18430843616AED
:10080000042903D1D4E90B1319430843106020686D
:100810004069666A20F0070130460E43012704282C
:100820000CD1A06A0643E06A40B12046FFF726FEDD
:1008300020B14020606584F83570BAE720684661D1
:100840002046FFF707FE94F85C203F21914081602D
:10085000656584F835700020ACE700003F8010F03B
:100860002DE9F0410446866D90F8340000250128FA
:100870000DD0012084F8340094F835700020012F49
:1008800007D084F8340002252846BDE8F081022014
:10089000FBE7022784F8357060652046FFF718FEF5
:1008A00094F85C103F208840B0602068016841F0F7
:1008B00016010160206C20B12068016841F0080138
:1008C00001602068016841F001010160DCE700007F
:1008D00070B5044600F094F90546601C02D0044847
:1008E0000078044400F08CF9401BA042FAD370BD9C
:1008F0005C0000202DE9F04186B014216846FFF726
:100900002AFD20480168002939D1012101601E48D3
:100910000024016841F00101016000684FF4805833
:1009200000F001000C27CDF80080CDE9047003260B
:1009300002250396CDE901546946144800F056F8A3
:100940004FF68070CDE9000502AA694682E8D00022
:100950000F4800F04BF84CF23370CDE9000502AAC5
:10096000694682E8D0000B4800F040F802AA6946C8
:1009700082E8D000CDE90085074800F037F806B0DE
:10098000BDE8F081540000203838024000140240D5
:1009900000100240000C02400018024010B5082868
:1009A00014D10B4C0821204600F018F900280DD175
:1009B0006420FFF78DFF0821204600F00FF9002882
:1009C000F9D0BDE810406420FFF782BF10BD0000E1
:1009D00000100240044910B50A68024202D00860C3
:1009E000FFF7DCFF10BD0000143C01402DE9F84F7B
:1009F000DFF8BCA10022012503264FF00F090AF100
:100A0000040BAAF1040E00BF0B6805FA02F42340A0
:100A1000A34270D10F7907F00307012F01D0022FF5
:100A200016D187684FEA420806FA08FC27EA0C0745
:100A3000D1F80CC00CFA08FC4CEA070CC0F808C04E
:100A40004768A7430C79C4F3001494403C434460C6
:100A50000C79E443A4070AD0C4684FEA420C06FAB2
:100A60000CF7BC438F6807FA0CF72743C7600C7973
:100A700004F00304022C12D1D40800EB840CDCF83F
:100A800020405707FF0E09FA07F824EA0804D1F8B6
:100A9000108008FA07F848EA0408CCF820800468B7
:100AA0004FEA420C06FA0CF7BC430F7907F0030734
:100AB00007FA0CF7274307604C6814F4403F70D0E6
:100AC0003C4C276847F480472760246822F00307DE
:100AD00004F480440094384C07EB040CDCF808481C
:100AE00097074FEA177809FA08F7BC43334FB84223
:100AF00002D1002724E054E0314FB84201D1012750
:100B00001EE0304FB84201D1022719E02E4FB84203
:100B100001D1032714E02D4FB84201D104270FE083
:100B20002B4FB84201D105270AE02A4FB84201D124
:100B3000062705E0284FB84201D1072700E0082723
:100B400007FA08F72743CCF80878DAF80040574648
:100B5000D1F804C09C435FEACC2C00D51C433C6018
:100B6000DBF800405F46D1F804C09C435FEA8C2C60
:100B700000D51C433C60DEF800407746D1F804C045
:100B80009C435FEA8C3C00D51C433C60084F083F07
:100B90003C68D1F804C09C435FEACC3C00D51C43C0
:100BA0003C60521C102AFFF42FAFBDE8F88F000004
:100BB000083C01404438024000300140000002403F
:100BC0000004024000080240000C024000100240F5
:100BD0000014024000180240001C02400069084056
:100BE00000D001207047426921EA02030A4043EA2B
:100BF0000241816170470AB1816170470904FBE7D6
:100C000001488068704700005C000020024881684D
:100C100002781144816070475C0000200B4810B5D9
:100C2000016841F400710160016841F48061016074
:100C3000016841F480710160032000F06FF80F201B
:100C400000F006F800F024F8002010BD003C02403F
:100C500070B50D4D04464FF47A712878B1FBF0F071
:100C60000A490968B1FBF0F000F01DFE48B9102CEC
:100C700007D200222146501E00F030F800206C60A0
:100C800070BD012070BD00005C00002068000020E5
:100C90000A4808B5016841F480410160006800F429
:100CA000804000900548001F016841F080510160BC
:100CB000006800F08050009008BD000044380240F9
:100CC000002809DB00F01F0201219140400980004B
:100CD00000F1E020C0F8001170470000F0B40E4BA6
:100CE0001B680C46C3F30223C3F10705042D00D98A
:100CF0000425191D072901D2002300E0DB1E01266F
:100D000006FA05F1491E214099409E40761E164084
:100D10003143F0BC05F038BC0CED00E0064900F0B2
:100D2000070208684FF6FF03184040EA0220034A12
:100D300010430860704700000CED00E00000FA0569
:100D40002DE9F0470E46050065D0DFF81481D8F88C
:100D50000000F7B200F00700B04207D288F8007038
:100D6000D8F8000000F00700B04254D128683D4C8C
:100D7000810712D5400703D5206840F4E050206079
:100D80002878000703D5206840F460402060206880
:100D9000A96820F0F000084320602878C0072DD013
:100DA000304968680839012812D0022813D0032876
:100DB00011D00968890700292DDA216821F0030183
:100DC00001432160FFF71CFF814641F2883A0EE0A3
:100DD00009688903EFE709688901ECE7FFF710FF6D
:100DE000A0EB0901514502D90320BDE8F087206836
:100DF000696800F00C00B0EB810FEFD1D8F800105B
:100E0000404601F00701B14207D90770006800F0C1
:100E10000700B04201D00120E7E72878400705D558
:100E20002068E96820F4E050084320602878000733
:100E300006D52068296920F4604040EAC10020609E
:100E400000F038F82168084AC1F30311515CC8402A
:100E50000649086006480068FFF7FAFE0020C4E76C
:100E6000003C02400838024068B4000868000020D6
:100E7000600000200448054900680968044AC1F37D
:100E80008221515CC8407047680000200838024049
:100E900078B400080448054900680968044AC1F3A9
:100EA0004231515CC8407047680000200838024059
:100EB00078B40008154810B5006810F00C0214480A
:100EC00013D04110042A0FD0082A0ED10F4C241F32
:100ED0002268236802F03F025B0207D52068C0F356
:100EE0008810A0FB010106E0084610BD2168C1F38F
:100EF0008811A1FB00010023FFF7B6F92168C1F3B7
:100F00000141491C4900B0FBF1F010BD0838024016
:100F10000024F4002DE9F84F04006ED02078DFF8AB
:100F20004C93C007A9F104054AD009F104000168F7
:100F3000C1F38101012908D00068C0F381000228B3
:100F40000AD1D9F80000400206D52868800337D5B9
:100F500060680028E1D033E06068B0F5803F10D0D1
:100F6000B0F5A02F286810D020F4803028602868C1
:100F700020F4802028606068A8B1FFF741FE064693
:100F80000DE0286840F48030F4E740F480202860C9
:100F9000F7E700BFFFF734FE801B642873D828688A
:100FA0008003F7D50CE0FFF72BFE064605E000BFF7
:100FB000FFF726FE801B6428F0D828688003F7D44A
:100FC0002078DFF8AC8280074FF0000A3ED5A748B2
:100FD000001D016811F00C0F08D00068C0F38100FB
:100FE00002280BD1D9F80000400207D428688007F6
:100FF00016D5E068012800D112E033E1E068B8B10D
:101000000120C8F80000FFF7FBFD064605E000BF21
:10101000FFF7F6FD801B0228C0D828688007F7D5A7
:101020002868216920F0F80040EAC10028600DE03E
:10103000C8F800A0FFF7E4FD064604E0FFF7E0FD76
:10104000801B02281FD828688007F7D42078000763
:1010500022D5864F87486169703771B101210160DF
:10106000FFF7CEFD064604E0FFF7CAFD801B02280D
:1010700009D838688007F7D50EE0C0F800A0FFF760
:10108000BFFD064605E082E0FFF7BAFD801B02289F
:101090007DD838688007F7D42078400768D5DFF816
:1010A000CCB100270BF13C0BDBF80000C0000BD4E7
:1010B000DBF8001041F08051CBF80010DBF80000A5
:1010C000012700F0805000906B4E3068C00510D4AE
:1010D000306840F480703060FFF792FD009005E0CA
:1010E000FFF78EFD0099401A022850D83068C005DD
:1010F000F6D55E4EA0686C3601280FD00528306802
:1011000010D020F001003060306820F00400306022
:10111000A068B8B1FFF774FD00900FE0306840F0B0
:101120000100F4E740F004003060F7E7FFF768FDE6
:101130000099411A41F28830814266D830688007B0
:10114000F4D50EE0FFF75CFD009007E0FFF758FDD7
:101150000099411A41F28830814256D830688007A0
:10116000F4D42FB1DBF8001021F08051CBF800103F
:10117000A069C8B33D49091D0968C1F3810102296D
:101180004AD00228504607D0C8F8600000E03CE092
:10119000FFF736FD04463BE04746C8F86000FFF71E
:1011A0002FFD064605E000BFFFF72AFD801B022841
:1011B0002BD828688001F7D4D4E907010843A16A35
:1011C0002E4A490802EB0141626A41EA8211084352
:1011D00094F82C1040EA0161C9F80010012038662B
:1011E000FFF70EFD044606E03EE000BFFFF708FDF6
:1011F000001B022809D828688001F7D534E000BF19
:10120000FFF7FEFC001B022802D90320BDE8F88F7F
:1012100028688001F4D427E00128F7D0D9F800002D
:10122000E26900F4800191421CD1226A00F03F0182
:10123000914217D147F6C071626A0140B1EB821F3B
:1012400010D1A26A4FF0FF3300F4403103EB520299
:10125000B1EB024F06D194F82C1000F07060B0EBA7
:10126000016F01D00120D1E70020CFE70438024010
:1012700000004742800E4742007000400000FFFF20
:1012800070B5040009D0606A002540B12561656130
:10129000A56294F8510040B10CE0012070BD606877
:1012A000B0F5827FF4D0E561F2E784F85050204633
:1012B00000F044F8022084F851002068016821F011
:1012C00040010160A088218900F4827001F404418A
:1012D0000843A18901F400610843217C01F0020167
:1012E0000843217D01F001010843218B01F40071C5
:1012F0000843217F01F03801084394F8201001F0E1
:1013000080010843218D01F40051084321680860E1
:10131000A069042101EA104094F8241001F01001A2
:101320000843216848602068C16921F40061C161F7
:101330006565012084F85100002070BD10B586B0AD
:10134000044614216846FFF706F8134920688842CE
:1013500020D112480021026842F4805202600068E5
:1013600000F4805005900D481438026842F00102E4
:101370000260006800F001000590E020009002206B
:10138000CDE901010320039005200490694604483B
:10139000FFF72CFB06B010BD00300140443802407E
:1013A000000002402DE9F84F0446406800259846A9
:1013B00016460F464FF0040BB0F5827F01D1A068AE
:1013C00088B194F85000012818D0012084F850000A
:1013D000FFF716FC814694F851004FF0000A0128EF
:1013E0000ED0022582E084F851B013460A4620460A
:1013F000CDF8008000F036F9BDE8F88F0220FBE759
:10140000002F72D0002E70D084F851B0C4F854A0D0
:10141000A763A687E687C4F830A0A4F834A0A4F890
:1014200036A0C4F840A0C4F844A0A068B0F5004FAE
:1014300009D12068016821F040010160206801683D
:1014400021F48041016020680168490603D40168E5
:1014500041F040010160E068D8B139E0206881685E
:10146000C90709D0007BA16B0870A06B401CA0636A
:10147000E08F401EE0870CE0FFF7C2FBA0EB090104
:10148000414503D3B8F1FF3F03D036E0B8F1000F78
:1014900033D0E08F0028E1D11DE020688168C907C2
:1014A00009D0C068A16B0880A06B801CA063E08F8E
:1014B000401EE0870CE0FFF7A3FBA0EB09014145CC
:1014C00003D3B8F1FF3F03D017E0B8F1000F14D0F9
:1014D000E08F0028E1D14A464146204601F0ABFCAE
:1014E00008B120206065606D00B10125012084F8FD
:1014F000510084F850A028467EE70325F6E72DE941
:10150000F84F044690F8500000271D4616468946BD
:1015100001280DD04FF0010B84F850B0FFF770FB9D
:10152000804694F85100BA46012804D0022793E07F
:101530000220BDE8F88FB9F1000F73D0002E71D0F2
:10154000032084F85100C4F854A0C4F83090A68653
:10155000E686C4F838A0A4F83CA0A4F83EA0C4F8DD
:1015600044A0C4F840A0A068B0F5004F09D120689D
:10157000016821F0400101602068016841F4804168
:10158000016020680168490603D4016841F0400108
:101590000160E068B0F5006F606803D030B3012EE1
:1015A00024D041E008B1012E1CD1206B21680088B5
:1015B000C86006E020688168890709D5216B098821
:1015C000C160206B801C2063E08E401EE08609E035
:1015D000FFF716FBA0EB0800A84202D3681C01D05D
:1015E00031E07DB3E08E0028E4D120E0206B21685B
:1015F0000078087306E020688168890709D5216BA7
:1016000009780173206B401C2063E08E401EE08649
:101610000AE0FFF7F5FAA0EB0800A84203D3681C24
:1016200002D010E017E06DB1E08E0028E3D1424611
:101630002946204601F02EFC08B120206065A068F4
:1016400018B106E0FFE7032706E02068C16880685C
:101650000090606D00B1012784F851B084F850A06B
:10166000384666E72DE9F84F044690F85000002709
:101670000A9E1D4692468B464FF0010901280ED066
:10168000012084F85000FFF7BBFA804694F851001F
:10169000616801280CD0B1F5827F07D102E00220F9
:1016A000BDE8F88FA16809B9042801D00227C2E07B
:1016B000BBF1000F27D0BAF1000F24D01DB394F86E
:1016C0005100042802D0052084F8510000206065F4
:1016D000C4F838A0E587A587C4F830B0E586A586AC
:1016E0002064606420680168490603D4016841F001
:1016F00040010160E068B0F5006F606805D0E8B3B4
:10170000012D46D07FE0012795E008B1012D39D1A8
:10171000206B21680088C860206B801C2063E08EED
:10172000401EE0862EE02068816889070FD5E18E93
:1017300069B1B9F1010F0AD1216B0988C160206B31
:10174000801C2063E08E401EE0864FF00009206878
:101750008168C9070CD0E18F51B1C068A16B0880C6
:10176000A06B801CA063E08F401EE0874FF0010952
:10177000FFF746FAA0EB0800B04200E009E001D311
:10178000701C50D1E08E0028CDD1E08F0028CAD146
:101790003FE0206B216800780873206B401C2063B9
:1017A000E08E401EE0862EE02068816889070FD514
:1017B000E18E69B1B9F1010F0AD1216B097801738A
:1017C000206B401C2063E08E401EE0864FF0000935
:1017D00020688168C9070CD0E18F51B1C068A16B46
:1017E0000870A06B401CA063E08F401EE0874FF0A4
:1017F0000109FFF705FAA0EB0800B04202D3701C04
:1018000001D010E07EB1E08E0028CDD1E08F00281D
:10181000CAD142463146204601F03CFB28B101279F
:101820002020606507E0032705E0A06818B920685C
:10183000C16880680090012084F85100002084F87D
:10184000500038462CE770B515460E46040003D00C
:1018500094F8490010B107E0012070BD002084F821
:101860004800204600F01DF804F108012068FEF74A
:1018700067FE3146A2682068FEF796FED4E90102B1
:101880002946236BFEF73EFE2168A06851F8202010
:1018900042F0010241F82020012084F84900002094
:1018A00070BDFFF727B810B5401EB0F1807F01D39F
:1018B000012010BD4FF0E02460610F21601704F09B
:1018C00063FE0020A06107202061002010BD70474A
:1018D0007047000070B590F83C20012A32D00124F6
:1018E00080F83C40022280F83D2003685A689D68D9
:1018F00022F070060A6832435A60134B02689A421B
:1019000014D0B2F1804F11D0104B9A420ED0104B30
:101910009A420BD00F4B9A4208D00F4B9A4205D0F7
:101920000E4B9A4202D00E4B9A4204D1496825F0E0
:1019300080031943916080F83D40002180F83C10FD
:10194000084670BD022070BD000001400004004048
:1019500000080040000C004000040140004001402D
:101960000018004010B5040003D094F83D0010B1F9
:1019700007E0012010BD002084F83C00204600F064
:101980001FF8022084F83D00211D206803F0E8FCC8
:10199000012084F8460084F83E0084F83F0084F873
:1019A000400084F8410084F8420084F8430084F841
:1019B000440084F8450084F83D00002010BD00007C
:1019C00008B501681648B1F1804F0AD0154A914216
:1019D00019D1016841F020010160006800F0200089
:1019E0001BE0016841F0010101600068002200F085
:1019F0000100009011461C20FFF770F9BDE8084077
:101A00001C20FFF75DB9084A914207D1016841F4F3
:101A100080710160006800F48070009008BD0000D3
:101A200040380240001400400020004090F83D1073
:101A3000012901D001207047022180F83D10006883
:101A40001149884214D0B0F1804F11D00F4988421B
:101A50000ED00F4988420BD00E49884208D00E495B
:101A6000884205D00D49884202D00D49884204D1F0
:101A7000816801F00701062903D0016841F00101E6
:101A80000160002070470000000001400004004099
:101A900000080040000C00400004014000400140EC
:101AA0000018004090F83D10012901D00120704736
:101AB000022180F83D100168CA6842F00102CA6044
:101AC00000681149884214D0B0F1804F11D00F49FD
:101AD00088420ED00E4988420BD00E49884208D069
:101AE0000D49884205D00D49884202D00C498842F0
:101AF00004D1816801F00701062903D0016841F093
:101B00000101016000207047000001400004004016
:101B100000080040000C004000040140004001406B
:101B20000018004001680A6A41F211131A4207D1F5
:101B30000A6A9B101A4203D10A6822F001020A6065
:101B4000012180F83D100020704770B5044690F8E0
:101B50003C000025012817D0012684F83C600220B3
:101B600084F83D002068826822F0770222F47F42E8
:101B700082600868502838D00DDC20284FD005DC62
:101B800090B3102811D14AE0022070BD302846D011
:101B900040280AD13BE060282FD070280DD0B0F546
:101BA000805F03D0B0F5005F12D0012584F83D605E
:101BB000002084F83C00284670BDCB68D1E90121A3
:101BC000206803F03EFC2068816841F0770109E05D
:101BD000CB68D1E90121206803F033FC20688168DB
:101BE00041F480418160E1E719E0CA6849682068F2
:101BF00003F0FCFC5021206806E0CA6849682068B0
:101C000003F005FD6021206803F025FCCEE7CA68DB
:101C10004968206803F0EAFC40212068F4E7226864
:101C200001461046F0E7704770B504460068016948
:101C30004FF00005C943890715D4C168C943890716
:101C400011D4E91E01610120207720688069800796
:101C5000204602D0FFF7E7FF04E000F0D9F8204665
:101C600000F06BF9257720680169C943490717D44B
:101C7000C168C943490713D46FF004010161022010
:101C800020772068806910F4407F204602D0FFF75B
:101C9000CAFF04E000F0BCF8204600F04EF92577BA
:101CA00020680169C943090716D4C168C9430907F7
:101CB00012D46FF008010161042020772068C06908
:101CC0008007204602D0FFF7AEFF04E000F0A0F846
:101CD000204600F032F9257720680169C943C9061A
:101CE00017D4C168C943C90613D46FF0100101614C
:101CF000082020772068C06910F4407F204602D079
:101D0000FFF791FF04E000F083F8204600F015F99A
:101D1000257720680169C943C90708D1C168C9434B
:101D2000C90704D1891E0161204600F06BF92068C3
:101D30000169C943090609D4C168C943090605D424
:101D40006FF0800101612046FFF7C1FD2068016945
:101D5000C943490609D4C168C943490605D46FF08F
:101D600040010161204600F055F920680169C9432E
:101D700089060BD4C168C943890607D46FF02001D6
:101D800001612046BDE87040FFF7A2BD70BD0000B4
:101D900010B586B0044614216846FEF7DCFA2368C5
:101DA000002117480222B3F1804F17D0154CA342EF
:101DB00012D1036843F020030360006800F02000A4
:101DC000059010020090CDE901210920CDE9031012
:101DD00069460D48FEF70AFE06B010BD036843F0E1
:101DE00001030360006800F00100059001200090ED
:101DF000CDE90121CDE9031069460448EAE7000076
:101E00003038024000200040001402400000024030
:101E1000704770B5044690F83C0000260D46012836
:101E20000FD0012084F83C006AB1042A1DD0082A92
:101E30002FD00C2A3FD00126002084F83C003046E9
:101E400070BD022070BD206803F00EFB2068816920
:101E500041F0080181612068816921F004018161FC
:101E6000206881692A69114311E0206803F02CFB86
:101E70002068816941F4006181612068816921F4F1
:101E800080618161206881692A6941EA022181615A
:101E9000D2E7206803F04EFB2068C16941F00801D9
:101EA000C1612068C16921F00401C1612068C16974
:101EB0002A69114311E0206803F070FB2068C169B2
:101EC00041F40061C1612068C16921F48061C16190
:101ED0002068C1692A6941EA0221C161ACE710B5F5
:101EE000040003D094F83D0010B107E0012010BDBC
:101EF000002084F83C00204600F01EF8022084F800
:101F00003D00211D206803F02BFA012084F84600D3
:101F100084F83E0084F83F0084F8400084F84100D3
:101F200084F8420084F8430084F8440084F84500B3
:101F300084F83D00002010BD7047704710B504467E
:101F4000022249B104290ED0082913D094F8410087
:101F5000012816D0012010BD94F83E000128F9D1C7
:101F600084F83E200FE094F83F000128F2D184F875
:101F70003F2008E094F840000128EBD184F840208D
:101F800001E084F841200122206803F04DFA16494F
:101F90002068164A884201D0904203D1436C43F432
:101FA000004343642068884213D0B0F1804F10D0C2
:101FB0000F4988420DD00F4988420AD00E49884205
:101FC00007D0904205D00D49884202D00C49884282
:101FD00004D1816801F00701062903D0016841F0AE
:101FE00001010160002010BD00000140000401401B
:101FF0000004004000080040000C00400040014088
:10200000001800404FF480610148FEF7ECBD00006D
:102010000014024070477047704770B5040004D048
:1020200094F83D00002510B106E0012070BD84F851
:102030003C50204600F022F8242084F83D0020681F
:10204000C16821F40051C160204604F039F82068CD
:10205000016921F4904101612068416921F02A0160
:1020600041612068C16841F40051C16025642020AD
:1020700084F83D0084F83E00002070BD2DE9F04159
:1020800086B0064614216846FEF765F92C4930688B
:10209000884251D12B480024016841F010010160B1
:1020A000006800F01000059026481438016841F0DF
:1020B000010101600068694600F0010005904FF4DD
:1020C000C06000900220CDE90104032003900720A6
:1020D00004901D48FEF78AFC1D4D1C484FF0006718
:1020E0002860C5E901744FF48068C5E903486C6154
:1020F000AC61EC612C6228466C62FEF747FB08B1CC
:10210000FEF7FEF9B563AE63114D104860357830C7
:10211000E5E802074020A5E811010D4845F81449FB
:102120006030AC61EC612C626C62FEF72FFB08B191
:10213000FEF7E6F97563AE6306B0BDE8F081000016
:102140000010014044380240000002404064024058
:102150004012002090F83E30202B0ED159B152B1E0
:1021600090F83C30012B08D0012380F83C3000234C
:10217000036304F02BB80120704702207047000071
:1021800010B503220549064800F00EF8BDE81040DE
:10219000032202490248FFF7DDBF00004C00002087
:1021A000FC1100207047000070B5044690F83D0017
:1021B000202836D191B38AB394F83C00012830D05E
:1021C000012084F83C002162A284E2840025256479
:1021D000212084F83D00636B1348D863636B134878
:1021E0001864636B1248D864606B134605652668F3
:1021F000606B321DFEF734FB21686FF04000086011
:1022000084F83C502068143050E8001F41F08001F1
:1022100040E80012002AF5D1002070BDFFE7012040
:10222000FBE70220F9E700000B6000084D600008A2
:10223000255F000870477047FEE7000070B50B4946
:102240000646002408884D8821464543204600F074
:10225000CBFA00F0FFFBB0B24FF0D84103E000BF73
:10226000A1F88000641CAC42FAD370BD6C10002051
:102270002DE9F04F33492C240A4688712A2592888B
:102280002B2645F2105B4FF4305E4FF448774FF049
:10229000F00949F2413A4FF4A07845F2103C4FF46E
:1022A000F07358B1A1F80080A1F80290524501D016
:1022B000624529D10C814D818E8139E0A1F80090D1
:1022C000A1F80280524501D0624508D10C814D81B0
:1022D0008E81624531D1A1F800804B802DE05A45B6
:1022E00008D1A1F808E04FF4285048814FF42C5051
:1022F000888106E0A2F5C85063381ED10C814E815A
:102300008D810B804F8018E05A4508D1A1F808E074
:102310004FF4285048814FF42C50888106E0A2F5F4
:10232000C850633804D10C814D818E810F804B8061
:10233000624502D10B80A1F80280BDE8F04F002079
:1023400000F076B96C1000202DE9FE4F161ACDE989
:1023500000104FF000085D1A47464FF0FF30002E86
:1023600002DD4FF0010102E003D14FF000018B4686
:1023700002E08346C6F10006002D02DD4FF00100A9
:1023800002E003D14FF00000824602E08246C5F130
:102390000005AE4201DD344600E02C46601C4FF0E3
:1023A0000009029018E0009881B2019880B200F014
:1023B00019F8B0442F44A04504DD0198A8EB0408A7
:1023C00058440190A74203DD00983F1B5044009001
:1023D00009F101001FFA80F902998945E3DDBDE8A2
:1023E000FE8F000000B500F0FFF900F033FB03485A
:1023F0004FF0D8410088A1F8800000BD0400002003
:102400002DE9FC4F80460025144603200F46A0EB23
:10241000440649E0381B81B208EB050A01901FFA17
:102420008AF0FFF7DFFF781B81B208EB0409009008
:102430001FFA89F0FFF7D6FF07EB050B1FFA8BF1A8
:102440001FFA89F0FFF7CEFF07EB04091FFA89F1A5
:102450001FFA8AF0FFF7C6FFA8EB050A1FFA89F1F9
:102460001FFA8AF0FFF7BEFFA8EB04091FFA8BF1F1
:102470001FFA89F0FFF7B6FF019881B21FFA8AF0C0
:10248000FFF7B0FF009881B21FFA89F0FFF7AAFFAB
:102490006D1C002E03DA06EB8506B61D04E0281B32
:1024A00006EB8006641E0A36A542B3DDBDE8FC8F4C
:1024B0002DE9F043444C91460246A08823460D4640
:1024C0004FEA1128160A5B89A0F51341413917D04C
:1024D000A0F5A641103913D0A0F5AA41103914D0A7
:1024E0002646A0F5C857B1793688B61A761E633FDE
:1024F00025D0A0F5D047043F3DD0012951D051E06F
:10250000184600F09BFA30463CE0184600F096FA78
:10251000304600F087FA6089401C80B200F08EFAE5
:10252000D0B200F07FFAA08900F088FA404600F0AF
:1025300079FAA089401C80B200F080FA2DE001B940
:10254000B2B2184600F07AFA160A304600F06AFA7B
:10255000D0B200F067FA304600F064FAD0B200F072
:1025600061FAA08900F06AFA404600F05BFAE8B22E
:1025700000F058FA0EE0012900D1B2B2184600F07E
:102580005DFA100A00F04EFAD0B200F04BFAA089C2
:1025900000F054FA404600F045FAE8B200F042FA82
:1025A00008E0B2B21146184600F05EFAA08929464A
:1025B00000F05AFA4FF0D840218920F87E1FA0F889
:1025C0000290BDE8F08300006C10002008B54FF0C9
:1025D000D840B0F88000ADF80000BDF8000008BD9C
:1025E00010B50246BE2000F029FA052000F01AFAC4
:1025F000104604F0D0F89FED0C1B53EC112B04F0A7
:1026000019F904F09BF880B200F00CFA012000F0F8
:1026100009FAFF2000F006FA002000F003FABDE8F6
:102620001040002000F0FEB96666666666660440EB
:10263000F0B56C4C00232146A279898841F66316D7
:10264000012A01D01AB11BE0B14202D118E0B14217
:1026500016D1082814D2DFE800F00406080A0C0E90
:10266000101206200CE007200AE0042008E00520F4
:1026700006E0012004E0002002E0032000E0022048
:10268000A1F5134745F2103245F21055413F05D0F0
:10269000914203D0A94201D0B14277D1082812D289
:1026A000DFE800F0110406080A0C0E1080230AE08F
:1026B000402308E0C02306E0202304E0602302E07A
:1026C000A02300E0E023A94202D14FF4585000E0DB
:1026D0003620914205D0A94203D0B14201D043F047
:1026E0000803194600F0C0F9A188B1420AD0980643
:1026F0002088628802D5904202D303E0904201D93B
:10270000228060806089A94241D100F097F90020C1
:1027100000F088F96089401C80B200F08FF9002039
:1027200000F080F96089801C80B200F087F9208871
:10273000401EC0F30F2000F075F96089C01C80B204
:1027400000F07CF92078401EC0B200F06BF9A0893F
:1027500000F074F9002000F065F9A089401C80B2F7
:1027600000F06CF9002000F05DF9A089801C80B2B7
:1027700000F064F96088401EC0F30F2000F052F9A9
:10278000A089C01C80B200F059F922E028E000F0D6
:1027900055F9002000F046F9002000F043F92088A8
:1027A000401EC0F30F2000F03DF92078401EC0B25B
:1027B00000F038F9A08900F041F9002000F032F96A
:1027C000002000F02FF96088401EC0F30F2000F0B9
:1027D00029F9A078BDE8F040401EC0B200F022B94F
:1027E000F0BD00006C100020F0B53F4A0D460446D5
:1027F000060A918810462F0A4089A1F51343413BF0
:1028000028D0A1F5A643103B24D0A1F5C853633BC3
:102810002FD0A1F5AA43103B64D100F00FF9304648
:1028200000F000F95089401C80B200F007F9E0B2D6
:1028300000F0F8F8908900F001F9384600F0F2F85D
:102840009089401C80B200F0F9F8E8B2BDE8F04091
:1028500000F0E8B800F0F2F8304600F0E3F8E0B23B
:1028600000F0E0F8908900F0E9F8384600F0DAF876
:10287000EBE7917929B300F0E1F8304600F0D2F8A7
:10288000E0B200F0CFF81088401EC0F30F2000F037
:10289000C9F81078401EC0B200F0C4F8908900F06A
:1028A000CDF8384600F0BEF8E8B200F0BBF850882A
:1028B000401EC0F30F2000F0B5F89078401EC0B263
:1028C000C4E71188091B491E8CB200F0B7F800203C
:1028D00000F0A8F8002000F0A5F8200A00F0A2F807
:1028E000E0B2D9E7F0BD00006C1000202DE9FF4FE9
:1028F0001D460C468A46580700D0012000EBD50043
:10290000690810FB01F0203A00F0FF09D0B2002660
:10291000DFF8A4B002904BE00C2D11D0102D14D094
:10292000182D17D0202D45D12449029801EBC01055
:102930004FF00008875D380613D52148026814E07F
:102940000298204900EB400008E01F49029801EB83
:102950000010EDE702981D4900EBC00001EB80007C
:10296000E6E70D9828B91648426821460098FFF717
:102970009FFD7806070E641CBBF80200A4B2A042BB
:1029800018D9A4EB0A00A84209D100985446401C6B
:1029900080B20090BBF8001081420BD906E008F12C
:1029A000010000F0FF08B8F1080FC4D3761CF6B29E
:1029B0004E45B1D3BDE8FF8F6C100020E0840008C5
:1029C00004000020206D000894710008847700083E
:1029D0002DE9F84F044600F0FF0910190D46DDE916
:1029E0000AB61FFA80F8581987B24FF0000A12E0B1
:1029F000444503D305EB0B004C4685B2BD420FD2D4
:102A00005B4629462046CDF800A0FFF76FFF04EB98
:102A10005B0084B2761C3278A2F120005E28E7D9F0
:102A2000BDE8F88F01B5BDF80000ADF80000BDF8B5
:102A300000004FF0D841A1F8800008BD01B5BDF8F5
:102A40000000ADF80000BDF800004FF0D841A1F83B
:102A50007E0008BD03484FF0D8410089A1F87E00F0
:102A6000704700006C1000204FF0D84222F87E0F13
:102A7000518070470D4808B5016841F4800101603C
:102A80000068002200F48000009011463A20FEF712
:102A900025F93A20FEF714F9002211464620FEF7E8
:102AA0001DF9BDE808404620FEF70AB9303802405B
:102AB00010B58EB01C216846FDF74DFC1C2107A8FF
:102AC000FDF749FC1A484FF02041102201601949D6
:102AD0004160062181600021C160C0E9041281616A
:102AE000C16113020162C0E909139302C0E90B132B
:102AF0004163816341640F203C230090CDE90103D1
:102B000003AC112384E80E0009240691CDE90740A7
:102B100009AC082084E80F000D9107AA6946044813
:102B2000FEF791FE002801D0FDF7EAFC0EB010BDC3
:102B30007C100020040100A02DE9F04387B014218F
:102B40006846FDF708FC44480024016841F0100184
:102B50000160016801F010010591016841F0040174
:102B60000160016801F004010591016841F0200154
:102B70000160016801F020010591016841F08001C8
:102B80000160016801F080010591016841F00101D7
:102B90000160016801F001010591016841F0020145
:102BA0000160016801F002010591016841F008012E
:102BB0000160016801F008010591016841F04001E0
:102BC00001600068DFF8948000F040004FF48065F9
:102BD0000590002229464046FEF70DF80122DFF855
:102BE0008090960331464846FEF705F86F010022B3
:102BF00039464846FDF7FFFF082000904FF4881043
:102C0000CDE9010469461748FDF7F0FE009501255E
:102C1000CDE90154694640460394FDF7E7FE0220E2
:102C2000CDE90250CDE9006569464846FDF7DEFE74
:102C30000097CDE90154694648460394FDF7D6FE56
:102C4000002211460920FEF749F80920FEF738F85E
:102C500007B0BDE8F08300003038024000140240A5
:102C60000004024000100240104810B50E490160F7
:102C70004FF482714160002102228160C0E9031299
:102C8000012242615202C0E9062101624162816271
:102C90000A21C162FEF7F4FA002803D0BDE8104013
:102CA000FDF72EBC10BD000000300140CC1000200C
:102CB00010B588B01C216846FDF74DFB1548144936
:102CC000002401605321C0E9011440F2E731C0E95A
:102CD00003148461FEF746FE08B1FDF711FC0D48B0
:102CE000FFF7FDF808B1FDF70BFC6020CDE900040B
:102CF00002940022694607480494FFF78AF808B155
:102D0000FDF7FEFB0348FFF743F808B010BD0000D5
:102D100000200040B411002010B58EB000240794AC
:102D2000089409940A940B941C2168460C94FDF7AE
:102D300012FB1E484FF0804101605321C0E901148D
:102D40001B49C0E903148461FEF70CFE08B1FDF7CE
:102D5000D7FB4FF48050079007A91448FEF7F5FE03
:102D600008B1FDF7CDFB1148FFF7B9F808B1FDF741
:102D7000C7FB0B940BA90D480C94FEF7ABFD08B1F3
:102D8000FDF7BEFB6020CDE9000402200290002286
:102D9000694604940548FFF73CF808B1FDF7B0FB1D
:102DA0000248FEF7F5FF0EB010BD00002411002010
:102DB0001FA107001CB500240E4800940C49019483
:102DC00001605321C0E9011401218461C160FEF753
:102DD000C9FD08B1FDF794FB0094694605480194CC
:102DE000FEF778FD002801D0FDF78AFB1CBD00002E
:102DF000001400406C1100200C4810B50A49016015
:102E00004FF4E1314160002181600C22C160C0E9D2
:102E100004128161C161FFF700F9002803D0BDE809
:102E20001040FDF76DBB10BD00100140FC110020EB
:102E3000FEE7FEE77047F8B5044640684FF482733A
:102E4000984221D1A0684FF48065B0F5004F01D0C1
:102E5000A8420AD12068066826F04006066060682D
:102E6000984211D1A068A8420ED000920B460022D1
:102E70008021204600F03AF8002804D0606D40F030
:102E8000200060650320F8BD00920B46002201215E
:102E9000EFE7000038B504461248134B0068B0FB5A
:102EA000F3F04FF47A73584300906068B0F5827F76
:102EB0000DD10B46009200228021204600F016F82A
:102EC00070B1606D40F020006065032038BD00984F
:102ED00030B1401E009020688068C0430006F6D5DF
:102EE000002038BD6800002000366E012DE9F8434F
:102EF0001E46914688460446089DFDF781FE401B0C
:102F0000351AFDF77DFE074625480068C0F3CB3033
:102F1000684338E0701C37D0FDF772FEC01BA84232
:102F200003D215B1009860B32CE02068416821F00D
:102F3000E00141606068B0F5827F0BD1A068B0F518
:102F4000004F02D0B0F5806F04D12068016821F0F5
:102F500040010160A06AB0F5005F09D120680168F6
:102F600021F4005101602068016841F400510160C2
:102F7000012084F85100002084F850000320BDE8AF
:102F8000F8830025401E00902068816838EA01001F
:102F900004D000214945BDD10020F0E70121F9E727
:102FA000680000207047FDF731BE000030B593B0D7
:102FB00030216846FDF7CFF914210CA8FDF7CBF9B5
:102FC0001D480025016841F080510160006800F053
:102FD000805011901948016841F4804101600068F7
:102FE000022400F480401190012000900004019020
:102FF0008001CDE9064008AA0420A82182E8130038
:103000000B906846FDF786FF08B172B6FEE70CA983
:103010000F2081E831004FF4A0500F904FF4805002
:10302000109005210CA8FDF78BFE002801D072B688
:10303000FEE713B030BD0000403802400070004091
:103040000248016841F470010160704788ED00E0BA
:103050002DE9F05F3220FDF73BFCD320FFF7EEFCBB
:10306000FFF7B4FAFE4CA080FFF7B0FAA080FFF79C
:10307000ADFA4FF6FF7909EA0020A080FFF7A6FA23
:10308000A18849F241360843A08045F2103745F245
:10309000105541F66318B04247D0D420FFF7CEFC5C
:1030A000FFF794FAA080FFF791FAA080FFF78EFA5D
:1030B00009EA00204A46A080FFF788FAA188084361
:1030C000A080B84231D04FF45A40FFF7B7FCFFF769
:1030D0007DFAA0804FF45B40FFF7B0FCFFF776FA73
:1030E00002EA0020A0804FF45C40FFF7A7FCFFF746
:1030F0006DFAA1880843A080B0F5004F7DD0A842AA
:1031000013D0A120FFF79AFCFFF760FAA080FFF729
:103110005DFA02EA0020A080FFF758FAA188084370
:10312000A0F5AE41A080613968D080B2B04266D1CE
:10313000CF20FFF783FC0020FFF774FCC120FFF7CE
:1031400071FC3020FFF76EFCED20FFF777FC642068
:10315000FFF768FC0320FFF765FC1220FFF762FC15
:103160008120FFF75FFCE820FFF768FC8520FFF770
:1031700059FC1020FFF756FC7A20FFF753FCCB20B8
:10318000FFF75CFC3920FFF74DFC2C20FFF74AFCD1
:103190000020FFF747FC3420FFF744FC0220FFF734
:1031A00041FCF720FFF74AFC2020FFF73BFCEA2018
:1031B000FFF744FC0020FFF735FC0020FFF732FC4E
:1031C000C020FFF73BFC1B20FFF72CFCC120FFF7C2
:1031D00035FC0120FFF726FCC520FFF72FFC30202F
:1031E000FFF720FC3020FFF71DFCC720FFF726FC6F
:1031F000B720FFF717FC362002E0B5E0B0E0B5E0FD
:10320000FFF71CFC4820FFF70DFC3A20FFF716FCE7
:103210005520FFF707FCB120FFF710FC0020FFF757
:1032200001FC1A20FFF7FEFBB620FFF707FC0A207F
:10323000FFF7F8FBA220FFF7F5FBF220FFF7FEFBFC
:103240000020FFF7EFFB2620FFF7F8FB0120FFF738
:10325000E9FBE020FFF7F2FB0F20FFF7E3FB2A205A
:10326000FFF7E0FB2820FFF7DDFB0820FFF7DAFB84
:103270000E20FFF7D7FB0820FFF7D4FB5420FFF701
:10328000D1FBA920FFF7CEFB4320FFF7CBFB0A20A1
:10329000FFF7C8FB0F20FFF7C5FB0020FFF7C2FBBD
:1032A0000020FFF7BFFB0020FFF7BCFB0020FFF76B
:1032B000B9FBE120FFF7C2FB0020FFF7B3FB1520AD
:1032C000FFF7B0FB1720FFF7ADFB0720FFF7AAFBC6
:1032D0001120FFF7A7FB0620FFF7A4FB2B20FFF729
:1032E000A1FB5620FFF79EFB3C20FFF79BFB052030
:1032F000FFF798FB1020FFF795FB0F20FFF792FBDD
:103300003F20FFF78FFB3F20FFF78CFB0F20FFF7DD
:1033100089FB2B20FFF792FB0020FFF783FB0020A7
:10332000FFF780FB0120FFF77DFB3F20FFF77AFBD3
:103330002A20FFF783FB0020FFF774FB0020FFF734
:1033400071FB0020FFF76EFBEF20FFF76BFB1120F6
:10335000FFF774FB7820FDF7BBFA292001F009BFC5
:10336000A4F8048001F00ABFA580FDE3B84276D13D
:10337000ED20FFF763FB0120FFF754FBFE20FFF772
:1033800051FBEE20FFF75AFBDE20FFF74BFB21201D
:10339000FFF748FBF120FFF751FB0120FFF742FB4D
:1033A000DF20FFF74BFB1020FFF73CFBC420FFF7AB
:1033B00045FB8F20FFF736FBC620FFF73FFB0020C1
:1033C000FFF730FBE220FFF72DFBE220FFF72AFB9F
:1033D000E220FFF727FBBF20FFF730FBAA20FFF713
:1033E00021FBB020FFF72AFB0D20FFF71BFB00207D
:1033F000FFF718FB0D20FFF715FB0020FFF712FB6E
:103400001120FFF70FFB0020FFF70CFB1920FFF73F
:1034100009FB0020FFF706FB2120FFF703FB00203C
:10342000FFF700FB2D20FFF7FDFA0020FFF7FAFA67
:103430003D20FFF7F7FA0020FFF7F4FA5D20FFF7D1
:10344000F1FA0020FFF7EEFA5D20FFF7EBFA00201B
:10345000FFF7E8FAB120FFF7F1FA802002E0FDE380
:103460006C100020FFF7DEFA0020FFF7DBFA8B205C
:10347000FFF7D8FA0020FFF7D5FA9620FFF7D2FA27
:103480000020FFF7CFFAB220FFF7D8FA0020FFF7AD
:10349000C9FA0020FFF7C6FA0220FFF7C3FA00209E
:1034A000FFF7C0FA0320FFF7BDFA0020FFF7BAFAD2
:1034B000B320FFF7C3FA0020FFF7B4FA0020FFF7AC
:1034C000B1FA0020FFF7AEFA0020FFF7ABFA0020B8
:1034D000FFF7A8FA0020FFF7A5FA0020FFF7A2FAED
:1034E0000020FFF79FFA0020FFF79CFA0020FFF76B
:1034F00099FA0020FFF796FA0020FFF793FA0020D0
:10350000FFF790FA0020FFF78DFA0020FFF78AFA04
:103510000020FFF787FA0020FFF784FA0020FFF76A
:1035200081FA0020FFF77EFA0020FFF77BFA0020E7
:10353000FFF778FA0020FFF775FA0020FFF772FA1C
:103540000020FFF76FFAB420FFF778FA8B20FFF71F
:1035500069FA0020FFF766FA9620FFF763FA002069
:10356000FFF760FAA120FFF75DFA0020FFF75AFA93
:10357000B520FFF763FA0220FFF754FA0020FFF7A7
:1035800051FA0320FFF74EFA0020FFF74BFA042010
:10359000FFF748FA0020FFF745FAB620FFF74EFA8A
:1035A0000020FFF73FFA0020FFF73CFAB720FFF7B3
:1035B00045FA0020FFF736FA0020FFF733FA3F20E4
:1035C000FFF730FA0020FFF72DFA5E20FFF72AFA06
:1035D0000020FFF727FA6420FFF724FA0020FFF706
:1035E00021FA8C20FFF71EFA0020FFF71BFAAC200F
:1035F000FFF718FA0020FFF715FADC20FFF712FAA0
:103600000020FFF70FFA7020FFF70CFA0020FFF7F9
:1036100009FA9020FFF706FA0020FFF703FAEB20E3
:10362000FFF700FA0020FFF7FDF9DC20FFF7FAF9B9
:103630000020FFF7F7F9B820FFF700FA0020FFF7A6
:10364000F1F90020FFF7EEF90020FFF7EBF9002079
:10365000FFF7E8F90020FFF7E5F90020FFF7E2F9AE
:103660000020FFF7DFF90020FFF7DCF9BA20FFF7B1
:10367000E5F92420FFF7D6F90020FFF7D3F9002061
:10368000FFF7D0F90020FFF7CDF9C120FFF7D6F9F9
:103690002020FFF7C7F90020FFF7C4F95420FFF7F7
:1036A000C1F90020FFF7BEF9FF20FFF7BBF90020AA
:1036B000FFF7B8F9C220FFF7C1F90A20FFF7B2F906
:1036C0000020FFF7AFF90420FFF7ACF90020FFF767
:1036D000A9F9C320FFF7B2F93C20FFF7A3F90020B6
:1036E000FFF7A0F93A20FFF79DF90020FFF79AF9BC
:1036F0003920FFF797F90020FFF794F93720FFF7FB
:1037000091F90020FFF78EF93C20FFF78BF900209C
:10371000FFF788F93620FFF785F90020FFF782F9D7
:103720003220FFF77FF90020FFF77CF92F20FFF709
:1037300079F90020FFF776F92C20FFF773F90020C4
:10374000FFF770F92920FFF76DF90020FFF76AF9FC
:103750002620FFF767F90020FFF764F92420FFF720
:1037600061F90020FFF75EF92420FFF75BF90020E4
:10377000FFF758F92320FFF755F90020FFF752F91A
:103780003C20FFF74FF90020FFF74CF93620FFF7F8
:1037900049F90020FFF746F93220FFF743F90020EE
:1037A000FFF740F92F20FFF73DF90020FFF73AF926
:1037B0002C20FFF737F90020FFF734F92920FFF715
:1037C00031F90020FFF72EF92620FFF72BF9002012
:1037D000FFF728F92420FFF725F90020FFF722F949
:1037E0002420FFF71FF90020FFF71CF92320FFF723
:1037F00019F90020FFF716F9C420FFF71FF962201E
:10380000FFF710F90020FFF70DF90520FFF70AF97F
:103810000020FFF707F98420FFF704F90020FFF7E5
:1038200001F9F020FFF7FEF80020FFF7FBF8182061
:10383000FFF7F8F80020FFF7F5F8A420FFF7F2F8FB
:103840000020FFF7EFF81820FFF7ECF80020FFF753
:10385000E9F85020FFF7E6F80020FFF7E3F80C2026
:10386000FFF7E0F80020FFF7DDF81720FFF7DAF8A0
:103870000020FFF7D7F89520FFF7D4F80020FFF7D6
:10388000D1F8F320FFF7CEF80020FFF7CBF8E620C1
:10389000FFF7C8F80020FFF7C5F8C520FFF7CEF8FE
:1038A0003220FFF7BFF80020FFF7BCF84420FFF7F5
:1038B000B9F80020FFF7B6F86520FFF7B3F800204D
:1038C000FFF7B0F87620FFF7ADF80020FFF7AAF871
:1038D0008820FFF7A7F80020FFF7A4F8C620FFF71D
:1038E000ADF82020FFF79EF80020FFF79BF8172087
:1038F000FFF798F80020FFF795F80120FFF792F8FE
:103900000020FFF78FF8C720FFF798F80020FFF797
:1039100089F80020FFF786F80020FFF783F80020E1
:10392000FFF780F8C820FFF789F80020FFF77AF842
:103930000020FFF777F80020FFF774F80020FFF76A
:1039400071F8C920FFF77AF80020FFF76BF8002024
:10395000FFF768F80020FFF765F80020FFF762F82E
:103960000020FFF75FF80020FFF75CF80020FFF76A
:1039700059F80020FFF756F80020FFF753F8002011
:10398000FFF750F80020FFF74DF80020FFF74AF846
:103990000020FFF747F80020FFF744F80020FFF76A
:1039A00041F80020FFF73EF8E020FFF747F8162027
:1039B000FFF738F80020FFF735F81C20FFF732F842
:1039C0000020FFF72FF82120FFF72CF80020FFF749
:1039D00029F83620FFF726F80020FFF723F84620C5
:1039E000FFF720F80020FFF71DF85220FFF71AF824
:1039F0000020FFF717F86420FFF714F80020FFF706
:103A000011F87A20FFF70EF80020FFF70BF88B2053
:103A1000FFF708F80020FFF705F89920FFF702F8F4
:103A20000020FEF7FFFFA820FEF7FCFF0020FEF7B6
:103A3000F9FFB920FEF7F6FF0020FEF7F3FFC420E0
:103A4000FEF7F0FF0020FEF7EDFFCA20FEF7EAFFC9
:103A50000020FEF7E7FFD220FEF7E4FF0020FEF78C
:103A6000E1FFD920FEF7DEFF0020FEF7DBFFE020BC
:103A7000FEF7D8FF0020FEF7D5FFF320FEF7D2FFB8
:103A80000020FEF7CFFFE120FEF7D8FF1620FEF75B
:103A9000C9FF0020FEF7C6FF1C20FEF7C3FF002071
:103AA000FEF7C0FF2220FEF7BDFF0020FEF7BAFFA1
:103AB0003620FEF7B7FF0020FEF7B4FF4520FEF7E3
:103AC000B1FF0020FEF7AEFF5220FEF7ABFF002053
:103AD000FEF7A8FF6420FEF7A5FF0020FEF7A2FF77
:103AE0007A20FEF79FFF0020FEF79CFF8B20FEF759
:103AF00099FF0020FEF796FF9920FEF793FF002024
:103B0000FEF790FFA820FEF78DFF0020FEF78AFF4A
:103B1000B920FEF787FF0020FEF784FFC420FEF7E0
:103B200081FF0020FEF77EFFCA20FEF77BFF00200A
:103B3000FEF778FFD220FEF775FF0020FEF772FF38
:103B4000D820FEF76FFF0020FEF76CFFE020FEF7A5
:103B500069FF0020FEF766FFF320FEF763FF0020F9
:103B6000FEF760FFE22000E082E3FEF767FF05203A
:103B7000FEF758FF0020FEF755FF0B20FEF752FF1F
:103B80000020FEF74FFF1B20FEF74CFF0020FEF742
:103B900049FF3420FEF746FF0020FEF743FF442094
:103BA000FEF740FF0020FEF73DFF4F20FEF73AFFF3
:103BB0000020FEF737FF6120FEF734FF0020FEF7FC
:103BC00031FF7920FEF72EFF0020FEF72BFF882023
:103BD000FEF728FF0020FEF725FF9720FEF722FFC3
:103BE0000020FEF71FFFA620FEF71CFF0020FEF7B7
:103BF00019FFB720FEF716FF0020FEF713FFC220C3
:103C0000FEF710FF0020FEF70DFFC720FEF70AFFAA
:103C10000020FEF707FFD120FEF704FF0020FEF78B
:103C200001FFD620FEF7FEFE0020FEF7FBFEDD20A2
:103C3000FEF7F8FE0020FEF7F5FEF320FEF7F2FE99
:103C40000020FEF7EFFEE320FEF7F8FE0520FEF76A
:103C5000E9FE0020FEF7E6FE0A2000E006E3FEF79C
:103C6000E1FE0020FEF7DEFE1C20FEF7DBFE00205A
:103C7000FEF7D8FE3320FEF7D5FE0020FEF7D2FE79
:103C80004420FEF7CFFE0020FEF7CCFE5020FEF7CA
:103C9000C9FE0020FEF7C6FE6220FEF7C3FE00202C
:103CA000FEF7C0FE7820FEF7BDFE0020FEF7BAFE4C
:103CB0008820FEF7B7FE0020FEF7B4FE9720FEF73F
:103CC000B1FE0020FEF7AEFEA620FEF7ABFE002000
:103CD000FEF7A8FEB720FEF7A5FE0020FEF7A2FE25
:103CE000C220FEF79FFE0020FEF79CFEC720FEF7D5
:103CF00099FE0020FEF796FED120FEF793FE0020ED
:103D0000FEF790FED520FEF78DFE0020FEF78AFE1E
:103D1000DD20FEF787FE0020FEF784FEF320FEF78D
:103D200081FE0020FEF77EFEE420FEF787FE0120E4
:103D3000FEF778FE0020FEF775FE0120FEF772FE0A
:103D40000020FEF76FFE0220FEF76CFE0020FEF75B
:103D500069FE2A20FEF766FE0020FEF763FE3C2087
:103D6000FEF760FE0020FEF75DFE4B20FEF75AFED8
:103D70000020FEF757FE5D20FEF754FE0020FEF700
:103D800051FE7420FEF74EFE0020FEF74BFE84200D
:103D9000FEF748FE0020FEF745FE9320FEF742FEA8
:103DA0000020FEF73FFEA220FEF73CFE0020FEF7BB
:103DB00039FEB320FEF736FE0020FEF733FEBE20AC
:103DC000FEF730FE0020FEF72DFEC420FEF72AFE8F
:103DD0000020FEF727FECD20FEF724FE0020FEF790
:103DE00021FED320FEF71EFE0020FEF71BFEDD2085
:103DF000FEF718FE0020FEF715FEF320FEF712FE78
:103E00000020FEF70FFEE520FEF718FE0020FEF76B
:103E100009FE0020FEF706FE0020FEF703FE00204C
:103E2000FEF700FE0220FEF7FDFD0020FEF7FAFD82
:103E30002920FEF7F7FD0020FEF7F4FD3C20FEF7F9
:103E4000F1FD0020FEF7EEFD4B20FEF7EBFD00201C
:103E5000FEF7E8FD5D20FEF7E5FD0020FEF7E2FD40
:103E60007420FEF7DFFD0020FEF7DCFD8420FEF766
:103E7000D9FD0020FEF7D6FD9320FEF7D3FD0020EC
:103E8000FEF7D0FDA220FEF7CDFD0020FEF7CAFD13
:103E9000B320FEF7C7FD0020FEF7C4FDBE20FEF7ED
:103EA000C1FD0020FEF7BEFDC420FEF7BBFD0020D3
:103EB000FEF7B8FDCD20FEF7B5FD0020FEF7B2FD00
:103EC000D320FEF7AFFD0020FEF7ACFDDC20FEF7AF
:103ED000A9FD0020FEF7A6FDF320FEF7A3FD0020BC
:103EE000FEF7A0FDE620FEF7A9FD1120FEF79AFDE2
:103EF0000020FEF797FD3420FEF794FD0020FEF72A
:103F000091FD5620FEF78EFD0020FEF78BFD7620FA
:103F1000FEF788FD0020FEF785FD7720FEF782FD85
:103F20000020FEF77FFD6620FEF77CFD0020FEF7F7
:103F300079FD8820FEF776FD0020FEF773FD9920BD
:103F4000FEF770FD0020FEF76DFDBB20FEF76AFD59
:103F50000020FEF767FD9920FEF764FD0020FEF7C4
:103F600061FD6620FEF75EFD0020FEF75BFD55203B
:103F7000FEF758FD0020FEF755FD5520FEF752FDD7
:103F80000020FEF74FFD4520FEF74CFD0020FEF718
:103F900049FD4320FEF746FD0020FEF743FD442087
:103FA000FEF740FD0020FEF73DFDE720FEF746FD51
:103FB0003220FEF737FD0020FEF734FD5520FEF7D6
:103FC00031FD0020FEF72EFD7620FEF72BFD0020B0
:103FD000FEF728FD6620FEF725FD0020FEF722FDF6
:103FE0006720FEF71FFD0020FEF71CFD6720FEF78F
:103FF00019FD0020FEF716FD8720FEF713FD0020B7
:10400000FEF710FD9920FEF70DFD0020FEF70AFDDA
:10401000BB20FEF707FD0020FEF704FD9920FEF708
:1040200001FD0020FEF7FEFC7720FEF7FBFC0020E0
:10403000FEF7F8FC4420FEF7F5FC0020FEF7F2FC4A
:104040005620FEF7EFFC0020FEF7ECFC2320FEF7E5
:10405000E9FC0020FEF7E6FC3320FEF7E3FC00203D
:10406000FEF7E0FC4520FEF7DDFC0020FEF7DAFC61
:10407000E820FEF7E3FC0020FEF7D4FC0020FEF76A
:10408000D1FC9920FEF7CEFC0020FEF7CBFC872068
:10409000FEF7C8FC0020FEF7C5FC8820FEF7C2FC36
:1040A0000020FEF7BFFC7720FEF7BCFC0020FEF7E7
:1040B000B9FC6620FEF7B6FC0020FEF7B3FC8820B2
:1040C000FEF7B0FC0020FEF7ADFCAA20FEF7AAFC2C
:1040D0000020FEF7A7FCBB20FEF7A4FC0020FEF7A3
:1040E000A1FC9920FEF79EFC0020FEF79BFC6620B9
:1040F000FEF798FC0020FEF795FC5520FEF792FC99
:104100000020FEF78FFC5520FEF78CFC0020FEF708
:1041100089FC4420FEF786FC0020FEF783FC442047
:10412000FEF780FC0020FEF77DFC5520FEF77AFCB0
:104130000020FEF777FCE920FEF780FCAA20FEF7BE
:1041400071FC0020FEF76EFC0020FEF76BFC0020E7
:10415000FEF768FC0020FEF771FCAA20FEF762FC67
:10416000CF20FEF76BFC0020FEF75CFC0020FEF782
:1041700059FC0020FEF756FC0020FEF753FC0020FF
:10418000FEF750FC0020FEF74DFC0020FEF74AFC35
:104190000020FEF747FC0020FEF744FC0020FEF75D
:1041A00041FC0020FEF73EFC0020FEF73BFC002017
:1041B000FEF738FC0020FEF735FC0020FEF732FC4D
:1041C0000020FEF72FFC0020FEF72CFCF020FEF76D
:1041D00035FC0020FEF726FC5020FEF723FC0020D3
:1041E000FEF720FC0020FEF71DFC0020FEF71AFC65
:1041F000F320FEF723FC0020FEF714FCF920FEF765
:104200001DFC0620FEF70EFC1020FEF70BFC2920FB
:10421000FEF708FC0020FEF705FC3A20FEF70EFC36
:104220005520FEF7FFFB1120FEF708FC6420FCF789
:104230004FFB2920FEF702FC3520FEF7FFFB002094
:10424000FEF7F0FB5120FEF7F9FBFF20FEF7EAFB3B
:104250005320FEF7F3FB2C20FEF7E4FB5520FEF77E
:10426000EDFB8220FEF7DEFB2C20FCE3A8427CD194
:104270004FF4704355211846FEF7F6FB4FF2010A42
:10428000AA215046FEF7F0FB4FF2020B522158468E
:10429000FEF7EAFB08214FF20300FEF7E5FB0121E0
:1042A0004FF20400FEF7E0FB0D214FF43040FEF723
:1042B000DBFB0D214BF20100FEF7D6FB0D214BF28B
:1042C0000200FEF7D1FB34214FF43640FEF7CCFB61
:1042D00034214BF20160FEF7C7FB34214BF2026040
:1042E000FEF7C2FB0D214FF43140FEF7BDFB0D215F
:1042F0004BF20110FEF7B8FB0D214BF20210FEF756
:10430000B3FB34214FF43740FEF7AEFB34214BF2C0
:104310000170FEF7A9FB34214BF20270FEF7A4FBFB
:1043200000214FF43240FEF79FFB00214BF20120A9
:10433000FEF79AFB00214BF20220FEF795FB2421A9
:104340004FF43840FEF790FB24214BF60100FEF7B6
:104350008BFB24214BF60200FEF786FB01214FF474
:104360003F40FEF781FB0F2100E0FDE34FF43340B7
:10437000FEF77AFB0F214BF20130FEF775FB0F21A0
:104380004BF20230FEF770FB34214FF43940FEF758
:104390006BFB34214BF60110FEF766FB34214BF624
:1043A0000210FEF761FB08214FF43540FEF75CFB7D
:1043B00008214BF20150FEF757FB08214BF2025047
:1043C000FEF752FB03214FF44240FEF74DFB242140
:1043D0004FF43A40FEF748FB24214BF60120FEF74C
:1043E00043FB24214BF60220FEF73EFB00214FF455
:1043F0003C40FEF739FB78214BF60140FEF734FBD9
:1044000000214BF60240FEF72FFB00214FF43D4008
:10441000FEF72AFB78214BF60150FEF725FB002121
:104420004BF60250FEF720FB00214FF43E40FEF712
:104430001BFB64214BF60160FEF716FB00214FF4D5
:104440005140FEF711FB33214DF20110FEF70CFB3A
:1044500000214DF20210FEF707FB34214DF203104C
:10446000FEF702FB00214DF20410FEF7FDFA3A219F
:104470004DF20510FEF7F8FA00214DF20610FEF796
:10448000F3FA4A214DF20710FEF7EEFA00214DF241
:104490000810FEF7E9FA5C214DF20910FEF7E4FA84
:1044A00000214DF20A10FEF7DFFA81214DF20B10C8
:1044B000FEF7DAFA00214DF20C10FEF7D5FAA6212C
:1044C0004DF20D10FEF7D0FA00214DF20E10FEF75E
:1044D000CBFAE5214DF20F10FEF7C6FA01214DF29D
:1044E0001010FEF7C1FA13214DF21110FEF7BCFABD
:1044F00001214DF21210FEF7B7FA54214DF21310BC
:10450000FEF7B2FA01214DF21410FEF7ADFA822146
:104510004DF21510FEF7A8FA01214DF21610FEF724
:10452000A3FACA214DF21710FEF79EFA02214DF2AE
:104530001810FEF799FA00214DF21910FEF794FABF
:1045400002214DF21A10FEF78FFA01214DF21B10D5
:10455000FEF78AFA02214DF21C10FEF785FA34218B
:104560004DF21D10FEF780FA02214DF21E10FEF7EB
:104570007BFA67214DF21F10FEF776FA02214DF209
:104580002010FEF771FA84214DF22110FEF76CFA2B
:1045900002214DF22210FEF767FAA4214DF22310FA
:1045A000FEF762FA02214DF22410FEF75DFAB72100
:1045B0004DF22510FEF758FA02214DF22610FEF7B3
:1045C00053FACF214DF22710FEF74EFA02214DF299
:1045D0002810FEF749FADE214DF22910FEF744FAC1
:1045E00002214DF22A10FEF73FFAF2214DF22B1074
:1045F000FEF73AFA02214DF22C10FEF735FAFE21B1
:104600004DF22D10FEF730FA03214DF22E10FEF779
:104610002BFA10214DF22F10FEF726FA03214DF24E
:104620003010FEF721FA33214DF23110FEF71CFA5B
:1046300003214DF23210FEF717FA6D214DF23310BF
:10464000FEF712FA00214FF45240FEF70DFA332123
:104650004DF20120FEF708FA00214DF20220FEF78C
:1046600003FA34214DF20320FEF7FEF900214DF24A
:104670000420FEF7F9F93A214DF20520FEF7F4F98E
:1046800000214DF20620FEF7EFF94A214DF20720F6
:10469000FEF7EAF900214DF20820FEF7E5F95C216A
:1046A0004DF20920FEF7E0F900214DF20A20FEF755
:1046B000DBF981214DF20B20FEF7D6F900214DF2F6
:1046C0000C20FEF7D1F9A6214DF20D20FEF7CCF912
:1046D00000214DF20E20FEF7C7F9E5214DF20F2023
:1046E000FEF7C2F901214DF21020FEF7BDF91321AA
:1046F0004DF21120FEF7B8F901214DF21220FEF71C
:10470000B3F954214DF21320FEF7AEF901214DF219
:104710001420FEF7A9F982214DF21520FEF7A4F925
:1047200001214DF21620FEF79FF9CA214DF2172004
:10473000FEF79AF902214DF21820FEF795F90021B3
:104740004DF21920FEF790F902214DF21A20FEF7E2
:104750008BF901214DF21B20FEF786F902214DF263
:104760001C20FEF781F934214DF21D20FEF77CF963
:1047700002214DF21E20FEF777F967214DF21F202E
:10478000FEF772F902214DF22020FEF76DF9842127
:104790004DF22120FEF768F902214DF22220FEF7AA
:1047A00063F9A4214DF22320FEF75EF902214DF2B8
:1047B0002420FEF759F9B7214DF22520FEF754F9D0
:1047C00002214DF22620FEF74FF9CF214DF227208E
:1047D000FEF74AF902214DF22820FEF745F9DE21C5
:1047E0004DF22920FEF740F902214DF22A20FEF772
:1047F0003BF9F2214DF22B20FEF736F902214DF262
:104800002C20FEF731F9FE214DF22D20FEF72CF978
:1048100003214DF22E20FEF727F910214DF22F2013
:10482000FEF722F903214DF23020FEF71DF9332166
:104830004DF23120FEF718F903214DF23220FEF738
:1048400013F96D214DF23320FEF70EF900214FF4DC
:104850005340FEF709F933214DF20130FEF704F918
:1048600000214DF20230FEF7FFF834214DF2033003
:10487000FEF7FAF800214DF20430FEF7F5F83A2180
:104880004DF20530FEF7F0F800214DF20630FEF74C
:10489000EBF84A214DF20730FEF7E6F800214DF221
:1048A0000830FEF7E1F85C214DF20930FEF7DCF844
:1048B00000214DF20A30FEF7D7F881214DF20B307E
:1048C000FEF7D2F800214DF20C30FEF7CDF8A6210C
:1048D0004DF20D30FEF7C8F800214DF20E30FEF714
:1048E000C3F8E5214DF20F30FEF7BEF801214DF27D
:1048F0001030FEF7B9F813214DF21130FEF7B4F87D
:1049000001214DF21230FEF7AFF854214DF2133071
:10491000FEF7AAF801214DF21430FEF7A5F8822126
:104920004DF21530FEF7A0F801214DF21630FEF7DA
:104930009BF8CA214DF21730FEF796F802214DF28E
:104940001830FEF791F800214DF21930FEF78CF87F
:1049500002214DF21A30FEF787F801214DF21B308B
:10496000FEF782F802214DF21C30FEF77DF834216B
:104970004DF21D30FEF778F802214DF21E30FEF7A1
:1049800073F867214DF21F30FEF76EF802214DF2E9
:104990002030FEF769F884214DF22130FEF764F8EB
:1049A00002214DF22230FEF75FF8A4214DF22330B0
:1049B000FEF75AF802214DF22430FEF755F8B721E0
:1049C0004DF22530FEF750F802214DF22630FEF769
:1049D0004BF8CF214DF22730FEF746F802214DF279
:1049E0002830FEF741F8DE214DF22930FEF73CF881
:1049F00002214DF22A30FEF737F8F2214DF22B302A
:104A0000FEF732F802214DF22C30FEF72DF8FE2190
:104A10004DF22D30FEF728F803214DF22E30FEF72F
:104A200023F810214DF22F30FEF71EF803214DF22E
:104A30003030FEF719F833214DF23130FEF714F81B
:104A400003214DF23230FEF70FF86D214DF2333075
:104A5000FEF70AF800214FF45440FEF705F8332121
:104A60004DF2014000E084E3FDF7FEFF00214DF22E
:104A70000240FDF7F9FF34214DF20340FDF7F4FF4A
:104A800000214DF20440FDF7EFFF3A214DF20540C1
:104A9000FDF7EAFF00214DF20640FDF7E5FF4A2150
:104AA0004DF20740FDF7E0FF00214DF20840FDF711
:104AB000DBFF5C214DF20940FDF7D6FF00214DF2EE
:104AC0000A40FDF7D1FF81214DF20B40FDF7CCFFED
:104AD00000214DF20C40FDF7C7FFA6214DF20D401D
:104AE000FDF7C2FF00214DF20E40FDF7BDFFE521AD
:104AF0004DF20F40FDF7B8FF01214DF21040FDF7D8
:104B0000B3FF13214DF21140FDF7AEFF01214DF22D
:104B10001240FDF7A9FF54214DF21340FDF7A4FF09
:104B200001214DF21440FDF79FFF82214DF2154007
:104B3000FDF79AFF01214DF21640FDF795FFCA21BE
:104B40004DF21740FDF790FF02214DF21840FDF79E
:104B50008BFF00214DF21940FDF786FF02214DF237
:104B60001A40FDF781FF00E006E301214DF21B40F2
:104B7000FDF77AFF02214DF21C40FDF775FF34214D
:104B80004DF21D40FDF770FF02214DF21E40FDF772
:104B90006BFF67214DF21F40FDF766FF02214DF2CA
:104BA0002040FDF761FF84214DF22140FDF75CFFBD
:104BB00002214DF22240FDF757FFA4214DF2234080
:104BC000FDF752FF02214DF22440FDF74DFFB721C2
:104BD0004DF22540FDF748FF02214DF22640FDF73A
:104BE00043FFCF214DF22740FDF73EFF02214DF25A
:104BF0002840FDF739FFDE214DF22940FDF734FF53
:104C000002214DF22A40FDF72FFFF2214DF22B40F9
:104C1000FDF72AFF02214DF22C40FDF725FFFE2172
:104C20004DF22D40FDF720FF03214DF22E40FDF700
:104C30001BFF10214DF22F40FDF716FF03214DF20F
:104C40003040FDF711FF33214DF23140FDF70CFFED
:104C500003214DF23240FDF707FF6D214DF2334045
:104C6000FDF702FF00214FF45540FDF7FDFE332113
:104C70004DF20150FDF7F8FE00214DF20250FDF714
:104C8000F3FE34214DF20350FDF7EEFE00214DF20C
:104C90000450FDF7E9FE3A214DF20550FDF7E4FE20
:104CA00000214DF20650FDF7DFFE4A214DF207507C
:104CB000FDF7DAFE00214DF20850FDF7D5FE5C212C
:104CC0004DF20950FDF7D0FE00214DF20A50FDF7DC
:104CD000CBFE81214DF20B50FDF7C6FE00214DF2B7
:104CE0000C50FDF7C1FEA6214DF20D50FDF7BCFEA4
:104CF00000214DF20E50FDF7B7FEE5214DF20F50A9
:104D0000FDF7B2FE01214DF21050FDF7ADFE13216B
:104D10004DF21150FDF7A8FE01214DF21250FDF7A2
:104D2000A3FE54214DF21350FDF79EFE01214DF2DA
:104D30001450FDF799FE82214DF21550FDF794FEB7
:104D400001214DF21650FDF78FFECA214DF217508A
:104D5000FDF78AFE02214DF21850FDF785FE002175
:104D60004DF21950FDF780FE02214DF21A50FDF769
:104D70007BFE01214DF21B50FDF776FE02214DF224
:104D80001C50FDF771FE34214DF21D50FDF76CFEF5
:104D900002214DF21E50FDF767FE67214DF21F50B4
:104DA000FDF762FE02214DF22050FDF75DFE8421E9
:104DB0004DF22150FDF758FE02214DF22250FDF731
:104DC00053FEA4214DF22350FDF74EFE02214DF279
:104DD0002450FDF749FEB7214DF22550FDF744FE62
:104DE00002214DF22650FDF73FFECF214DF2275014
:104DF000FDF73AFE02214DF22850FDF735FEDE2187
:104E00004DF22950FDF730FE02214DF22A50FDF7F8
:104E10002BFEF2214DF22B50FDF726FE02214DF222
:104E20002C50FDF721FEFE214DF22D50FDF71CFE0A
:104E300003214DF22E50FDF717FE10214DF22F5099
:104E4000FDF712FE03214DF23050FDF70DFE332128
:104E50004DF23150FDF708FE03214DF23250FDF7BF
:104E600003FE6D214DF23350FDF7FEFD00214FF49E
:104E70005640FDF7F9FD33214DF20160FDF7F4FDD9
:104E800000214DF20260FDF7EFFD34214DF2036089
:104E9000FDF7EAFD00214DF20460FDF7E5FD3A2142
:104EA0004DF20560FDF7E0FD00214DF20660FDF7D3
:104EB000DBFD4A214DF20760FDF7D6FD00214DF2E2
:104EC0000860FDF7D1FD5C214DF20960FDF7CCFDD6
:104ED00000214DF20A60FDF7C7FD81214DF20B6004
:104EE000FDF7C2FD00214DF20C60FDF7BDFDA621CE
:104EF0004DF20D60FDF7B8FD00214DF20E60FDF79B
:104F0000B3FDE5214DF20F60FDF7AEFD01214DF23D
:104F10001060FDF7A9FD13214DF21160FDF7A4FD0E
:104F200001214DF21260FDF79FFD54214DF21360F7
:104F3000FDF79AFD01214DF21460FDF795FD8221E8
:104F40004DF21560FDF790FD01214DF21660FDF761
:104F50008BFDCA214DF21760FDF786FD02214DF24F
:104F60001860FDF781FD00214DF21960FDF77CFD11
:104F700002214DF21A60FDF777FD01214DF21B6011
:104F8000FDF772FD02214DF21C60FDF76DFD34212D
:104F90004DF21D60FDF768FD02214DF21E60FDF728
:104FA00063FD67214DF21F60FDF75EFD02214DF2AA
:104FB0002060FDF759FD84214DF22160FDF754FD7D
:104FC00002214DF22260FDF74FFDA4214DF2236036
:104FD000FDF74AFD02214DF22460FDF745FDB721A2
:104FE0004DF22560FDF740FD02214DF22660FDF7F0
:104FF0003BFDCF214DF22760FDF736FD02214DF23A
:105000002860FDF731FDDE214DF22960FDF72CFD12
:1050100002214DF22A60FDF727FDF2214DF22B60AF
:10502000FDF722FD02214DF22C60FDF71DFDFE2152
:105030004DF22D60FDF718FD03214DF22E60FDF7B6
:1050400013FD10214DF22F60FDF70EFD03214DF2EF
:105050003060FDF709FD33214DF23160FDF704FDAD
:1050600003214DF23260FDF7FFFC6D214DF23360FC
:10507000FDF7FAFC55211846FDF7F6FCAA2150462B
:10508000FDF7F2FC52215846FDF7EEFC08214FF2E5
:105090000300FDF7E9FC00214FF20400FDF7E4FCFA
:1050A000CC214FF43140FDF7DFFC00214BF2011021
:1050B000FDF7DAFC05214FF43640FDF7D5FC7021F1
:1050C0004FF43740FDF7D0FC70214BF20170FDF733
:1050D000CBFC01214FF43840FDF7C6FC03214BF611
:1050E0000100FDF7C1FC03214BF60200FDF7BCFCFB
:1050F00003214BF60300FDF7B7FC02214FF43C40BF
:10510000FDF7B2FC00214BF60140FDF7ADFC00219C
:105110004BF60240FDF7A8FCD0214FF44940FDF7C3
:10512000A3FC02214CF60110FDF79EFC50214CF629
:105130000210FDF799FC50214CF60310FDF794FC8A
:1051400050214CF60410FDF78FFC00214FF4545011
:10515000FDF78AFC55214FF46850FDF785FC4FF4AC
:105160008850FDF76BFC7720401EC0B2FCD24FF494
:105170002450FDF763FCBAE04045FCD1E220FDF786
:105180005DFC1D20FDF74EFC0220FDF74BFC0420CA
:10519000FDF748FC6320401EC0B2FCD2E020FDF7C2
:1051A0004DFC0120FDF73EFC0A20FBF791FBE020BF
:1051B000FDF744FC0320FDF735FC0C20FBF788FBD2
:1051C0000120FDF73BFC0A20FBF782FBE620FDF700
:1051D00035FC2F20FDF726FCFF20FDF723FCFF20E8
:1051E000FDF720FCB020FDF729FC2020FDF71AFC7C
:1051F0000020FDF717FC0320FDF714FC40F21F30E0
:10520000FDF710FC0120FDF70DFC40F2DF10FDF76B
:1052100009FC0020FDF706FCB420FDF70FFC04207C
:10522000FDF700FC40F21F40FDF7FCFB0020FDF7FE
:10523000F9FB2E20FDF7F6FB0020FDF7F3FB002025
:10524000FDF7F0FB0020FDF7EDFB0020FDF7EAFB8A
:10525000B620FDF7F3FB0220FDF7E4FB4FF40370EB
:10526000FDF7E0FB0020FDF7DDFB1720FDF7DAFB83
:105270001520FDF7D7FB0020FDF7D4FB0020FDF73C
:10528000D1FBF020FDF7DAFB0320FDF7CBFB292053
:10529000FDF7D4FBD020FDF7D1FB0020FDF7C2FBCA
:1052A000BE20FDF7CBFB0520FDF7BCFBFE20FDF784
:1052B000B9FB0120FDF7B6FB0020FDF7B3FB002092
:1052C000FDF7B0FB0020FDF7ADFBB820FDF7B6FB06
:1052D0000320FDF7A7FB0120FDF7A4FBBA20FDF793
:1052E000ADFB0120FDF79EFB6420FDF779F9A08856
:1052F000B04205D0B84203D0A84201D0404519D1F0
:105300004FF02040D0F81C1121F00F01C0F81C1103
:10531000D0F81C1121F47061C0F81C11D0F81C11D8
:1053200041F00301C0F81C11D0F81C1141F40071C8
:10533000C0F81C110020FCF79BFF0548016841F4F0
:10534000004101604846BDE8F05FFCF777BF000010
:10535000140402400148FCF767BC0000241100203F
:10536000F0B50268254C264D264E274F274B4FF0AF
:10537000804CA04209D0604507D0A84205D0B04279
:1053800003D0B84201D0984204D122F0700E4A688E
:1053900042EA0E02A0421BD0604519D0A84217D0A5
:1053A000B04215D0B84213D0984211D0184DA8423F
:1053B0000ED0184DA8420BD0174DA84208D0174D5B
:1053C000A84205D0164DA84202D0164DA84203D1DE
:1053D00022F44075CA682A434D6922F080022A43AC
:1053E00002608A68C2620A688262A04201D0984262
:1053F00001D10969016301214161F0BD0000014053
:105400000004004000080040000C0040000401407F
:1054100000400140004401400048014000180040A5
:10542000001C00400020004010B501F01F030121C6
:10543000046A99408C430462016A9A4011430162F4
:1054400010BD10B5846842EA032224F47F440A4365
:105450002243826010BD826822F070020A4342F04B
:105460000701816070470000F0B5026A22F0010276
:105470000262036A42688469124E24F073050C6864
:105480002C4323F002058B682B430D4DA84201D01D
:10549000B04205D123F00807CB683B4323F0040357
:1054A000A84201D0B04205D14D6922F440721543A3
:1054B0008A692A4342608461496841630362F0BD9E
:1054C0000000014000040140F0B5026A22F0100221
:1054D0000262026A436884690D6824F4E64444EA7F
:1054E00005248D6822F0200242EA05120F4D104E6D
:1054F000A84201D0B04206D1CF6822F0800242EA31
:10550000071222F04002A84201D0B04207D14D69F3
:1055100023F4406343EA85038D6943EA85034360CE
:105520008461496881630262F0BD000000000140AF
:1055300000040140F0B5026A22F480720262026A3D
:105540004368C46922F4007224F073050C68124E9B
:105550002C438D6842EA05220E4DA84201D0B0428C
:1055600006D1CF6822F4006242EA072222F4806268
:10557000A84201D0B04207D14D6923F4405343EA19
:1055800005138D6943EA05134360C4614968C1632B
:105590000262F0BD000001400004014030B5026A23
:1055A00022F480520262046A4268C3690D6823F4DF
:1055B000E64343EA05238D6824F4005444EA0534A5
:1055C000084DA84202D0084DA84204D14D6922F4EA
:1055D000804242EA85124260C36149680164046204
:1055E00030BD0000000001400004014010B5036A16
:1055F000046A24F001040462846924F0F00444EA9B
:10560000021423F00A020A438461026210BD10B53D
:10561000036A23F0100303628369046A23F470436E
:1056200043EA023224F0A00343EA011182610162DD
:1056300010BD00002DE9F04F00242DED0A8B85B040
:105640002546FE4E86F820409FEDFD0A012786ED97
:10565000090A9FEDFC8B9FEDFD9BDFF8F8834FF06F
:10566000900AA6F108094FF0D00B71680120884715
:1056700096F82000B7EB901F4BD120F0400086F841
:105680002000B18968462DF8241000EB8400641CCA
:105690000025F18AE4B24180012C06D0022C12D000
:1056A000032C21D0042C34D142E014214FF6FF7298
:1056B000084600F0F1F9B8F800004FF478421438C9
:1056C00080B2142123E0B8F800004FF6FF721438BE
:1056D00080B2142100F0E0F9B8F802004FF47842EB
:1056E000143881B2142012E0B8F802004FF6FF72AD
:1056F000143881B2142000F0CFF9B8F802004FF44A
:105700007842143881B2B8F80000143880B200F042
:10571000C3F90A20FBF7DCF86D1CADB2B5F57A7F52
:10572000A3D900F0F1F905B0BDEC0A8BBDE8F08F0C
:10573000BDF80000BDF80410411A00D54942BDF87B
:105740000200BDF80620801A00D54042494340437C
:10575000084401F020F841EC100B00F025FF51EC5B
:10576000100B00F0EBFF84B2BDF80800BDF80C1080
:10577000401A00D54042BDF80A10BDF80E20891A23
:1057800000D54942404301FB010001F004F841EC1F
:10579000100B00F009FF51EC100B00F0CFFF00EEF2
:1057A000104A80B20490F8EE400A00EE100AB8EEFB
:1057B000401A80EE810A10EE100A01F03BFA41EC2B
:1057C0001A0B53EC182B00F0F9FF5CD353EC192B98
:1057D00051EC1A0B01F02CF955D3E4B30498D0B373
:1057E000BDF80000BDF80810401A00D54042BDF8D1
:1057F0000210BDF80A20891A00D54942404301FB36
:10580000010000F0C8FF41EC100B00F0CDFE51ECA0
:10581000100B00F093FF84B2BDF80400BDF80C102B
:10582000401A00D54042BDF80610BDF80E20891A76
:1058300000D54942404301FB010000F0ACFF41ECC0
:10584000100B00F0B1FE51EC100B00F077FF80B2AE
:1058500000EE104A00E016E0F8EE400A00EE100AF2
:10586000B8EE401A80EE810A10EE100A01F0E2F95B
:10587000B0EE48BAF0EE68BA41EC1A0B53EC1B2BB1
:1058800000F09CFF13D2B8F80210B8F800001439E9
:105890001438002489B280B24FF6FF7200F0FCF891
:1058A00014214FF47842084600F0F6F8DDE6B0EE39
:1058B00049CAF0EE69CA53EC1C2B51EC1A0B01F0EB
:1058C000B7F8E0D3BDF80400BDF80810401A00D5C1
:1058D0004042BDF80610BDF80A20891A00D5494299
:1058E000404301FB010000F056FF41EC100B00F0BB
:1058F0005BFE51EC100B00F021FF84B2BDF80000FC
:10590000BDF80C10411A00D54942BDF80200BDF89F
:105910000E20801A00D5404249434043084400F01D
:105920003AFF41EC100B00F03FFE51EC100B00F081
:1059300005FF00EE104A80B2F8EE400A00EE100AB1
:10594000B8EE401A80EE810A10EE100A01F072F9EA
:1059500041EC1A0B53EC1B2B00F030FF93D353ECAC
:105960001C2B51EC1A0B01F063F88CD3BDF80430FA
:10597000BDF80020981A00EE100AB8F800001A448A
:10598000F8EEC00AA0F1280400EE104AB8EEC00AF2
:10599000C0EE201A00EE102AF8EE400A00EE100ABF
:1059A000B8EE400AC6ED091A01EEE00AF6EE000A6A
:1059B00020EE200A86ED0B0ABDF80A30BDF8022061
:1059C000B8F802109C1A00EE104AA1F128041A44FB
:1059D000B8EEC01A00EE104AB8EEC02A82EE010AF4
:1059E00001EE102AB8EE412A01EE101AB8EE411A63
:1059F00086ED0A0A00EE421A61EE200AC6ED0C0A94
:105A0000FDEEE10A10EE902A002A00DA5242022A44
:105A100008DCBDEEC00A10EE102A002A00DA52425D
:105A2000022A32DD14391438002489B280B24FF6CC
:105A3000FF7200F031F84FF478420DE014000020BE
:105A400000000000666666666666EE3FCDCCCCCC94
:105A5000CCCCF03F6C1000201421084600F01CF85C
:105A600096F8340050B1002086F8340000284846EB
:105A700006D080F800A089F801B0F6E50120F3E730
:105A800080F800B089F801A0EFE500F08DF94FF63D
:105A9000FF70FCF7D3FB46E62DE9F04104461948B8
:105AA0000D460B46026004F10D0082B2193880B237
:105AB000FCF74AFC05F10D0083B2193881B2224689
:105AC0001046FCF741FC6E1C04F10108B1B21FFA4C
:105AD00088F0FCF787FCB1B2661EB0B2FCF782FC1E
