:020000040800F2
:10000000B019002029020008F3330008FD2600087B
:10001000F1330008650500082168000800000000B1
:10002000000000000000000000000000653500082E
:100030002506000800000000F533000867350008B9
:10004000430200084302000843020008430200087C
:10005000430200084302000843020008430200086C
:100060004302000827060008430200084302000874
:10007000430200084302000843020008430200084C
:10008000430200084302000843020008430200083C
:10009000430200084302000843020008430200082C
:1000A000430200084302000843020008430200081C
:1000B00015590008430200084302000843020008E3
:1000C00043020008430200084302000843020008FC
:1000D00043020008430200084302000843020008EC
:1000E00043020008430200084302000843020008DC
:1000F00043020008430200084302000843020008CC
:1001000043020008430200084302000843020008BB
:1001100043020008430200084302000843020008AB
:100120004302000843020008690500084302000872
:10013000430200084302000843020008430200088B
:10014000430200084302000843020008430200087B
:100150004302000843020008750500084302000836
:10016000430200084302000843020008430200085B
:100170004302000843020008430200080000000098
:10018000430200084302000800F002F800F03CF8C7
:100190000AA090E8000C82448344AAF10107DA45E2
:1001A00001D100F031F8AFF2090EBAE80F0013F0F8
:1001B000010F18BFFB1A43F001031847C0B8000035
:1001C000E0B80000103A24BF78C878C1FAD85207C6
:1001D00024BF30C830C144BF04680C6070470000C1
:1001E0000023002400250026103A28BF78C1FBD840
:1001F000520728BF30C148BF0B6070471FB507F0DA
:1002000088F81FBD10B510BD00F0E2F81146FFF7E9
:10021000F5FF06F0FFFC00F000F903B4FFF7F2FF72
:1002200003BC00F005F90000094880470948004771
:10023000FEE7FEE7FEE7FEE7FEE7FEE7FEE7FEE796
:10024000FEE7FEE704480549054A064B70470000F3
:100250000136000889010008B0130020B019002001
:10026000B0150020B015002053EA020C00F06980A0
:100270002DE9F04B4FF00006002B1FBFB3FA83F5BA
:1002800003FA05F424FA05F65E4012BF1643B2FAEB
:1002900082F502FA05F4C5F120051EBF22FA05FC1D
:1002A00044EA0C04203556EA044C4FEA144418BFC3
:1002B000641C4FF000084FF00009904271EB030CF2
:1002C00039D3002919BFB1FA81F701FA07F6B0FA5C
:1002D00080F700FA07F6C7F120071EBF20FA07FCD7
:1002E00046EA0C062037B6FBF4FCA7EB0507103FE7
:1002F00007F01F0BCBF120060CFA0BFB2CFA06F6CD
:1003000044BFB3460026202FA4BF5E464FF0000B2B
:100310005BEA060C08BF4FF0010B19EB0B09ABFBB6
:10032000027C48EB0608C01B06FB02CC0BFB03CC8F
:1003300071EB0C01C1E70B46024641464846BDE859
:10034000F08B13B54FF000004FF00001AFF30080C9
:10035000BDE81C4070474FF0000200B513469446BC
:100360009646203922BFA0E80C50A0E80C50B1F10D
:100370002001BFF4F7AF090728BFA0E80C5048BF21
:100380000CC05DF804EB890028BF40F8042B08BFBF
:10039000704748BF20F8022B11F0804F18BF00F8BB
:1003A000012B704770477047704710B500F008F890
:1003B000006810BD10B5044600F002F8046010BDDE
:1003C000004870474C130020004870474C13002031
:1003D0007546FFF7F9FFAE4605006946534620F023
:1003E0000700854618B020B5FFF72CFFBDE8204078
:1003F0004FF000064FF000074FF000084FF0000BE1
:1004000021F00701AC46ACE8C009ACE8C009ACE893
:10041000C009ACE8C0098D46704710B50446AFF37B
:1004200000802046BDE81040FFF7F7BE704700008F
:1004300001491820ABBEFEE726000200464910B570
:100440004A6822F440324A604A6843681A434A6064
:1004500001684A6822F480724A6001684A68036948
:1004600042EA03224A6001684A6822F040724A6008
:1004700001684A6883681A434A6001688A6822F4FE
:1004800000628A6001688A68C3681A438A60816A68
:100490006FF07062D14201688A6822F070628A60EF
:1004A00001688A680CD0836A1A438A6001688A6886
:1004B00022F040528A6001688A68C36A1A4301E0E8
:1004C00022F040528A6001688A6822F002028A6043
:1004D00001688A68037E42EA43028A6090F820102D
:1004E000002901684A680FD042F400624A6001683E
:1004F0004A6822F460424A6001684A68174C436ABD
:1005000004EB43331A4301E022F400624A600168BD
:10051000CA6A22F47002CA620168CA6A838B104CEC
:1005200004EB03531A43CA6201688A6822F400721A
:100530008A6001688A6890F8303042EA43228A6013
:1005400001688A6822F480628A6001688A6840696A
:1005500042EA8020886010BD0023014000E0FFFFD8
:100560000000F0FFFEE70000014800F0AFBA000015
:100570008C120020014800F0A9BA0000EC12002003
:1005800001681823CAB2103AB2FBF3F2054B6FF3BD
:100590000901032A9B5CC36500D9091D81650846D2
:1005A000704700005CBA000810B5014600208B6956
:1005B0008A6A4FF0C07453B1B3F5005F15D072B1C1
:1005C000012A0CD0022A0AD0032A09D104E01AB168
:1005D000012A06D0022A03D1C96AC90100D5012027
:1005E00010BDC96AA142FAD010BD002AF7D0012A75
:1005F000F2D0022AF3D0032AF3D010BD30B504683C
:10060000256825F480252560046863608368402B95
:10061000036803D099600068C26030BD9A600068CA
:10062000C16030BD7047082000F044BC72B6FEE7E0
:1006300030B5B3F5804F05D06FF0704140F822100F
:10064000002030BD8C690B688D6823434C68898914
:10065000240144EA0524234343EA014150F82230AF
:10066000014C23401943E9E70000F0CF10B50A68B8
:1006700050F8223023F0010340F822308C68082C17
:1006800023D000234A682243CC681C430B692243D1
:100690001A434B690E4C1A43CB691A430B6A1A432F
:1006A0004B6A1A438B6A1A43CB6A1A430B6B1A4381
:1006B0008B691343CA6B09681A4350F82130A3436E
:1006C000134340F82130002010BD4023DAE700003A
:1006D0007FFF0F0030B5D1E9003443EA04138C6882
:1006E0008D89240244EA054423430C8A094D00EB1A
:1006F000820005EB045423430C7D6D0105EB04647B
:10070000896923430B43416801F040410B43436037
:10071000002030BD0000F0FF78B50024009490F870
:100720003C20012A19D0012280F83C200A680723C6
:100730000568092A13D9EE680A3A02EB420293408F
:100740009E43EE600B788A680A3B03EB43039A40B2
:100750000368DD682A43DA6010E0022078BD2E6964
:1007600002EB420293409E432E610B788A6803EBB2
:1007700043039A4003681D692A431A614A681F238C
:10078000072A13D205686E6B521E02EB8202934059
:100790009E436E630B790A885B1E92B203EB830360
:1007A0009A4003685D6B2A435A6327E005680D2A67
:1007B00012D22E6BD21F02EB820293409E432E6315
:1007C0000B790A88DB1F92B203EB83039A4003681C
:1007D0001D6B2A431A6311E0EE6A0D3A02EB8202A6
:1007E00093409E43EE620B790A880D3B92B203EB75
:1007F00083039A400368DD6A2A43DA62164B056870
:10080000144A9D4206D10D68122D03D1556845F456
:100810008005556005689D4218D10B68102B01D0EA
:10082000112B13D1536843F4000353600968102956
:100830000CD10A490A4A0968B1FBF2F101EB8101C6
:10084000490000E0491E00910029FBD180F83C409E
:10085000002078BD00230140002001406C000020F2
:1008600040420F00006C70470068C06C704770B564
:1008700004004FF0000503D0206C002610B107E003
:10088000012070BD204600F01DF8666484F83C60CD
:10089000206CC00610D4206C20F4885040F0020078
:1008A00020642046FFF7CAFD6664206C20F0020039
:1008B00040F00100206400E0012584F83C602846F7
:1008C00070BD000010B586B0044614216846FFF7DD
:1008D00042FD1149206888421CD11048002102685D
:1008E00042F480720260006800F4807005900B484A
:1008F0001438026842F002020260006800F0020050
:100900000590012000900320CDE9010169460448CB
:1009100000F0DCFA06B010BD00200140443802406F
:10092000000402402DE9F041044600680D4681684C
:100930004FF0000749050BD58068C00508D5206C2D
:1009400040F02000206484F83C700120BDE8F08174
:1009500000F0BEFB064613E0681C11D025B100F084
:10096000B7FB801BA8420BD920680068800707D41A
:10097000206C40F00400206484F83C700320E5E71C
:10098000206800688007E7D521686FF012000860D2
:10099000206C40F4007020642068816811F0405F92
:1009A00013D1217E89B9C16A11F4700F02D0806819
:1009B00040050AD4206C20F480702064206CC004B0
:1009C00003D4206C40F0010020640020BEE700004A
:1009D00018B50021009190F83C20012A07D001228F
:1009E00080F83C2002689368DB0702D011E0022007
:1009F00018BD936843F0010393602E4A2E4B126892
:100A0000B2FBF3F202EB420200E0521E0092002A17
:100A1000FBD102689368DB0742D0036C40F20164AB
:100A2000A34343F48073036453685B0505D5036CEB
:100A300023F4005343F480530364036CDB0404D5B4
:100A4000436C23F00603436400E0416480F83C10EB
:100A50001A496FF02203136049680068CA061849F2
:100A600006D0884224D1816811F0405F13D01FE086
:100A70008842F8D0134A904203D1D1F80423D20619
:100A8000F1D0114A904213D1D1F8041301F01F01A3
:100A90001029E8D30CE0816841F08041816007E0D3
:100AA000016C41F010010164416C41F001014164AD
:100AB000002018BD6C00002040420F0000230140C0
:100AC0000020014000210140002201402DE9F843AF
:100AD00004464FF00009CDF8009063484FF41651DA
:100AE000A56D0068B0FBF1F72E6894F85C10082043
:100AF00000FA01F131420FD021680A6852070BD584
:100B00000A6822F004020A6094F85C108840A86029
:100B1000606D40F00100606594F85C104FF00108D2
:100B200008FA01F0304208D021684969090604D565
:100B3000A860606D40F00200606594F85C100420CD
:100B40008840304208D021680968890704D5A86028
:100B5000606D40F00400606594F85C1010208840DF
:100B6000304218D021680968090714D5A8602068A8
:100B70000168490304D50068000308D5A16C07E0AB
:100B80000168C90503D4016821F008010160216CE6
:100B900009B12046884794F85C10202088403042F4
:100BA00031D021680968C9062DD5A86094F83500B0
:100BB00005282068016806D0490347D5006800036E
:100BC0001DD4616C1CE021F01601016020684169B0
:100BD00021F080014161206C08B9A06C20B120682F
:100BE000016821F00801016094F85C103F20884002
:100BF000A86084F8358084F83490216D1FE0E16BA3
:100C000009B120468847606D00282BD0606DC00771
:100C100014D0052084F835002068016821F0010116
:100C200001600098401C0090B84203D8206800681A
:100C3000C007F6D184F8358084F83490E16C00293F
:100C400010D001B02046BDE8F04308470168C9054F
:100C5000D5D4016821F01001016084F8358084F852
:100C60003490CCE7BDE8F8836C0000202DE9F0411A
:100C7000044600F02DFA06465CB1022084F83500E7
:100C8000002584F834502068016821F001010160DA
:100C90000DE00120BDE8F08100F01AFA801B052864
:100CA00005D920206065032084F83500F2E720682C
:100CB0000068C007F0D12268116820480140D4E9DB
:100CC00001031843D4E903363343184363691843D7
:100CD000A3691843E3691843236A18430843616A08
:100CE000042903D1D4E90B13194308431060206889
:100CF0004069666A20F0070130460E430127042848
:100D00000CD1A06A0643E06A40B12046FFF74CFCD4
:100D100020B14020606584F83570BAE720684661EC
:100D20002046FFF72DFC94F85C203F219140816024
:100D3000656584F835700020ACE700003F8010F056
:100D40002DE9F0410446866D90F834000025012815
:100D50000DD0012084F8340094F835700020012F64
:100D600007D084F8340002252846BDE8F08102202F
:100D7000FBE7022784F8357060652046FFF73EFCEC
:100D800094F85C103F208840B0602068016841F012
:100D900016010160206C20B12068016841F0080153
:100DA00001602068016841F001010160DCE700009A
:100DB00070B5044600F08CF90546601C02D004486A
:100DC0000078044400F084F9401BA042FAD370BDBF
:100DD000600000202DE9F04186B014216846FFF73D
:100DE000BAFA20480168002939D1012101601E4862
:100DF0000024016841F00101016000684FF480584F
:100E000000F001000C27CDF80080CDE90470032626
:100E100002250396CDE901546946144800F056F8BE
:100E20004FF68070CDE9000502AA694682E8D0003D
:100E30000F4800F04BF84CF23370CDE9000502AAE0
:100E4000694682E8D0000B4800F040F802AA6946E3
:100E500082E8D000CDE90085074800F037F806B0F9
:100E6000BDE8F081580000203838024000140240EC
:100E700000100240000C02400018024010B5082883
:100E800014D10B4C0821204600F018F900280DD190
:100E90006420FFF78DFF0821204600F00FF900289D
:100EA000F9D0BDE810406420FFF782BF10BD0000FC
:100EB00000100240044910B50A68024202D00860DE
:100EC000FFF7DCFF10BD0000143C01402DE9F84F96
:100ED000DFF8BCA10022012503264FF00F090AF11B
:100EE000040BAAF1040E00BF0B6805FA02F42340BC
:100EF000A34270D10F7907F00307012F01D0022F11
:100F000016D187684FEA420806FA08FC27EA0C0760
:100F1000D1F80CC00CFA08FC4CEA070CC0F808C069
:100F20004768A7430C79C4F3001494403C434460E1
:100F30000C79E443A4070AD0C4684FEA420C06FACD
:100F40000CF7BC438F6807FA0CF72743C7600C798E
:100F500004F00304022C12D1D40800EB840CDCF85A
:100F600020405707FF0E09FA07F824EA0804D1F8D1
:100F7000108008FA07F848EA0408CCF820800468D2
:100F80004FEA420C06FA0CF7BC430F7907F003074F
:100F900007FA0CF7274307604C6814F4403F70D001
:100FA0003C4C276847F480472760246822F00307F9
:100FB00004F480440094384C07EB040CDCF8084837
:100FC00097074FEA177809FA08F7BC43334FB8423E
:100FD00002D1002724E054E0314FB84201D101276B
:100FE0001EE0304FB84201D1022719E02E4FB8421F
:100FF00001D1032714E02D4FB84201D104270FE09F
:101000002B4FB84201D105270AE02A4FB84201D13F
:10101000062705E0284FB84201D1072700E008273E
:1010200007FA08F72743CCF80878DAF80040574663
:10103000D1F804C09C435FEACC2C00D51C433C6033
:10104000DBF800405F46D1F804C09C435FEA8C2C7B
:1010500000D51C433C60DEF800407746D1F804C060
:101060009C435FEA8C3C00D51C433C60084F083F22
:101070003C68D1F804C09C435FEACC3C00D51C43DB
:101080003C60521C102AFFF42FAFBDE8F88F00001F
:10109000083C01404438024000300140000002405A
:1010A0000004024000080240000C02400010024010
:1010B0000014024000180240001C02400069084071
:1010C00000D0012070470AB1816170470904FBE735
:1010D0000148806870470000600000200248816875
:1010E0000278114481607047600000200B4810B501
:1010F000016841F400710160016841F480610160A0
:10110000016841F480710160032000F06FF80F2046
:1011100000F006F800F024F8002010BD003C02406A
:1011200070B50D4D04464FF47A712878B1FBF0F09C
:101130000A490968B1FBF0F000F01DFE48B9102C17
:1011400007D200222146501E00F030F800206C60CB
:1011500070BD012070BD0000600000206C00002008
:101160000A4808B5016841F480410160006800F454
:10117000804000900548001F016841F080510160E7
:10118000006800F08050009008BD00004438024024
:10119000002809DB00F01F02012191404009800076
:1011A00000F1E020C0F8001170470000F0B40E4BD1
:1011B0001B680C46C3F30223C3F10705042D00D9B5
:1011C0000425191D072901D2002300E0DB1E01269A
:1011D00006FA05F1491E214099409E40761E1640B0
:1011E0003143F0BC05F0B0BC0CED00E0064900F066
:1011F000070208684FF6FF03184040EA0220034A3E
:1012000010430860704700000CED00E00000FA0594
:101210002DE9F0470E46050065D0DFF81481D8F8B7
:101220000000F7B200F00700B04207D288F8007063
:10123000D8F8000000F00700B04254D128683D4CB7
:10124000810712D5400703D5206840F4E0502060A4
:101250002878000703D5206840F4604020602068AB
:10126000A96820F0F000084320602878C0072DD03E
:10127000304968680839012812D0022813D00328A1
:1012800011D00968890700292DDA216821F00301AE
:1012900001432160FFF71CFF814641F2883A0EE0CE
:1012A00009688903EFE709688901ECE7FFF710FF98
:1012B000A0EB0901514502D90320BDE8F087206861
:1012C000696800F00C00B0EB810FEFD1D8F8001086
:1012D000404601F00701B14207D90770006800F0ED
:1012E0000700B04201D00120E7E72878400705D584
:1012F0002068E96820F4E05008432060287800075F
:1013000006D52068296920F4604040EAC1002060C9
:1013100000F038F82168084AC1F30311515CC84055
:101320000649086006480068FFF7FAFE0020C4E797
:10133000003C02400838024064BA00086C000020FB
:10134000640000200448054900680968044AC1F3A4
:101350008221515CC84070476C0000200838024070
:1013600074BA00080448054900680968044AC1F3D2
:101370004231515CC84070476C0000200838024080
:1013800074BA0008154810B5006810F00C02144833
:1013900013D04110042A0FD0082A0ED10F4C241F5D
:1013A0002268236802F03F025B0207D52068C0F381
:1013B0008810A0FB010106E0084610BD2168C1F3BA
:1013C0008811A1FB00010023FEF74EFF2168C1F345
:1013D0000141491C4900B0FBF1F010BD0838024042
:1013E0000024F4002DE9F84F04006ED02078DFF8D7
:1013F0004C93C007A9F104054AD009F10400016823
:10140000C1F38101012908D00068C0F381000228DE
:101410000AD1D9F80000400206D52868800337D5E4
:1014200060680028E1D033E06068B0F5803F10D0FC
:10143000B0F5A02F286810D020F4803028602868EC
:1014400020F4802028606068A8B1FFF741FE0646BE
:101450000DE0286840F48030F4E740F480202860F4
:10146000F7E700BFFFF734FE801B642873D82868B5
:101470008003F7D50CE0FFF72BFE064605E000BF22
:10148000FFF726FE801B6428F0D828688003F7D475
:101490002078DFF8AC8280074FF0000A3ED5A748DD
:1014A000001D016811F00C0F08D00068C0F3810026
:1014B00002280BD1D9F80000400207D42868800721
:1014C00016D5E068012800D112E033E1E068B8B138
:1014D0000120C8F80000FFF7FBFD064605E000BF4D
:1014E000FFF7F6FD801B0228C0D828688007F7D5D3
:1014F0002868216920F0F80040EAC10028600DE06A
:10150000C8F800A0FFF7E4FD064604E0FFF7E0FDA1
:10151000801B02281FD828688007F7D4207800078E
:1015200022D5864F87486169703771B1012101600A
:10153000FFF7CEFD064604E0FFF7CAFD801B022838
:1015400009D838688007F7D50EE0C0F800A0FFF78B
:10155000BFFD064605E082E0FFF7BAFD801B0228CA
:101560007DD838688007F7D42078400768D5DFF841
:10157000CCB100270BF13C0BDBF80000C0000BD412
:10158000DBF8001041F08051CBF80010DBF80000D0
:10159000012700F0805000906B4E3068C00510D4D9
:1015A000306840F480703060FFF792FD009005E0F5
:1015B000FFF78EFD0099401A022850D83068C00508
:1015C000F6D55E4EA0686C3601280FD0052830682D
:1015D00010D020F001003060306820F0040030604E
:1015E000A068B8B1FFF774FD00900FE0306840F0DC
:1015F0000100F4E740F004003060F7E7FFF768FD12
:101600000099411A41F28830814266D830688007DB
:10161000F4D50EE0FFF75CFD009007E0FFF758FD02
:101620000099411A41F28830814256D830688007CB
:10163000F4D42FB1DBF8001021F08051CBF800106A
:10164000A069C8B33D49091D0968C1F38101022998
:101650004AD00228504607D0C8F8600000E03CE0BD
:10166000FFF736FD04463BE04746C8F86000FFF749
:101670002FFD064605E000BFFFF72AFD801B02286C
:101680002BD828688001F7D4D4E907010843A16A60
:101690002E4A490802EB0141626A41EA821108437D
:1016A00094F82C1040EA0161C9F800100120386656
:1016B000FFF70EFD044606E03EE000BFFFF708FD21
:1016C000001B022809D828688001F7D534E000BF44
:1016D000FFF7FEFC001B022802D90320BDE8F88FAB
:1016E00028688001F4D427E00128F7D0D9F8000059
:1016F000E26900F4800191421CD1226A00F03F01AE
:10170000914217D147F6C071626A0140B1EB821F66
:1017100010D1A26A4FF0FF3300F4403103EB5202C4
:10172000B1EB024F06D194F82C1000F07060B0EBD2
:10173000016F01D00120D1E70020CFE7043802403B
:1017400000004742800E4742007000400000FFFF4B
:1017500070B5040009D0606A002540B1256165615B
:10176000A56294F8510040B10CE0012070BD6068A2
:10177000B0F5827FF4D0E561F2E784F8505020465E
:1017800000F044F8022084F851002068016821F03C
:1017900040010160A088218900F4827001F40441B5
:1017A0000843A18901F400610843217C01F0020192
:1017B0000843217D01F001010843218B01F40071F0
:1017C0000843217F01F03801084394F8201001F00C
:1017D00080010843218D01F400510843216808600D
:1017E000A069042101EA104094F8241001F01001CE
:1017F0000843216848602068C16921F40061C16123
:101800006565012084F85100002070BD10B586B0D8
:10181000044614216846FEF79EFD1349206888425D
:1018200020D112480021026842F480520260006810
:1018300000F4805005900D481438026842F001020F
:101840000260006800F001000590E0200090022096
:10185000CDE9010103200390052004906946044866
:10186000FFF734FB06B010BD0030014044380240A1
:10187000000002402DE9F84F0446406800259846D4
:1018800016460F464FF0040BB0F5827F01D1A068D9
:1018900088B194F85000012818D0012084F8500035
:1018A000FFF716FC814694F851004FF0000A01281A
:1018B0000ED0022582E084F851B013460A46204635
:1018C000CDF8008000F036F9BDE8F88F0220FBE784
:1018D000002F72D0002E70D084F851B0C4F854A0FC
:1018E000A763A687E687C4F830A0A4F834A0A4F8BC
:1018F00036A0C4F840A0C4F844A0A068B0F5004FDA
:1019000009D12068016821F0400101602068016868
:1019100021F48041016020680168490603D4016810
:1019200041F040010160E068D8B139E02068816889
:10193000C90709D0007BA16B0870A06B401CA06395
:10194000E08F401EE0870CE0FFF7C2FBA0EB09012F
:10195000414503D3B8F1FF3F03D036E0B8F1000FA3
:1019600033D0E08F0028E1D11DE020688168C907ED
:1019700009D0C068A16B0880A06B801CA063E08FB9
:10198000401EE0870CE0FFF7A3FBA0EB09014145F7
:1019900003D3B8F1FF3F03D017E0B8F1000F14D024
:1019A000E08F0028E1D14A464146204601F023FD60
:1019B00008B120206065606D00B10125012084F828
:1019C000510084F850A028467EE70325F6E72DE96C
:1019D000F84F044690F8500000271D4616468946E9
:1019E00001280DD04FF0010B84F850B0FFF770FBC9
:1019F000804694F85100BA46012804D0022793E0AB
:101A00000220BDE8F88FB9F1000F73D0002E71D01D
:101A1000032084F85100C4F854A0C4F83090A6867E
:101A2000E686C4F838A0A4F83CA0A4F83EA0C4F808
:101A300044A0C4F840A0A068B0F5004F09D12068C8
:101A4000016821F0400101602068016841F4804193
:101A5000016020680168490603D4016841F0400133
:101A60000160E068B0F5006F606803D030B3012E0C
:101A700024D041E008B1012E1CD1206B21680088E0
:101A8000C86006E020688168890709D5216B09884C
:101A9000C160206B801C2063E08E401EE08609E060
:101AA000FFF716FBA0EB0800A84202D3681C01D088
:101AB00031E07DB3E08E0028E4D120E0206B216886
:101AC0000078087306E020688168890709D5216BD2
:101AD00009780173206B401C2063E08E401EE08675
:101AE0000AE0FFF7F5FAA0EB0800A84203D3681C50
:101AF00002D010E017E06DB1E08E0028E3D142463D
:101B00002946204601F0A6FC08B120206065A068A7
:101B100018B106E0FFE7032706E02068C168806887
:101B20000090606D00B1012784F851B084F850A096
:101B3000384666E72DE9F84F044690F85000002734
:101B40000A9E1D4692468B464FF0010901280ED091
:101B5000012084F85000FFF7BBFA804694F851004A
:101B6000616801280CD0B1F5827F07D102E0022024
:101B7000BDE8F88FA16809B9042801D00227C2E0A6
:101B8000BBF1000F27D0BAF1000F24D01DB394F899
:101B90005100042802D0052084F85100002060651F
:101BA000C4F838A0E587A587C4F830B0E586A586D7
:101BB0002064606420680168490603D4016841F02C
:101BC00040010160E068B0F5006F606805D0E8B3DF
:101BD000012D46D07FE0012795E008B1012D39D1D4
:101BE000206B21680088C860206B801C2063E08E19
:101BF000401EE0862EE02068816889070FD5E18EBF
:101C000069B1B9F1010F0AD1216B0988C160206B5C
:101C1000801C2063E08E401EE0864FF000092068A3
:101C20008168C9070CD0E18F51B1C068A16B0880F1
:101C3000A06B801CA063E08F401EE0874FF001097D
:101C4000FFF746FAA0EB0800B04200E009E001D33C
:101C5000701C50D1E08E0028CDD1E08F0028CAD171
:101C60003FE0206B216800780873206B401C2063E4
:101C7000E08E401EE0862EE02068816889070FD53F
:101C8000E18E69B1B9F1010F0AD1216B09780173B5
:101C9000206B401C2063E08E401EE0864FF0000960
:101CA00020688168C9070CD0E18F51B1C068A16B71
:101CB0000870A06B401CA063E08F401EE0874FF0CF
:101CC0000109FFF705FAA0EB0800B04202D3701C2F
:101CD00001D010E07EB1E08E0028CDD1E08F002849
:101CE000CAD142463146204601F0B4FB28B1012753
:101CF0002020606507E0032705E0A06818B9206888
:101D0000C16880680090012084F85100002084F8A8
:101D1000500038462CE770B515460E46040003D037
:101D200094F8490010B107E0012070BD002084F84C
:101D30004800204600F01DF804F108012068FEF775
:101D400095FC3146A2682068FEF7C4FCD4E9010284
:101D50002946236BFEF76CFC2168A06851F820200F
:101D600042F0010241F82020012084F849000020BF
:101D700070BDFFF72FB810B5401EB0F1807F01D3C2
:101D8000012010BD4FF0E02460610F21601704F0C6
:101D9000DBFE0020A06107202061002010BD7047FD
:101DA0007047000070B590F83C20012A32D0012421
:101DB00080F83C40022280F83D2003685A689D6804
:101DC00022F070060A6832435A60134B02689A4246
:101DD00014D0B2F1804F11D0104B9A420ED0104B5C
:101DE0009A420BD00F4B9A4208D00F4B9A4205D023
:101DF0000E4B9A4202D00E4B9A4204D1496825F00C
:101E000080031943916080F83D40002180F83C1028
:101E1000084670BD022070BD000001400004004073
:101E200000080040000C0040000401400040014058
:101E30000018004010B5040003D094F83D0010B124
:101E400007E0012010BD002084F83C00204600F08F
:101E50001FF8022084F83D00211D206803F060FD7A
:101E6000012084F8460084F83E0084F83F0084F89E
:101E7000400084F8410084F8420084F8430084F86C
:101E8000440084F8450084F83D00002010BD0000A7
:101E900008B501681648B1F1804F0AD0154A914241
:101EA00019D1016841F020010160006800F02000B4
:101EB0001BE0016841F0010101600068002200F0B0
:101EC0000100009011461C20FFF770F9BDE80840A2
:101ED0001C20FFF75DB9084A914207D1016841F41F
:101EE00080710160006800F48070009008BD0000FF
:101EF00040380240001400400020004090F83D109F
:101F0000012901D001207047022180F83D100068AE
:101F10001149884214D0B0F1804F11D00F49884246
:101F20000ED00F4988420BD00E49884208D00E4986
:101F3000884205D00D49884202D00D49884204D11B
:101F4000816801F00701062903D0016841F0010111
:101F500001600020704700000000014000040040C4
:101F600000080040000C0040000401400040014017
:101F70000018004090F83D10012901D00120704761
:101F8000022180F83D100168CA6842F00102CA606F
:101F900000681149884214D0B0F1804F11D00F4928
:101FA00088420ED00E4988420BD00E49884208D094
:101FB0000D49884205D00D49884202D00C4988421B
:101FC00004D1816801F00701062903D0016841F0BE
:101FD0000101016000207047000001400004004042
:101FE00000080040000C0040000401400040014097
:101FF0000018004001680A6A41F211131A4207D121
:102000000A6A9B101A4203D10A6822F001020A6090
:10201000012180F83D100020704770B5044690F80B
:102020003C000025012817D0012684F83C600220DE
:1020300084F83D002068826822F0770222F47F4213
:1020400082600868502838D00DDC20284FD005DC8D
:1020500090B3102811D14AE0022070BD302846D03C
:1020600040280AD13BE060282FD070280DD0B0F571
:10207000805F03D0B0F5005F12D0012584F83D6089
:10208000002084F83C00284670BDCB68D1E90121CE
:10209000206803F0B6FC2068816841F0770109E010
:1020A000CB68D1E90121206803F0ABFC206881688E
:1020B00041F480418160E1E719E0CA68496820681D
:1020C00003F074FD5021206806E0CA684968206862
:1020D00003F07DFD6021206803F09DFCCEE7CA6817
:1020E0004968206803F062FD40212068F4E7226817
:1020F00001461046F0E7704770B504460068016974
:102100004FF00005C943890715D4C168C943890741
:1021100011D4E91E016101202077206880698007C1
:10212000204602D0FFF7E7FF04E000F0D9F8204690
:1021300000F06BF9257720680169C943490717D476
:10214000C168C943490713D46FF00401016102203B
:1021500020772068806910F4407F204602D0FFF786
:10216000CAFF04E000F0BCF8204600F04EF92577E5
:1021700020680169C943090716D4C168C943090722
:1021800012D46FF008010161042020772068C06933
:102190008007204602D0FFF7AEFF04E000F0A0F871
:1021A000204600F032F9257720680169C943C90645
:1021B00017D4C168C943C90613D46FF01001016177
:1021C000082020772068C06910F4407F204602D0A4
:1021D000FFF791FF04E000F083F8204600F015F9C6
:1021E000257720680169C943C90708D1C168C94377
:1021F000C90704D1891E0161204600F06BF92068EF
:102200000169C943090609D4C168C943090605D44F
:102210006FF0800101612046FFF7C1FD2068016970
:10222000C943490609D4C168C943490605D46FF0BA
:1022300040010161204600F04EF920680169C94360
:1022400089060BD4C168C943890607D46FF0200101
:1022500001612046BDE87040FFF7A2BD70BD0000DF
:1022600010B586B0044614216846FEF774F823685A
:10227000002117480222B3F1804F17D0154CA3421A
:1022800012D1036843F020030360006800F02000CF
:10229000059010020090CDE901210920CDE903103D
:1022A00069460D48FEF712FE06B010BD036843F004
:1022B00001030360006800F0010005900120009018
:1022C000CDE90121CDE9031069460448EAE70000A1
:1022D000303802400020004000140240000002405C
:1022E000704770B5044690F83C0000260D46012862
:1022F0000FD0012084F83C006AB1042A1DD0082ABE
:102300002FD00C2A3FD00126002084F83C00304614
:1023100070BD022070BD206803F086FB20688169D3
:1023200041F0080181612068816921F00401816127
:10233000206881692A69114311E0206803F0A4FB39
:102340002068816941F4006181612068816921F41C
:1023500080618161206881692A6941EA0221816185
:10236000D2E7206803F0C6FB2068C16941F008018C
:10237000C1612068C16921F00401C1612068C1699F
:102380002A69114311E0206803F0E8FB2068C16965
:1023900041F40061C1612068C16921F48061C161BB
:1023A0002068C1692A6941EA0221C161ACE710B520
:1023B000040003D094F83D0010B107E0012010BDE7
:1023C000002084F83C00204600F01EF8022084F82B
:1023D0003D00211D206803F0A3FA012084F8460087
:1023E00084F83E0084F83F0084F8400084F84100FF
:1023F00084F8420084F8430084F8440084F84500DF
:1024000084F83D00002010BD7047704710B50446A9
:10241000022249B104290ED0082913D094F84100B2
:10242000012816D0012010BD94F83E000128F9D1F2
:1024300084F83E200FE094F83F000128F2D184F8A0
:102440003F2008E094F840000128EBD184F84020B8
:1024500001E084F841200122206803F0C5FA164902
:102460002068164A884201D0904203D1436C43F45D
:10247000004343642068884213D0B0F1804F10D0ED
:102480000F4988420DD00F4988420AD00E49884230
:1024900007D0904205D00D49884202D00C498842AD
:1024A00004D1816801F00701062903D0016841F0D9
:1024B00001010160002010BD000001400004014046
:1024C0000004004000080040000C004000400140B3
:1024D00000180040704770477047704770B504009F
:1024E00004D094F83D00002510B106E0012070BD35
:1024F00084F83C50204600F023F8242084F83D0066
:102500002068C16821F40051C160204604F0B8F889
:102510002068016921F4904101612068416921F03E
:102520002A0141612068C16841F40051C1602564FD
:10253000202084F83D0084F83E00002070BD00009B
:102540002DE9F04186B0064614216846FDF703FFE9
:102550002C493068884251D12B480024016841F051
:1025600010010160006800F0100005902648143842
:10257000016841F0010101600068694600F0010056
:1025800005904FF4C06000900220CDE901040320C3
:102590000390072004901D48FEF798FC1D4D1C4831
:1025A0004FF000672860C5E901744FF48068C5E901
:1025B00003486C61AC61EC612C6228466C62FEF7EA
:1025C00055FB08B1FEF732F8B563AE63114D104804
:1025D00060357830E5E802074020A5E811010D4894
:1025E00045F814496030AC61EC612C626C62FEF716
:1025F0003DFB08B1FEF71AF87563AE6306B0BDE89F
:10260000F081000000100140443802400000024008
:10261000406402408C12002090F83E30202B0ED1F6
:1026200059B152B190F83C30012B08D0012380F809
:102630003C300023036304F0A9B801207047022056
:102640007047000010B503220549064800F00EF857
:10265000BDE81040032202490248FFF7DDBF000039
:1026600050000020481200207047000070B504465A
:1026700090F83D00202836D191B38AB394F83C00FD
:10268000012830D0012084F83C002162A284E28439
:1026900000252564212084F83D00636B1348D8632E
:1026A000636B13481864636B1248D864606B1346FD
:1026B00005652668606B321DFEF742FB21686FF0EE
:1026C0004000086084F83C502068143050E8001F37
:1026D00041F0800140E80012002AF5D1002070BDD1
:1026E000FFE70120FBE70220F9E70000CB650008C7
:1026F0000D660008E564000870477047FEE70000BB
:1027000070B50B490646002408884D88214645438C
:10271000204600F0D3FA00F04BFCB0B24FF0D841A5
:1027200003E000BFA1F88000641CAC42FAD370BD86
:10273000701000202DE9F04F33492C240A4688718F
:102740002A2592882B2645F2105B4FF4305E4FF419
:1027500048774FF0F00949F2413A4FF4A07845F23A
:10276000103C4FF4F07358B1A1F80080A1F802902A
:10277000524501D0624529D10C814D818E8139E0CD
:10278000A1F80090A1F80280524501D0624508D11D
:102790000C814D818E81624531D1A1F800804B8042
:1027A0002DE05A4508D1A1F808E04FF4285048819F
:1027B0004FF42C50888106E0A2F5C85063381ED132
:1027C0000C814E818D810B804F8018E05A4508D1D5
:1027D000A1F808E04FF4285048814FF42C5088812C
:1027E00006E0A2F5C850633804D10C814D818E817A
:1027F0000F804B80624502D10B80A1F80280BDE8BA
:10280000F04F002000F07EB9701000202DE9FE4F3F
:10281000161ACDE900104FF000085D1A47464FF038
:10282000FF30002E02DD4FF0010102E003D14FF036
:1028300000018B4602E08346C6F10006002D02DD52
:102840004FF0010002E003D14FF00000824602E0A9
:102850008246C5F10005AE4201DD344600E02C465B
:10286000601C4FF00009029018E0009881B20198B6
:1028700080B200F019F8B0442F44A04504DD01985F
:10288000A8EB040858440190A74203DD00983F1BC1
:102890005044009009F101001FFA80F9029989451E
:1028A000E3DDBDE8FE8F000000B500F007FA00F0A0
:1028B0007FFB03484FF0D8410088A1F8800000BD9D
:1028C000040000202DE9FC4F80460025144603201B
:1028D0000F46A0EB440649E0381B81B208EB050A1D
:1028E00001901FFA8AF0FFF7DFFF781B81B208EB37
:1028F000040900901FFA89F0FFF7D6FF07EB050BDC
:102900001FFA8BF11FFA89F0FFF7CEFF07EB0409DE
:102910001FFA89F11FFA8AF0FFF7C6FFA8EB050A34
:102920001FFA89F11FFA8AF0FFF7BEFFA8EB04092E
:102930001FFA8BF11FFA89F0FFF7B6FF019881B2F9
:102940001FFA8AF0FFF7B0FF009881B21FFA89F0F2
:10295000FFF7AAFF6D1C002E03DA06EB8506B61DF5
:1029600004E0281B06EB8006641E0A36A542B3DD90
:10297000BDE8FC8F2DE9F043444C91460246A08807
:1029800023460D464FEA1128160A5B89A0F513412C
:10299000413917D0A0F5A641103913D0A0F5AA41AE
:1029A000103914D02646A0F5C857B1793688B61A22
:1029B000761E633F25D0A0F5D047043F3DD00129C6
:1029C00051D051E0184600F0E6FA30463CE0184697
:1029D00000F0E1FA304600F0D2FA6089401C80B283
:1029E00000F0D9FAD0B200F0CAFAA08900F0D3FA08
:1029F000404600F0C4FAA089401C80B200F0CBFA37
:102A00002DE001B9B2B2184600F0C5FA160A3046F8
:102A100000F0B5FAD0B200F0B2FA304600F0AFFAEA
:102A2000D0B200F0ACFAA08900F0B5FA404600F050
:102A3000A6FAE8B200F0A3FA0EE0012900D1B2B282
:102A4000184600F0A8FA100A00F099FAD0B200F087
:102A500096FAA08900F09FFA404600F090FAE8B29A
:102A600000F08DFA08E0B2B21146184600F0AAFA5A
:102A7000A089294600F0A6FA4FF0D840218920F815
:102A80007E1FA0F80290BDE8F083000070100020C7
:102A90000246012000E05043491EC9B2FBD27047F4
:102AA00008B54FF0D840B0F88000ADF80000BDF890
:102AB000000008BD10B50246BE2000F06CFA0520EB
:102AC00000F05DFA104604F064F99FED0C1B53EC26
:102AD000112B04F0ADF904F02FF980B200F04FFA99
:102AE000012000F04CFAFF2000F049FA002000F02D
:102AF00046FABDE81040002000F041BA66666666FE
:102B000066660440F0B56C4C00232146A2798988A2
:102B100041F66316012A01D01AB11BE0B14202D17D
:102B200018E0B14216D1082814D2DFE800F00406FC
:102B3000080A0C0E101206200CE007200AE0042000
:102B400008E0052006E0012004E0002002E0032068
:102B500000E00220A1F5134745F2103245F210556E
:102B6000413F05D0914203D0A94201D0B14277D173
:102B7000082812D2DFE800F0110406080A0C0E1033
:102B800080230AE0402308E0C02306E0202304E07D
:102B9000602302E0A02300E0E023A94202D14FF429
:102BA000585000E03620914205D0A94203D0B142EE
:102BB00001D043F00803194600F004FAA188B1429D
:102BC0000AD098062088628802D5904202D303E09A
:102BD000904201D9228060806089A94241D100F0F1
:102BE000DAF9002000F0CBF96089401C80B200F0D7
:102BF000D2F9002000F0C3F96089801C80B200F097
:102C0000CAF92088401EC0F30F2000F0B8F960898F
:102C1000C01C80B200F0BFF92078401EC0B200F0A6
:102C2000AEF9A08900F0B7F9002000F0A8F9A0895A
:102C3000401C80B200F0AFF9002000F0A0F9A0899C
:102C4000801C80B200F0A7F96088401EC0F30F20FE
:102C500000F095F9A089C01C80B200F09CF922E038
:102C600028E000F098F9002000F089F9002000F039
:102C700086F92088401EC0F30F2000F080F92078EC
:102C8000401EC0B200F07BF9A08900F084F900205A
:102C900000F075F9002000F072F96088401EC0F362
:102CA0000F2000F06CF9A078BDE8F040401EC0B2E3
:102CB00000F065B9F0BD000070100020F0B53F4A8B
:102CC0000D460446060A918810462F0A4089A1F550
:102CD0001343413B28D0A1F5A643103B24D0A1F5D6
:102CE000C853633B2FD0A1F5AA43103B64D100F039
:102CF00052F9304600F043F95089401C80B200F090
:102D00004AF9E0B200F03BF9908900F044F9384606
:102D100000F035F99089401C80B200F03CF9E8B22F
:102D2000BDE8F04000F02BB900F035F9304600F076
:102D300026F9E0B200F023F9908900F02CF938462A
:102D400000F01DF9EBE7917929B300F024F9304642
:102D500000F015F9E0B200F012F91088401EC0F33F
:102D60000F2000F00CF91078401EC0B200F007F9F7
:102D7000908900F010F9384600F001F9E8B200F04F
:102D8000FEF85088401EC0F30F2000F0F8F890784D
:102D9000401EC0B2C4E71188091B491E8CB200F066
:102DA000FAF8002000F0EBF8002000F0E8F8200A24
:102DB00000F0E5F8E0B2D9E7F0BD000070100020A7
:102DC0002DE9FF4F1D460C468A46580700D00120CA
:102DD00000EBD500690810FB01F0203A00F0FF0974
:102DE000D0B20026DFF8A4B002904BE00C2D11D039
:102DF000102D14D0182D17D0202D45D1244902981C
:102E000001EBC0104FF00008875D380613D521484C
:102E1000026814E00298204900EB400008E01F49D6
:102E2000029801EB0010EDE702981D4900EBC0008D
:102E300001EB8000E6E70D9828B916484268214664
:102E40000098FFF797FD7806070E641CBBF8020098
:102E5000A4B2A04218D9A4EB0A00A84209D1009854
:102E60005446401C80B20090BBF8001081420BD940
:102E700006E008F1010000F0FF08B8F1080FC4D324
:102E8000761CF6B24E45B1D3BDE8FF8F701000201E
:102E9000DC8A0008040000201C73000890770008FA
:102EA000807D00082DE9F84F044600F0FF09101955
:102EB0000D46DDE90AB61FFA80F8581987B24FF0BF
:102EC000000A12E0444503D305EB0B004C4685B2E3
:102ED000BD420FD25B4629462046CDF800A0FFF741
:102EE0006FFF04EB5B0084B2761C3278A2F1200005
:102EF0005E28E7D9BDE8F88F2DE9FF4F81B04FF08C
:102F00000008DDE90EBA1E46814644460AF0010576
:102F10004FEA5B072CE0301B401EC1B20A20FFF7CE
:102F2000B7FD0399B1FBF0F00A21B0FBF1F201FB10
:102F30001200B8F1000F05D1711E8C4202DA48B1BF
:102F40004FF001083030C2B207FB049080B25B46FC
:102F5000009508E05FEA0A6007FB049080B25B46D8
:102F600000950AD530220299FFF72AFF641CE4B2CB
:102F7000B442D0D305B0BDE8F08F2022F3E701B50D
:102F8000BDF80000ADF80000BDF800004FF0D841DA
:102F9000A1F8800008BD01B5BDF80000ADF8000043
:102FA000BDF800004FF0D841A1F87E0008BD000038
:102FB00003484FF0D8410089A1F87E007047000017
:102FC000701000204FF0D84222F87E0F51807047D9
:102FD0007FB500241548009401940294124903948B
:102FE00001604FF48031C0E901140461047680F877
:102FF00020400F49C0E90A140125C561C46080F86A
:1030000030404561FDF733FC08B1FDF70FFB0820A8
:10301000CDE90005694602940448FDF77DFB0028D0
:1030200001D0FDF703FB7FBD002001408010002090
:103030000100000F0D4808B5016841F480010160EE
:103040000068002200F48000009011463A20FEF74C
:10305000ADF83A20FEF79CF8002211464620FEF714
:10306000A5F8BDE808404620FEF792B83038024087
:1030700010B58EB01C216846FDF76DF91C2107A81C
:10308000FDF769F91A484FF02041102201601949F3
:103090004160062181600021C160C0E904128161A4
:1030A000C16113020162C0E909139302C0E90B1365
:1030B0004163816341640F203C230090CDE901030B
:1030C00003AC112384E80E0009240691CDE90740E2
:1030D00009AC082084E80F000D9107AA694604484E
:1030E000FEF719FE002801D0FDF7A0FA0EB010BDC2
:1030F000C8100020040100A02DE9F04387B014217E
:103100006846FDF728F944480024016841F01001A1
:103110000160016801F010010591016841F00401AE
:103120000160016801F004010591016841F020018E
:103130000160016801F020010591016841F0800102
:103140000160016801F080010591016841F0010111
:103150000160016801F001010591016841F002017F
:103160000160016801F002010591016841F0080168
:103170000160016801F008010591016841F040011A
:1031800001600068DFF8948000F040004FF4806533
:103190000590002229464046FDF795FF0122DFF801
:1031A0008090960331464846FDF78DFF48F20807A8
:1031B000002239464846FDF786FF082000904FF46C
:1031C0008810CDE9010469461648FDF77FFE009599
:1031D0000125CDE90154694640460394FDF776FE8A
:1031E0000220CDE90250CDE9006569464846FDF769
:1031F0006DFE0097CDE90154694648460394FDF7FA
:1032000065FE002211460920FDF7D0FF0920FDF7D9
:10321000BFFF07B0BDE8F083303802400014024021
:103220000004024000100240104810B50E49016031
:103230004FF482714160002102228160C0E90312D3
:10324000012242615202C0E90621016241628162AB
:103250000A21C162FEF77CFA002803D0BDE81040C5
:10326000FDF7E4B910BD0000003001401811002046
:1032700010B588B01C216846FDF76DF81548144953
:10328000002401605321C0E9011440F2E731C0E994
:1032900003148461FEF7CEFD08B1FDF7C7F90D48B0
:1032A000FFF785F808B1FDF7C1F96020CDE900040A
:1032B00002940022694607480494FFF712F808B107
:1032C000FDF7B4F90348FEF7CBFF08B010BD0000CE
:1032D000002000400012002010B58EB0002407949A
:1032E000089409940A940B941C2168460C94FDF7E9
:1032F00032F81E484FF0804101605321C0E90114AB
:103300001B49C0E903148461FEF794FD08B1FDF781
:103310008DF94FF48050079007A91448FEF77DFE01
:1033200008B1FDF783F91148FFF741F808B1FDF73F
:103330007DF90B940BA90D480C94FEF733FD08B1F1
:10334000FDF774F96020CDE900040220029000220C
:10335000694604940548FEF7C4FF08B1FDF766F915
:103360000248FEF77DFF0EB010BD00007011002076
:103370001FA107001CB500240E4800940C490194BD
:1033800001605321C0E9011401218461C160FEF78D
:1033900051FD08B1FDF74AF90094694605480194CA
:1033A000FEF700FD002801D0FDF740F91CBD00002C
:1033B00000140040B81100200C4810B50A49016003
:1033C0004FF4E1314160002181600C22C160C0E90D
:1033D00004128161C161FFF781F8002803D0BDE8C4
:1033E0001040FDF723B910BD001001404812002025
:1033F000FEE7FEE77047F8B5044640684FF4827375
:10340000984221D1A0684FF48065B0F5004F01D0FB
:10341000A8420AD12068066826F040060660606867
:10342000984211D1A068A8420ED000920B4600220B
:103430008021204600F03AF8002804D0606D40F06A
:10344000200060650320F8BD00920B460022012198
:10345000EFE7000038B504461248134B0068B0FB94
:10346000F3F04FF47A73584300906068B0F5827FB0
:103470000DD10B46009200228021204600F016F864
:1034800070B1606D40F020006065032038BD009889
:1034900030B1401E009020688068C0430006F6D519
:1034A000002038BD6C00002000366E012DE9F84385
:1034B0001E46914688460446089DFDF709FE401BBE
:1034C000351AFDF705FE074625480068C0F3CB30E6
:1034D000684338E0701C37D0FDF7FAFDC01BA842E6
:1034E00003D215B1009860B32CE02068416821F048
:1034F000E00141606068B0F5827F0BD1A068B0F553
:10350000004F02D0B0F5806F04D12068016821F02F
:1035100040010160A06AB0F5005F09D12068016830
:1035200021F4005101602068016841F400510160FC
:10353000012084F85100002084F850000320BDE8E9
:10354000F8830025401E00902068816838EA010059
:1035500004D000214945BDD10020F0E70121F9E761
:103560006C0000207047FDF7B9BD000030B593B086
:1035700030216846FCF7EFFE14210CA8FCF7EBFEA7
:103580001D480025016841F080510160006800F08D
:10359000805011901948016841F480410160006831
:1035A000022400F48040119001200090000401905A
:1035B0008001CDE9064008AA0420A82182E8130072
:1035C0000B906846FDF70EFF08B172B6FEE70CA936
:1035D0000F2081E831004FF4A0500F904FF480503D
:1035E000109005210CA8FDF713FE002801D072B63B
:1035F000FEE713B030BD00004038024000700040CC
:103600000248016841F470010160704788ED00E0F4
:103610002DE9F05F3220FDF7CBFBD320FFF7BBFC99
:10362000FFF73EFAFE4CA080FFF73AFAA080FFF7C2
:1036300037FA4FF6FF7909EA0020A080FFF730FA49
:10364000A18849F241360843A08045F2103745F27F
:10365000105541F66318B04247D0D420FFF79BFCC9
:10366000FFF71EFAA080FFF71BFAA080FFF718FAF9
:1036700009EA00204A46A080FFF712FAA188084311
:10368000A080B84231D04FF45A40FFF784FCFFF7D6
:1036900007FAA0804FF45B40FFF77DFCFFF700FACC
:1036A00002EA0020A0804FF45C40FFF774FCFFF7B3
:1036B000F7F9A1880843A080B0F5004F7DD0A8425B
:1036C00013D0A120FFF767FCFFF7EAF9A080FFF70E
:1036D000E7F902EA0020A080FFF7E2F9A188084399
:1036E000A0F5AE41A080613968D080B2B04266D109
:1036F000CF20FFF750FC0020FFF741FCC120FFF76F
:103700003EFC3020FFF73BFCED20FFF744FC64203B
:10371000FFF735FC0320FFF732FC1220FFF72FFCE8
:103720008120FFF72CFCE820FFF735FC8520FFF710
:1037300026FC1020FFF723FC7A20FFF720FCCB208B
:10374000FFF729FC3920FFF71AFC2C20FFF717FCA4
:103750000020FFF714FC3420FFF711FC0220FFF7D4
:103760000EFCF720FFF717FC2020FFF708FCEA20EB
:10377000FFF711FC0020FFF702FC0020FFF7FFFB22
:10378000C020FFF708FC1B20FFF7F9FBC120FFF763
:1037900002FC0120FFF7F3FBC520FFF7FCFB302004
:1037A000FFF7EDFB3020FFF7EAFBC720FFF7F3FB45
:1037B000B720FFF7E4FB362002E0B5E0B0E0B5E06B
:1037C000FFF7E9FB4820FFF7DAFB3A20FFF7E3FBBE
:1037D0005520FFF7D4FBB120FFF7DDFB0020FFF7FA
:1037E000CEFB1A20FFF7CBFBB620FFF7D4FB0A2055
:1037F000FFF7C5FBA220FFF7C2FBF220FFF7CBFBD0
:103800000020FFF7BCFB2620FFF7C5FB0120FFF7D8
:10381000B6FBE020FFF7BFFB0F20FFF7B0FB2A202D
:10382000FFF7ADFB2820FFF7AAFB0820FFF7A7FB57
:103830000E20FFF7A4FB0820FFF7A1FB5420FFF7A1
:103840009EFBA920FFF79BFB4320FFF798FB0A2074
:10385000FFF795FB0F20FFF792FB0020FFF78FFB90
:103860000020FFF78CFB0020FFF789FB0020FFF70B
:1038700086FBE120FFF78FFB0020FFF780FB152080
:10388000FFF77DFB1720FFF77AFB0720FFF777FB99
:103890001120FFF774FB0620FFF771FB2B20FFF7C9
:1038A0006EFB5620FFF76BFB3C20FFF768FB052003
:1038B000FFF765FB1020FFF762FB0F20FFF75FFBB0
:1038C0003F20FFF75CFB3F20FFF759FB0F20FFF77E
:1038D00056FB2B20FFF75FFB0020FFF750FB00207B
:1038E000FFF74DFB0120FFF74AFB3F20FFF747FBA7
:1038F0002A20FFF750FB0020FFF741FB0020FFF7D5
:103900003EFB0020FFF73BFBEF20FFF738FB1120C9
:10391000FFF741FB7820FDF74BFA292001F009BFA2
:10392000A4F8048001F00ABFA580FDE3B84276D177
:10393000ED20FFF730FB0120FFF721FBFE20FFF712
:103940001EFBEE20FFF727FBDE20FFF718FB2120F0
:10395000FFF715FBF120FFF71EFB0120FFF70FFB20
:10396000DF20FFF718FB1020FFF709FBC420FFF74B
:1039700012FB8F20FFF703FBC620FFF70CFB002094
:10398000FFF7FDFAE220FFF7FAFAE220FFF7F7FA75
:10399000E220FFF7F4FABF20FFF7FDFAAA20FFF7B5
:1039A000EEFAB020FFF7F7FA0D20FFF7E8FA002053
:1039B000FFF7E5FA0D20FFF7E2FA0020FFF7DFFA44
:1039C0001120FFF7DCFA0020FFF7D9FA1920FFF7E2
:1039D000D6FA0020FFF7D3FA2120FFF7D0FA002013
:1039E000FFF7CDFA2D20FFF7CAFA0020FFF7C7FA3C
:1039F0003D20FFF7C4FA0020FFF7C1FA5D20FFF772
:103A0000BEFA0020FFF7BBFA5D20FFF7B8FA0020EE
:103A1000FFF7B5FAB120FFF7BEFA802002E0FDE320
:103A200070100020FFF7ABFA0020FFF7A8FA8B20F8
:103A3000FFF7A5FA0020FFF7A2FA9620FFF79FFAFA
:103A40000020FFF79CFAB220FFF7A5FA0020FFF74D
:103A500096FA0020FFF793FA0220FFF790FA002071
:103A6000FFF78DFA0320FFF78AFA0020FFF787FAA5
:103A7000B320FFF790FA0020FFF781FA0020FFF74C
:103A80007EFA0020FFF77BFA0020FFF778FA00208B
:103A9000FFF775FA0020FFF772FA0020FFF76FFAC0
:103AA0000020FFF76CFA0020FFF769FA0020FFF70B
:103AB00066FA0020FFF763FA0020FFF760FA0020A3
:103AC000FFF75DFA0020FFF75AFA0020FFF757FAD8
:103AD0000020FFF754FA0020FFF751FA0020FFF70B
:103AE0004EFA0020FFF74BFA0020FFF748FA0020BB
:103AF000FFF745FA0020FFF742FA0020FFF73FFAF0
:103B00000020FFF73CFAB420FFF745FA8B20FFF7BF
:103B100036FA0020FFF733FA9620FFF730FA00203C
:103B2000FFF72DFAA120FFF72AFA0020FFF727FA66
:103B3000B520FFF730FA0220FFF721FA0020FFF747
:103B40001EFA0320FFF71BFA0020FFF718FA0420E3
:103B5000FFF715FA0020FFF712FAB620FFF71BFA5D
:103B60000020FFF70CFA0020FFF709FAB720FFF753
:103B700012FA0020FFF703FA0020FFF700FA3F20B7
:103B8000FFF7FDF90020FFF7FAF95E20FFF7F7F9DC
:103B90000020FFF7F4F96420FFF7F1F90020FFF7A8
:103BA000EEF98C20FFF7EBF90020FFF7E8F9AC20E5
:103BB000FFF7E5F90020FFF7E2F9DC20FFF7DFF976
:103BC0000020FFF7DCF97020FFF7D9F90020FFF79C
:103BD000D6F99020FFF7D3F90020FFF7D0F9EB20BA
:103BE000FFF7CDF90020FFF7CAF9DC20FFF7C7F98E
:103BF0000020FFF7C4F9B820FFF7CDF90020FFF748
:103C0000BEF90020FFF7BBF90020FFF7B8F900204C
:103C1000FFF7B5F90020FFF7B2F90020FFF7AFF981
:103C20000020FFF7ACF90020FFF7A9F9BA20FFF751
:103C3000B2F92420FFF7A3F90020FFF7A0F9002034
:103C4000FFF79DF90020FFF79AF9C120FFF7A3F9CC
:103C50002020FFF794F90020FFF791F95420FFF797
:103C60008EF90020FFF78BF9FF20FFF788F900207D
:103C7000FFF785F9C220FFF78EF90A20FFF77FF9D9
:103C80000020FFF77CF90420FFF779F90020FFF707
:103C900076F9C320FFF77FF93C20FFF770F9002089
:103CA000FFF76DF93A20FFF76AF90020FFF767F98F
:103CB0003920FFF764F90020FFF761F93720FFF79B
:103CC0005EF90020FFF75BF93C20FFF758F9002070
:103CD000FFF755F93620FFF752F90020FFF74FF9AB
:103CE0003220FFF74CF90020FFF749F92F20FFF7AA
:103CF00046F90020FFF743F92C20FFF740F9002098
:103D0000FFF73DF92920FFF73AF90020FFF737F9CF
:103D10002620FFF734F90020FFF731F92420FFF7C0
:103D20002EF90020FFF72BF92420FFF728F90020B7
:103D3000FFF725F92320FFF722F90020FFF71FF9ED
:103D40003C20FFF71CF90020FFF719F93620FFF798
:103D500016F90020FFF713F93220FFF710F90020C1
:103D6000FFF70DF92F20FFF70AF90020FFF707F9F9
:103D70002C20FFF704F90020FFF701F92920FFF7B5
:103D8000FEF80020FFF7FBF82620FFF7F8F80020E8
:103D9000FFF7F5F82420FFF7F2F80020FFF7EFF81F
:103DA0002420FFF7ECF80020FFF7E9F82320FFF7C5
:103DB000E6F80020FFF7E3F8C420FFF7ECF86220F4
:103DC000FFF7DDF80020FFF7DAF80520FFF7D7F856
:103DD0000020FFF7D4F88420FFF7D1F80020FFF788
:103DE000CEF8F020FFF7CBF80020FFF7C8F8182036
:103DF000FFF7C5F80020FFF7C2F8A420FFF7BFF8CF
:103E00000020FFF7BCF81820FFF7B9F80020FFF7F3
:103E1000B6F85020FFF7B3F80020FFF7B0F80C20F9
:103E2000FFF7ADF80020FFF7AAF81720FFF7A7F873
:103E30000020FFF7A4F89520FFF7A1F80020FFF776
:103E40009EF8F320FFF79BF80020FFF798F8E62094
:103E5000FFF795F80020FFF792F8C520FFF79BF8D1
:103E60003220FFF78CF80020FFF789F84420FFF795
:103E700086F80020FFF783F86520FFF780F8002020
:103E8000FFF77DF87620FFF77AF80020FFF777F844
:103E90008820FFF774F80020FFF771F8C620FFF7BD
:103EA0007AF82020FFF76BF80020FFF768F817205A
:103EB000FFF765F80020FFF762F80120FFF75FF8D1
:103EC0000020FFF75CF8C720FFF765F80020FFF738
:103ED00056F80020FFF753F80020FFF750F80020B5
:103EE000FFF74DF8C820FFF756F80020FFF747F816
:103EF0000020FFF744F80020FFF741F80020FFF70B
:103F00003EF8C920FFF747F80020FFF738F80020F7
:103F1000FFF735F80020FFF732F80020FFF72FF801
:103F20000020FFF72CF80020FFF729F80020FFF70A
:103F300026F80020FFF723F80020FFF720F80020E4
:103F4000FFF71DF80020FFF71AF80020FFF717F819
:103F50000020FFF714F80020FFF711F80020FFF70A
:103F60000EF80020FFF70BF8E020FFF714F81620FA
:103F7000FFF705F80020FFF702F81C20FEF7FFFF0F
:103F80000020FEF7FCFF2120FEF7F9FF0020FEF7DE
:103F9000F6FF3620FEF7F3FF0020FEF7F0FF462085
:103FA000FEF7EDFF0020FEF7EAFF5220FEF7E7FFE5
:103FB0000020FEF7E4FF6420FEF7E1FF0020FEF79B
:103FC000DEFF7A20FEF7DBFF0020FEF7D8FF8B2014
:103FD000FEF7D5FF0020FEF7D2FF9920FEF7CFFFB6
:103FE0000020FEF7CCFFA820FEF7C9FF0020FEF757
:103FF000C6FFB920FEF7C3FF0020FEF7C0FFC420B4
:10400000FEF7BDFF0020FEF7BAFFCA20FEF7B7FF9C
:104010000020FEF7B4FFD220FEF7B1FF0020FEF72C
:10402000AEFFD920FEF7ABFF0020FEF7A8FFE0208F
:10403000FEF7A5FF0020FEF7A2FFF320FEF79FFF8B
:104040000020FEF79CFFE120FEF7A5FF1620FEF7FB
:1040500096FF0020FEF793FF1C20FEF790FF002044
:10406000FEF78DFF2220FEF78AFF0020FEF787FF74
:104070003620FEF784FF0020FEF781FF4520FEF783
:104080007EFF0020FEF77BFF5220FEF778FF002026
:10409000FEF775FF6420FEF772FF0020FEF76FFF4A
:1040A0007A20FEF76CFF0020FEF769FF8B20FEF7F9
:1040B00066FF0020FEF763FF9920FEF760FF0020F7
:1040C000FEF75DFFA820FEF75AFF0020FEF757FF1E
:1040D000B920FEF754FF0020FEF751FFC420FEF781
:1040E0004EFF0020FEF74BFFCA20FEF748FF0020DE
:1040F000FEF745FFD220FEF742FF0020FEF73FFF0C
:10410000D820FEF73CFF0020FEF739FFE020FEF745
:1041100036FF0020FEF733FFF320FEF730FF0020CC
:10412000FEF72DFFE22000E082E3FEF734FF0520DA
:10413000FEF725FF0020FEF722FF0B20FEF71FFFF2
:104140000020FEF71CFF1B20FEF719FF0020FEF7E2
:1041500016FF3420FEF713FF0020FEF710FF442067
:10416000FEF70DFF0020FEF70AFF4F20FEF707FFC6
:104170000020FEF704FF6120FEF701FF0020FEF79C
:10418000FEFE7920FEF7FBFE0020FEF7F8FE8820F9
:10419000FEF7F5FE0020FEF7F2FE9720FEF7EFFE99
:1041A0000020FEF7ECFEA620FEF7E9FE0020FEF759
:1041B000E6FEB720FEF7E3FE0020FEF7E0FEC22099
:1041C000FEF7DDFE0020FEF7DAFEC720FEF7D7FE81
:1041D0000020FEF7D4FED120FEF7D1FE0020FEF72E
:1041E000CEFED620FEF7CBFE0020FEF7C8FEDD2077
:1041F000FEF7C5FE0020FEF7C2FEF320FEF7BFFE6D
:104200000020FEF7BCFEE320FEF7C5FE0520FEF70A
:10421000B6FE0020FEF7B3FE0A2000E006E3FEF73C
:10422000AEFE0020FEF7ABFE1C20FEF7A8FE00202D
:10423000FEF7A5FE3320FEF7A2FE0020FEF79FFE4C
:104240004420FEF79CFE0020FEF799FE5020FEF76A
:1042500096FE0020FEF793FE6220FEF790FE0020FF
:10426000FEF78DFE7820FEF78AFE0020FEF787FE1F
:104270008820FEF784FE0020FEF781FE9720FEF7DF
:104280007EFE0020FEF77BFEA620FEF778FE0020D3
:10429000FEF775FEB720FEF772FE0020FEF76FFEF8
:1042A000C220FEF76CFE0020FEF769FEC720FEF775
:1042B00066FE0020FEF763FED120FEF760FE0020C0
:1042C000FEF75DFED520FEF75AFE0020FEF757FEF2
:1042D000DD20FEF754FE0020FEF751FEF320FEF72E
:1042E0004EFE0020FEF74BFEE420FEF754FE0120B8
:1042F000FEF745FE0020FEF742FE0120FEF73FFEDE
:104300000020FEF73CFE0220FEF739FE0020FEF7FB
:1043100036FE2A20FEF733FE0020FEF730FE3C205A
:10432000FEF72DFE0020FEF72AFE4B20FEF727FEAB
:104330000020FEF724FE5D20FEF721FE0020FEF7A0
:104340001EFE7420FEF71BFE0020FEF718FE8420E0
:10435000FEF715FE0020FEF712FE9320FEF70FFE7B
:104360000020FEF70CFEA220FEF709FE0020FEF75B
:1043700006FEB320FEF703FE0020FEF700FEBE207F
:10438000FEF7FDFD0020FEF7FAFDC420FEF7F7FD65
:104390000020FEF7F4FDCD20FEF7F1FD0020FEF732
:1043A000EEFDD320FEF7EBFD0020FEF7E8FDDD205B
:1043B000FEF7E5FD0020FEF7E2FDF320FEF7DFFD4E
:1043C0000020FEF7DCFDE520FEF7E5FD0020FEF70E
:1043D000D6FD0020FEF7D3FD0020FEF7D0FD002023
:1043E000FEF7CDFD0220FEF7CAFD0020FEF7C7FD57
:1043F0002920FEF7C4FD0020FEF7C1FD3C20FEF79A
:10440000BEFD0020FEF7BBFD4B20FEF7B8FD0020EF
:10441000FEF7B5FD5D20FEF7B2FD0020FEF7AFFD13
:104420007420FEF7ACFD0020FEF7A9FD8420FEF706
:10443000A6FD0020FEF7A3FD9320FEF7A0FD0020BF
:10444000FEF79DFDA220FEF79AFD0020FEF797FDE6
:10445000B320FEF794FD0020FEF791FDBE20FEF78D
:104460008EFD0020FEF78BFDC420FEF788FD0020A6
:10447000FEF785FDCD20FEF782FD0020FEF77FFDD3
:10448000D320FEF77CFD0020FEF779FDDC20FEF74F
:1044900076FD0020FEF773FDF320FEF770FD00208F
:1044A000FEF76DFDE620FEF776FD1120FEF767FDB5
:1044B0000020FEF764FD3420FEF761FD0020FEF7CA
:1044C0005EFD5620FEF75BFD0020FEF758FD7620CE
:1044D000FEF755FD0020FEF752FD7720FEF74FFD59
:1044E0000020FEF74CFD6620FEF749FD0020FEF798
:1044F00046FD8820FEF743FD0020FEF740FD992091
:10450000FEF73DFD0020FEF73AFDBB20FEF737FD2C
:104510000020FEF734FD9920FEF731FD0020FEF764
:104520002EFD6620FEF72BFD0020FEF728FD55200E
:10453000FEF725FD0020FEF722FD5520FEF71FFDAA
:104540000020FEF71CFD4520FEF719FD0020FEF7B8
:1045500016FD4320FEF713FD0020FEF710FD44205A
:10456000FEF70DFD0020FEF70AFDE720FEF713FD24
:104570003220FEF704FD0020FEF701FD5520FEF776
:10458000FEFC0020FEF7FBFC7620FEF7F8FC002086
:10459000FEF7F5FC6620FEF7F2FC0020FEF7EFFCCC
:1045A0006720FEF7ECFC0020FEF7E9FC6720FEF731
:1045B000E6FC0020FEF7E3FC8720FEF7E0FC00208D
:1045C000FEF7DDFC9920FEF7DAFC0020FEF7D7FCB1
:1045D000BB20FEF7D4FC0020FEF7D1FC9920FEF7AB
:1045E000CEFC0020FEF7CBFC7720FEF7C8FC0020B5
:1045F000FEF7C5FC4420FEF7C2FC0020FEF7BFFC1E
:104600005620FEF7BCFC0020FEF7B9FC2320FEF785
:10461000B6FC0020FEF7B3FC3320FEF7B0FC002010
:10462000FEF7ADFC4520FEF7AAFC0020FEF7A7FC34
:10463000E820FEF7B0FC0020FEF7A1FC0020FEF70A
:104640009EFC9920FEF79BFC0020FEF798FC87203B
:10465000FEF795FC0020FEF792FC8820FEF78FFC09
:104660000020FEF78CFC7720FEF789FC0020FEF787
:1046700086FC6620FEF783FC0020FEF780FC882085
:10468000FEF77DFC0020FEF77AFCAA20FEF777FCFF
:104690000020FEF774FCBB20FEF771FC0020FEF743
:1046A0006EFC9920FEF76BFC0020FEF768FC66208C
:1046B000FEF765FC0020FEF762FC5520FEF75FFC6C
:1046C0000020FEF75CFC5520FEF759FC0020FEF7A9
:1046D00056FC4420FEF753FC0020FEF750FC44201B
:1046E000FEF74DFC0020FEF74AFC5520FEF747FC84
:1046F0000020FEF744FCE920FEF74DFCAA20FEF75F
:104700003EFC0020FEF73BFC0020FEF738FC0020BA
:10471000FEF735FC0020FEF73EFCAA20FEF72FFC3A
:10472000CF20FEF738FC0020FEF729FC0020FEF722
:1047300026FC0020FEF723FC0020FEF720FC0020D2
:10474000FEF71DFC0020FEF71AFC0020FEF717FC08
:104750000020FEF714FC0020FEF711FC0020FEF7FD
:104760000EFC0020FEF70BFC0020FEF708FC0020EA
:10477000FEF705FC0020FEF702FC0020FEF7FFFB21
:104780000020FEF7FCFB0020FEF7F9FBF020FEF70F
:1047900002FC0020FEF7F3FB5020FEF7F0FB0020A8
:1047A000FEF7EDFB0020FEF7EAFB0020FEF7E7FB3B
:1047B000F320FEF7F0FB0020FEF7E1FBF920FEF707
:1047C000EAFB0620FEF7DBFB1020FEF7D8FB2920D2
:1047D000FEF7D5FB0020FEF7D2FB3A20FEF7DBFB0D
:1047E0005520FEF7CCFB1120FEF7D5FB6420FCF72B
:1047F000DFFA2920FEF7CFFB3520FEF7CCFB0020A7
:10480000FEF7BDFB5120FEF7C6FBFF20FEF7B7FB0E
:104810005320FEF7C0FB2C20FEF7B1FB5520FEF71E
:10482000BAFB8220FEF7ABFB2C20FCE3A8427CD134
:104830004FF4704355211846FEF7C4FB4FF2010AAE
:10484000AA215046FEF7BEFB4FF2020B52215846FA
:10485000FEF7B8FB08214FF20300FEF7B3FB01217E
:104860004FF20400FEF7AEFB0D214FF43040FEF78F
:10487000A9FB0D214BF20100FEF7A4FB0D214BF229
:104880000200FEF79FFB34214FF43640FEF79AFBFF
:1048900034214BF20160FEF795FB34214BF20260AC
:1048A000FEF790FB0D214FF43140FEF78BFB0D21FD
:1048B0004BF20110FEF786FB0D214BF20210FEF7C2
:1048C00081FB34214FF43740FEF77CFB34214BF25F
:1048D0000170FEF777FB34214BF20270FEF772FB9A
:1048E00000214FF43240FEF76DFB00214BF2012016
:1048F000FEF768FB00214BF20220FEF763FB242148
:104900004FF43840FEF75EFB24214BF60100FEF722
:1049100059FB24214BF60200FEF754FB01214FF412
:104920003F40FEF74FFB0F2100E0FDE34FF4334023
:10493000FEF748FB0F214BF20130FEF743FB0F213E
:104940004BF20230FEF73EFB34214FF43940FEF7C4
:1049500039FB34214BF60110FEF734FB34214BF6C2
:104960000210FEF72FFB08214FF43540FEF72AFB1B
:1049700008214BF20150FEF725FB08214BF20250B3
:10498000FEF720FB03214FF44240FEF71BFB2421DE
:104990004FF43A40FEF716FB24214BF60120FEF7B8
:1049A00011FB24214BF60220FEF70CFB00214FF4F3
:1049B0003C40FEF707FB78214BF60140FEF702FB77
:1049C00000214BF60240FEF7FDFA00214FF43D4076
:1049D000FEF7F8FA78214BF60150FEF7F3FA0021C2
:1049E0004BF60250FEF7EEFA00214FF43E40FEF780
:1049F000E9FA64214BF60160FEF7E4FA00214FF476
:104A00005140FEF7DFFA33214DF20110FEF7DAFADA
:104A100000214DF20210FEF7D5FA34214DF20310B9
:104A2000FEF7D0FA00214DF20410FEF7CBFA3A213E
:104A30004DF20510FEF7C6FA00214DF20610FEF702
:104A4000C1FA4A214DF20710FEF7BCFA00214DF2DF
:104A50000810FEF7B7FA5C214DF20910FEF7B2FA22
:104A600000214DF20A10FEF7ADFA81214DF20B1034
:104A7000FEF7A8FA00214DF20C10FEF7A3FAA621CA
:104A80004DF20D10FEF79EFA00214DF20E10FEF7CA
:104A900099FAE5214DF20F10FEF794FA01214DF23B
:104AA0001010FEF78FFA13214DF21110FEF78AFA5B
:104AB00001214DF21210FEF785FA54214DF2131028
:104AC000FEF780FA01214DF21410FEF77BFA8221E5
:104AD0004DF21510FEF776FA01214DF21610FEF791
:104AE00071FACA214DF21710FEF76CFA02214DF24D
:104AF0001810FEF767FA00214DF21910FEF762FA5E
:104B000002214DF21A10FEF75DFA01214DF21B1041
:104B1000FEF758FA02214DF21C10FEF753FA342129
:104B20004DF21D10FEF74EFA02214DF21E10FEF757
:104B300049FA67214DF21F10FEF744FA02214DF2A7
:104B40002010FEF73FFA84214DF22110FEF73AFAC9
:104B500002214DF22210FEF735FAA4214DF2231066
:104B6000FEF730FA02214DF22410FEF72BFAB7219E
:104B70004DF22510FEF726FA02214DF22610FEF71F
:104B800021FACF214DF22710FEF71CFA02214DF237
:104B90002810FEF717FADE214DF22910FEF712FA5F
:104BA00002214DF22A10FEF70DFAF2214DF22B10E0
:104BB000FEF708FA02214DF22C10FEF703FAFE214F
:104BC0004DF22D10FEF7FEF903214DF22E10FEF7E7
:104BD000F9F910214DF22F10FEF7F4F903214DF2EF
:104BE0003010FEF7EFF933214DF23110FEF7EAF9FC
:104BF00003214DF23210FEF7E5F96D214DF233102D
:104C0000FEF7E0F900214FF45240FEF7DBF93321C3
:104C10004DF20120FEF7D6F900214DF20220FEF7F9
:104C2000D1F934214DF20320FEF7CCF900214DF2E9
:104C30000420FEF7C7F93A214DF20520FEF7C2F92C
:104C400000214DF20620FEF7BDF94A214DF2072062
:104C5000FEF7B8F900214DF20820FEF7B3F95C2108
:104C60004DF20920FEF7AEF900214DF20A20FEF7C1
:104C7000A9F981214DF20B20FEF7A4F900214DF294
:104C80000C20FEF79FF9A6214DF20D20FEF79AF9B0
:104C900000214DF20E20FEF795F9E5214DF20F208F
:104CA000FEF790F901214DF21020FEF78BF9132148
:104CB0004DF21120FEF786F901214DF21220FEF788
:104CC00081F954214DF21320FEF77CF901214DF2B8
:104CD0001420FEF777F982214DF21520FEF772F9C4
:104CE00001214DF21620FEF76DF9CA214DF2172071
:104CF000FEF768F902214DF21820FEF763F9002152
:104D00004DF21920FEF75EF902214DF21A20FEF74E
:104D100059F901214DF21B20FEF754F902214DF201
:104D20001C20FEF74FF934214DF21D20FEF74AF901
:104D300002214DF21E20FEF745F967214DF21F209A
:104D4000FEF740F902214DF22020FEF73BF98421C5
:104D50004DF22120FEF736F902214DF22220FEF716
:104D600031F9A4214DF22320FEF72CF902214DF256
:104D70002420FEF727F9B7214DF22520FEF722F96E
:104D800002214DF22620FEF71DF9CF214DF22720FA
:104D9000FEF718F902214DF22820FEF713F9DE2163
:104DA0004DF22920FEF70EF902214DF22A20FEF7DE
:104DB00009F9F2214DF22B20FEF704F902214DF200
:104DC0002C20FEF7FFF8FE214DF22D20FEF7FAF819
:104DD00003214DF22E20FEF7F5F810214DF22F2081
:104DE000FEF7F0F803214DF23020FEF7EBF8332107
:104DF0004DF23120FEF7E6F803214DF23220FEF7A6
:104E0000E1F86D214DF23320FEF7DCF800214FF47C
:104E10005340FEF7D7F833214DF20130FEF7D2F8B8
:104E200000214DF20230FEF7CDF834214DF203306F
:104E3000FEF7C8F800214DF20430FEF7C3F83A211E
:104E40004DF20530FEF7BEF800214DF20630FEF7B8
:104E5000B9F84A214DF20730FEF7B4F800214DF2BF
:104E60000830FEF7AFF85C214DF20930FEF7AAF8E2
:104E700000214DF20A30FEF7A5F881214DF20B30EA
:104E8000FEF7A0F800214DF20C30FEF79BF8A621AA
:104E90004DF20D30FEF796F800214DF20E30FEF780
:104EA00091F8E5214DF20F30FEF78CF801214DF21B
:104EB0001030FEF787F813214DF21130FEF782F81B
:104EC00001214DF21230FEF77DF854214DF21330DE
:104ED000FEF778F801214DF21430FEF773F88221C5
:104EE0004DF21530FEF76EF801214DF21630FEF747
:104EF00069F8CA214DF21730FEF764F802214DF22D
:104F00001830FEF75FF800214DF21930FEF75AF81D
:104F100002214DF21A30FEF755F801214DF21B30F7
:104F2000FEF750F802214DF21C30FEF74BF8342109
:104F30004DF21D30FEF746F802214DF21E30FEF70D
:104F400041F867214DF21F30FEF73CF802214DF287
:104F50002030FEF737F884214DF22130FEF732F889
:104F600002214DF22230FEF72DF8A4214DF223301C
:104F7000FEF728F802214DF22430FEF723F8B7217E
:104F80004DF22530FEF71EF802214DF22630FEF7D5
:104F900019F8CF214DF22730FEF714F802214DF217
:104FA0002830FEF70FF8DE214DF22930FEF70AF81F
:104FB00002214DF22A30FEF705F8F2214DF22B3096
:104FC000FEF700F802214DF22C30FDF7FBFFFE2129
:104FD0004DF22D30FDF7F6FF03214DF22E30FDF797
:104FE000F1FF10214DF22F30FDF7ECFF03214DF2C0
:104FF0003030FDF7E7FF33214DF23130FDF7E2FFAE
:1050000003214DF23230FDF7DDFF6D214DF23330DB
:10501000FDF7D8FF00214FF45440FDF7D3FF3321B3
:105020004DF2014000E084E3FDF7CCFF00214DF29A
:105030000240FDF7C7FF34214DF20340FDF7C2FFE8
:1050400000214DF20440FDF7BDFF3A214DF205402D
:10505000FDF7B8FF00214DF20640FDF7B3FF4A21EE
:105060004DF20740FDF7AEFF00214DF20840FDF77D
:10507000A9FF5C214DF20940FDF7A4FF00214DF28C
:105080000A40FDF79FFF81214DF20B40FDF79AFF8B
:1050900000214DF20C40FDF795FFA6214DF20D4089
:1050A000FDF790FF00214DF20E40FDF78BFFE5214B
:1050B0004DF20F40FDF786FF01214DF21040FDF744
:1050C00081FF13214DF21140FDF77CFF01214DF2CC
:1050D0001240FDF777FF54214DF21340FDF772FFA8
:1050E00001214DF21440FDF76DFF82214DF2154074
:1050F000FDF768FF01214DF21640FDF763FFCA215D
:105100004DF21740FDF75EFF02214DF21840FDF70A
:1051100059FF00214DF21940FDF754FF02214DF2D5
:105120001A40FDF74FFF00E006E301214DF21B405E
:10513000FDF748FF02214DF21C40FDF743FF3421EB
:105140004DF21D40FDF73EFF02214DF21E40FDF7DE
:1051500039FF67214DF21F40FDF734FF02214DF268
:105160002040FDF72FFF84214DF22140FDF72AFF5B
:1051700002214DF22240FDF725FFA4214DF22340EC
:10518000FDF720FF02214DF22440FDF71BFFB72160
:105190004DF22540FDF716FF02214DF22640FDF7A6
:1051A00011FFCF214DF22740FDF70CFF02214DF2F8
:1051B0002840FDF707FFDE214DF22940FDF702FFF1
:1051C00002214DF22A40FDF7FDFEF2214DF22B4067
:1051D000FDF7F8FE02214DF22C40FDF7F3FEFE2113
:1051E0004DF22D40FDF7EEFE03214DF22E40FDF76E
:1051F000E9FE10214DF22F40FDF7E4FE03214DF2B0
:105200003040FDF7DFFE33214DF23140FDF7DAFE8D
:1052100003214DF23240FDF7D5FE6D214DF23340B2
:10522000FDF7D0FE00214FF45540FDF7CBFE3321B2
:105230004DF20150FDF7C6FE00214DF20250FDF780
:10524000C1FE34214DF20350FDF7BCFE00214DF2AA
:105250000450FDF7B7FE3A214DF20550FDF7B2FEBE
:1052600000214DF20650FDF7ADFE4A214DF20750E8
:10527000FDF7A8FE00214DF20850FDF7A3FE5C21CA
:105280004DF20950FDF79EFE00214DF20A50FDF748
:1052900099FE81214DF20B50FDF794FE00214DF255
:1052A0000C50FDF78FFEA6214DF20D50FDF78AFE42
:1052B00000214DF20E50FDF785FEE5214DF20F5015
:1052C000FDF780FE01214DF21050FDF77BFE13210A
:1052D0004DF21150FDF776FE01214DF21250FDF70F
:1052E00071FE54214DF21350FDF76CFE01214DF279
:1052F0001450FDF767FE82214DF21550FDF762FE56
:1053000001214DF21650FDF75DFECA214DF21750F6
:10531000FDF758FE02214DF21850FDF753FE002113
:105320004DF21950FDF74EFE02214DF21A50FDF7D5
:1053300049FE01214DF21B50FDF744FE02214DF2C2
:105340001C50FDF73FFE34214DF21D50FDF73AFE93
:1053500002214DF21E50FDF735FE67214DF21F5020
:10536000FDF730FE02214DF22050FDF72BFE842187
:105370004DF22150FDF726FE02214DF22250FDF79D
:1053800021FEA4214DF22350FDF71CFE02214DF217
:105390002450FDF717FEB7214DF22550FDF712FE00
:1053A00002214DF22650FDF70DFECF214DF2275080
:1053B000FDF708FE02214DF22850FDF703FEDE2125
:1053C0004DF22950FDF7FEFD02214DF22A50FDF766
:1053D000F9FDF2214DF22B50FDF7F4FD02214DF2C3
:1053E0002C50FDF7EFFDFE214DF22D50FDF7EAFDAB
:1053F00003214DF22E50FDF7E5FD10214DF22F5007
:10540000FDF7E0FD03214DF23050FDF7DBFD3321C8
:105410004DF23150FDF7D6FD03214DF23250FDF72C
:10542000D1FD6D214DF23350FDF7CCFD00214FF43D
:105430005640FDF7C7FD33214DF20160FDF7C2FD77
:1054400000214DF20260FDF7BDFD34214DF20360F5
:10545000FDF7B8FD00214DF20460FDF7B3FD3A21E0
:105460004DF20560FDF7AEFD00214DF20660FDF73F
:10547000A9FD4A214DF20760FDF7A4FD00214DF280
:105480000860FDF79FFD5C214DF20960FDF79AFD74
:1054900000214DF20A60FDF795FD81214DF20B6070
:1054A000FDF790FD00214DF20C60FDF78BFDA6216C
:1054B0004DF20D60FDF786FD00214DF20E60FDF707
:1054C00081FDE5214DF20F60FDF77CFD01214DF2DC
:1054D0001060FDF777FD13214DF21160FDF772FDAD
:1054E00001214DF21260FDF76DFD54214DF2136064
:1054F000FDF768FD01214DF21460FDF763FD822187
:105500004DF21560FDF75EFD01214DF21660FDF7CD
:1055100059FDCA214DF21760FDF754FD02214DF2ED
:105520001860FDF74FFD00214DF21960FDF74AFDAF
:1055300002214DF21A60FDF745FD01214DF21B607D
:10554000FDF740FD02214DF21C60FDF73BFD3421CB
:105550004DF21D60FDF736FD02214DF21E60FDF794
:1055600031FD67214DF21F60FDF72CFD02214DF248
:105570002060FDF727FD84214DF22160FDF722FD1B
:1055800002214DF22260FDF71DFDA4214DF22360A2
:10559000FDF718FD02214DF22460FDF713FDB72140
:1055A0004DF22560FDF70EFD02214DF22660FDF75C
:1055B00009FDCF214DF22760FDF704FD02214DF2D8
:1055C0002860FDF7FFFCDE214DF22960FDF7FAFCB3
:1055D00002214DF22A60FDF7F5FCF2214DF22B601D
:1055E000FDF7F0FC02214DF22C60FDF7EBFCFE21F3
:1055F0004DF22D60FDF7E6FC03214DF22E60FDF724
:10560000E1FC10214DF22F60FDF7DCFC03214DF28F
:105610003060FDF7D7FC33214DF23160FDF7D2FC4D
:1056200003214DF23260FDF7CDFC6D214DF2336068
:10563000FDF7C8FC55211846FDF7C4FCAA215046C9
:10564000FDF7C0FC52215846FDF7BCFC08214FF283
:105650000300FDF7B7FC00214FF20400FDF7B2FC98
:10566000CC214FF43140FDF7ADFC00214BF201108D
:10567000FDF7A8FC05214FF43640FDF7A3FC70218F
:105680004FF43740FDF79EFC70214BF20170FDF79F
:1056900099FC01214FF43840FDF794FC03214BF6AF
:1056A0000100FDF78FFC03214BF60200FDF78AFC99
:1056B00003214BF60300FDF785FC02214FF43C402B
:1056C000FDF780FC00214BF60140FDF77BFC00213B
:1056D0004BF60240FDF776FCD0214FF44940FDF730
:1056E00071FC02214CF60110FDF76CFC50214CF6C8
:1056F0000210FDF767FC50214CF60310FDF762FC29
:1057000050214CF60410FDF75DFC00214FF454507D
:10571000FDF758FC55214FF46850FDF753FC4FF44A
:105720008850FDF738FC7720401EC0B2FCD24FF401
:105730002450FDF730FCBAE04045FCD1E220FDF7F3
:105740002AFC1D20FDF71BFC0220FDF718FC04209D
:10575000FDF715FC6320401EC0B2FCD2E020FDF72F
:105760001AFC0120FDF70BFC0A20FBF721FBE020CF
:10577000FDF711FC0320FDF702FC0C20FBF718FBE2
:105780000120FDF708FC0A20FBF712FBE620FDF7DD
:1057900002FC2F20FDF7F3FBFF20FDF7F0FBFF20BD
:1057A000FDF7EDFBB020FDF7F6FB2020FDF7E7FB52
:1057B0000020FDF7E4FB0320FDF7E1FB40F21F3082
:1057C000FDF7DDFB0120FDF7DAFB40F2DF10FDF70E
:1057D000D6FB0020FDF7D3FBB420FDF7DCFB042053
:1057E000FDF7CDFB40F21F40FDF7C9FB0020FDF7A0
:1057F000C6FB2E20FDF7C3FB0020FDF7C0FB0020F9
:10580000FDF7BDFB0020FDF7BAFB0020FDF7B7FB5D
:10581000B620FDF7C0FB0220FDF7B1FB4FF403708B
:10582000FDF7ADFB0020FDF7AAFB1720FDF7A7FB56
:105830001520FDF7A4FB0020FDF7A1FB0020FDF7DC
:105840009EFBF020FDF7A7FB0320FDF798FB292026
:10585000FDF7A1FBD020FDF79EFB0020FDF78FFB9D
:10586000BE20FDF798FB0520FDF789FBFE20FDF724
:1058700086FB0120FDF783FB0020FDF780FB002065
:10588000FDF77DFB0020FDF77AFBB820FDF783FBD9
:105890000320FDF774FB0120FDF771FBBA20FDF733
:1058A0007AFB0120FDF76BFB6420FDF703F9A0886C
:1058B000B04205D0B84203D0A84201D0404519D12A
:1058C0004FF02040D0F81C1121F00F01C0F81C113E
:1058D000D0F81C1121F47061C0F81C11D0F81C1113
:1058E00041F00301C0F81C11D0F81C1141F4007103
:1058F000C0F81C110020FCF71DFF0548016841F4A9
:10590000004101604846BDE8F05FFCF7F9BE0000C9
:10591000140402400148FCF7EFBB000070110020A6
:10592000F0B50268254C264D264E274F274B4FF0E9
:10593000804CA04209D0604507D0A84205D0B042B3
:1059400003D0B84201D0984204D122F0700E4A68C8
:1059500042EA0E02A0421BD0604519D0A84217D0DF
:10596000B04215D0B84213D0984211D0184DA84279
:105970000ED0184DA8420BD0174DA84208D0174D95
:10598000A84205D0164DA84202D0164DA84203D118
:1059900022F44075CA682A434D6922F080022A43E6
:1059A00002608A68C2620A688262A04201D098429C
:1059B00001D10969016301214161F0BD000001408D
:1059C0000004004000080040000C004000040140BA
:1059D00000400140004401400048014000180040E0
:1059E000001C00400020004010B501F01F03012101
:1059F000046A99408C430462016A9A40114301622F
:105A000010BD10B5846842EA032224F47F440A439F
:105A10002243826010BD826822F070020A4342F085
:105A20000701816070470000F0B5026A22F00102B0
:105A30000262036A42688469124E24F073050C689E
:105A40002C4323F002058B682B430D4DA84201D057
:105A5000B04205D123F00807CB683B4323F0040391
:105A6000A84201D0B04205D14D6922F440721543DD
:105A70008A692A4342608461496841630362F0BDD8
:105A80000000014000040140F0B5026A22F010025B
:105A90000262026A436884690D6824F4E64444EAB9
:105AA00005248D6822F0200242EA05120F4D104EA7
:105AB000A84201D0B04206D1CF6822F0800242EA6B
:105AC000071222F04002A84201D0B04207D14D692E
:105AD00023F4406343EA85038D6943EA8503436009
